:046000000C940038C4
:106010000F931F93CF93DF938B0160E070E0A42F69
:10602000B0E01197641738F5E80121966A177B07ED
:1060300011F09E0102C02FEF3FE0F801F695E795C1
:10604000E00FF0E0E80FF91F00FF0DC0122F1295CE
:10605000107F50815F70512B508354E03695279507
:106060005A95E1F703C02083207F232B21836F5FA4
:106070007F4F8E01D7CFDF91CF911F910F91089560
:10608000611520E772078105910558F4AB01BC0149
:106090004F7755276627772781E0452B462B472BDF
:1060A00009F080E081700895AF92BF92CF92DF92A5
:1060B000EF92FF920F931F93CF93DF93CDB7DEB78D
:1060C000D2500FB6F894DEBF0FBECDBF9C01AE011B
:1060D0004F5F5F4F7A0180E092E0FA01AC011192CC
:1060E00041505040E1F723303105C0F421303105F3
:1060F00008F58EE3E0E1F2E0D70101900D928A9578
:10610000E1F785E5C150DE4F8883CF5FD1408AEA51
:10611000C050DE4F8883C050D24076C02330310556
:10612000E9F480EAE1E0F1E0D70101900D928A956F
:10613000E1F76AC088EF89838FEF8A838B83609150
:106140005B0170915C014CE0C70162DF60919B01D3
:1061500070919C0141E0C7015BDF56C080915B01FB
:1061600090915C018150904C880F991F880F991F66
:106170002817390770F480919B0190919C01815000
:10618000904C880F991F880F991F28173907E8F43A
:106190003BC0AC01415D5F4F4217530760F3F9010B
:1061A000E81BF90BCF01982F8827990FAE014F5F9D
:1061B0005D4FD7018E199F09FC01EA0FFB1FE49187
:1061C000ED93A417B507C1F7D6CFAC014F5F5F4F72
:1061D00042175307C8F08901081B190B102F00271D
:1061E000110F5E01FFEFAF1AFDEFBF0A67010E1935
:1061F0001F09C8018C0D9D1D0E949B3BF6018193D8
:106200006F01EA15FB05A9F740E050E060E072E09D
:10621000C7010E94C2398091E8008E778093E80020
:10622000DE5F0FB6F894DEBF0FBECDBFDF91CF911A
:106230001F910F91FF90EF90DF90CF90BF90AF90A4
:1062400008954F925F926F927F928F929F92AF923A
:10625000BF92CF92DF92EF92FF920F931F93CF9353
:10626000DF93CDB7DEB7D2500FB6F894DEBF0FBEC6
:10627000CDBF8C0140E050E060E072E0CE010196BD
:106280000E9479398091E8008B778093E800033091
:10629000110508F48DC00330110551F480EAFE01A8
:1062A0003196A1E0B1E001900D928A95E1F780C0AE
:1062B00080915B0190915C018150904C880F991FF7
:1062C000880F991F0817190778F480919B01909106
:1062D0009C018150904C880F991F880F991F0817B7
:1062E000190708F046C064C09C01215D3F4F20178C
:1062F000310758F37801E81AF90AFE2CEE24FF0C56
:1063000067018EEFD81A47012401612C712CC4015A
:106310008F779927892B21F4C301B2010E94E63CB3
:10632000F401EE19FF0981E090E08C0F9D1FE80F4A
:10633000F91F418150E0542F44278081482BC3012D
:10634000B2010E94B63C540192E0A90EB11CC501F5
:106350008F779927892B39F4B4016E57710980E042
:1063600090E00E94C33CAC14BD0409F4AECF4501DB
:10637000CBCF9C012F5F3F4F20173107C8F0081B80
:10638000190B102F0027110FFE0131967F01C12C30
:10639000D12CF70161917F01C601800F911F0E94EE
:1063A0009A3BFFEFCF1ADF0AC11482E0D80689F7C3
:1063B000DE5F0FB6F894DEBF0FBECDBFDF91CF9189
:1063C0001F910F91FF90EF90DF90CF90BF90AF9013
:1063D0009F908F907F906F905F904F900895CF9295
:1063E000DF92FF920F931F93CF93DF934091C101F0
:1063F0005091C0010091C401C02F1091C301D12F51
:106400004235510520F4F82E8A016A0114C08091AA
:10641000DC01807F85608093DC0181E28093E6016E
:106420001092E70180E031C0C601FF2059F03CDE48
:106430002FEFC21AD20AC601801B910B8C179D0741
:1064400098F302C0FEDEF4CFCE01A0E0B0E029E078
:10645000880F991FAA1FBB1F2A95D1F74091B5013C
:106460005091B6016091B7017091B8018A019B010A
:10647000081B190B2A0B3B0B0093B5011093B601B7
:106480002093B7013093B80181E0DF91CF911F9144
:106490000F91FF90DF90CF900895CF93DF9300D0BE
:1064A000CDB7DEB784B7877F84BF0FB6F894A895C1
:1064B00080916000886180936000109260000FBE40
:1064C00090E080E80FB6F8948093610090936100AB
:1064D0000FBE11E015BF82E085BF8091D8008F7E8E
:1064E0008093D8008091D70081608093D70084E0AA
:1064F00082BF109380028091D8008E7F8093D80055
:106500001092E2001092DA001092E1008091D8001F
:106510008F778093D8008091D80080688093D800CE
:106520008091D8008F7D8093D80019BC1EBA10923C
:1065300082028091E0008B7F8093E0008091D80000
:1065400081608093D80042E060E080E090D6809146
:10655000E1008E7F8093E1008091E2008160809372
:10656000E2008091E20088608093E2008091E00088
:106570008E7F8093E0008091D80080618093D80066
:1065800010936F0083E0809381007894AA24A394F1
:10659000B12CEE24E39451E5952E65E5462E63E596
:1065A000562E62E4662E752C70E2872E82E0282E2D
:1065B00094E2392E80910001882309F41FC28EB322
:1065C000843009F003C28091A7018F708093E900A5
:1065D0009091E80092FFC2C18093E9001A8219826B
:1065E000AE014F5F5F4F6FE070E08DEA91E081D6C2
:1065F000853029F48091D901882391F3AFC180912E
:10660000AD019091AE01A091AF01B091B00185357F
:106610009345A244B34479F49091BA018091AC01BE
:10662000981748F48091B9018F7129F48091BB01CA
:106630008150803180F08091EB0080628093EB008C
:106640008091A2018F708093E9008091EB008062BD
:106650008093EB0083C11A8219826091BB0170E0C4
:10666000AE014F5F5F4F8CEB91E043D6853029F44C
:106670008091D901882389F371C18091E8008B77DB
:106680008093E800FF24F3948091B90187FF05C04F
:106690008091A2018F708093E9008091BC018F31BD
:1066A000A0F48D3108F0D0C08231F1F138F48823A4
:1066B00009F4CAC0833009F46FC0CFC08A3109F42D
:1066C00099C08B3109F4B7C0C8C0883209F48DC0B5
:1066D00020F5853209F0C1C01092F1001092F1004E
:1066E0001092F1009092F1001092F1001092F100DE
:1066F0002092F1001092F1008091E8008E77809353
:10670000E8008091B5019091B601A091B701B091D8
:10671000B8010897A109B10985C08A3209F463C09C
:106720008F3209F491C099C00091C0011091BF014E
:1067300068010532110518F034E2C32ED12C809186
:10674000BD01837021F48091BE01882349F08091BE
:10675000DC01807F85608093DC013092E60185C09A
:1067600040E050E0B6018CEE91E00CD6C8018C19E7
:106770009D093CD58091E8008E778093E800809158
:10678000B5019091B601A091B701B091B8018C19F3
:106790009D09A109B10946C0D090C001CD2C82E16C
:1067A0008D1510F422E1C22E0C2D10E040E050E0D7
:1067B000B8018AED91E0E6D58D2D90E0801B910B1C
:1067C00015D58091E8008E778093E8008091B5011F
:1067D0009091B601A091B701B091B8018C199109BF
:1067E000A109B1091FC080E001C081E0F8DD81117D
:1067F0003FC048C01092F1001092F1001092F100D9
:106800001092F1008091E8008E778093E8008091EB
:10681000B5019091B601A091B701B091B80104976C
:10682000A109B1098093B5019093B601A093B70176
:10683000B093B8011DC08091C001837091E0823097
:1068400009F490E0909300011092B5011092B60106
:106850001092B7011092B8010BC08091DC01807FCB
:1068600085608093DC018092E6011092E7010AC006
:106870008091DC01807F8093DC011092E601109210
:10688000E70101C0F12C109281028F2D8E2580939B
:10689000D8014092CC015092CD016092CE0170920D
:1068A000CF018091B1019091B201A091B301B0915B
:1068B000B4018093D0019093D101A093D201B09301
:1068C000D3018091B5019091B601A091B701B0912B
:1068D000B8018093D4019093D501A093D601B093D1
:1068E000D701F11009C0892B8A2B8B2B29F08091BD
:1068F000EB0080628093EB008091A7018F70809302
:10690000E9008091EB0085FF05C08091D9018823C3
:10691000C1F324C08091A2018F708093E90080911F
:10692000EB0085FF05C08091D9018823C1F316C013
:106930001A821982AE014F5F5F4F6DE070E08CEC00
:1069400091E020D5853029F48091D901882391F3F5
:1069500005C08091E8008E778093E8008091D9018E
:106960008823A1F19091A7019F709501092E01C084
:10697000220F0A94EAF72093EA001092EA0080912D
:10698000A2018F709501082E01C0220F0A94EAF728
:106990002093EA001092EA009093E9009091EB00B6
:1069A00090619093EB009091EB0098609093EB00D6
:1069B0008093E9008091EB0080618093EB008091EF
:1069C000EB0088608093EB001092D9018EB388238E
:1069D00009F4F0CD1091E9001F709091EC00892F1F
:1069E000817090FD80E8182B1092E9008091E800FA
:1069F00083FD11D51F701093E900D8CD80918102DD
:106A000091E0980F909381028F3F09F0D8CD8FE9E4
:106A10009FE00197F1F700C000008091E0008160E5
:106A20008093E00082E49CED90938C0280938B0233
:106A30009CE088E10FB6F894A895809360000FBEA3
:066A400090936000FFCFFF
:107000005FC00000C1C00000BFC00000BDC00000E4
:10701000BBC00000B9C00000B7C00000B5C0000090
:10702000B3C00000B1C00000CAC3000085C30000A7
:10703000ABC00000A9C00000A7C00000A5C00000B0
:10704000A3C00000A1C000009FC000009DC00000C0
:10705000E0C4000099C0000097C0000095C0000087
:1070600093C0000091C000008FC000008DC00000E0
:107070008BC0000089C0000087C0000085C00000F0
:1070800083C0000081C000007FC000007DC0000000
:107090007BC0000079C0000077C0000075C0000010
:1070A00073C0000071C000006FC00000613A813AF7
:1070B000283B813A283BBF3AE03A283BED3AFC3A7C
:1070C00011241FBECFEFDAE0DEBFCDBF84B7877FCC
:1070D00084BF0FB6F894A895809160008861809372
:1070E0006000109260000FBEE3E0F0E089E0809362
:1070F0005700849180FD05C084B784B78D7F84BF1D
:1071000004C084B784B7877F84BF2A9A22982FEF60
:1071100080E792E0215080409040E1F700C00000FD
:1071200063B120E030E0F9014591549162FF17C04E
:107130004F3F5F4FA1F084B7877F84BF0FB6F894AD
:10714000A895809160008861809360001092600033
:107150000FBE10928C0210928B02F901099512E079
:10716000A0E0B1E0EAE6FAE702C005900D92A0388F
:10717000B107D9F722E0A0E8B2E001C01D92AB3818
:10718000B207E1F78AD96FC43BCF2091E400309178
:10719000E50095E64091EC00842F817040FF21C00E
:1071A0008091E80080FD1BC08EB3882391F085306C
:1071B00091F08091EB0085FD10C04091E40050916A
:1071C000E5004217530731F39A01915019F784E013
:1071D000089582E0089583E0089581E0089580E0B5
:1071E00008954091E80042FFDFCF08950F931F9369
:1071F000CF93DF938C01C9DF811117C0C0E0D0E0CD
:10720000C017D10788F48091E80085FD09C09091EE
:10721000E8009E779093E800B8DF882389F305C0E3
:107220001092F1002196ECCF80E0DF91CF911F9179
:107230000F9108958091830287FF0FC08091E8002D
:1072400082FD04C08EB38111F9CF10C08091E80097
:107250008B770AC08EB3882349F08091E80080FFC5
:10726000F9CF8091E8008E778093E80008958F70C1
:107270008093E900EBEEF0E0808181608083EDEEA9
:10728000F0E010826093EC0040838091EE00881F54
:107290008827881F0895FC016081611102C081E088
:1072A00008952481A181B2819381862F8F708730C8
:1072B00010F080E00895223010F442E001C046E072
:1072C000E8E0F0E020E0EA17FB0720F42F5FEE0F84
:1072D000FF1FF9CF2295207F422B661F6627661F6E
:1072E00050E4959F90011124622BC1DF8111D7CF0B
:1072F000E0CFCF92DF92EF92FF920F931F93CF9345
:10730000DF93EC018B016A0140DF811132C0C114AF
:10731000D10439F0F60180819181081B190BC80F47
:10732000D91FE12CF12C0115110511F18091E80014
:1073300085FD15C08091E8008B778093E800C1142B
:10734000D10449F0F60180819181E80EF91EF182A5
:10735000E08285E00EC019DF882329F30AC08091FE
:10736000F100899301501109FFEFEF1AFF0ADBCFFB
:1073700080E0DF91CF911F910F91FF90EF90DF9010
:10738000CF900895CF92DF92EF92FF920F931F93C9
:10739000CF93DF93EC018B016A01F7DE811132C0DC
:1073A000C114D10439F0F60180819181081B190BB9
:1073B000C80FD91FE12CF12C0115110511F1809195
:1073C000E80085FD15C08091E8008E778093E80085
:1073D000C114D10449F0F60180819181E80EF91EB3
:1073E000F182E08285E00EC0D0DE882329F30AC056
:1073F00089918093F10001501109FFEFEF1AFF0A04
:10740000DBCF80E0DF91CF911F910F91FF90EF9044
:10741000DF90CF900895CF93E3E8F2E088E08E0FFD
:107420009091F10091938E13FBCF8091E80083FF40
:1074300036C08091A10190E02091870230918802AE
:107440002817390761F5809184028E3F81F08F3FC4
:1074500031F580918302813211F58091E800877FB8
:107460008093E800E7DE81E08093D90118C0809125
:107470008302813AA1F48091E800877F8093E8003D
:107480008091E80080FFFCCF8091AC018150809317
:10749000F1008091E8008E778093E800CBDE809148
:1074A000E80083FFD5C08091830290918402492F28
:1074B00050E04A30510508F0CBC0FA01EA5AF74CC7
:1074C000CCC2803899F0823809F0C2C0809187021E
:1074D0008F70873008F0BCC08093E9008091EB008A
:1074E00085FB882780F91092E90001C080E0909127
:1074F000E800977F9093E8008093F1001092F100EC
:1075000077C0282F2D7F09F0A3C0823009F0A0C0DA
:107510008091850281112AC0809187028F702FEFA0
:10752000280F263008F094C08093E9002091EB00EA
:1075300020FF1CC0933021F48091EB00806214C0C6
:107540009091EB0090619093EB0021E030E0A90175
:1075500002C0440F551F8A95E2F74093EA0010924B
:10756000EA008091EB0088608093EB001092E900C4
:107570008091E800877F8093E8005CDE69C081111C
:1075800067C0C0918502CF778091E30080788C2B13
:107590008093E3008091E800877F8093E8004ADED3
:1075A0008091E80080FFFCCF8091E30080688093A9
:1075B000E300C11102C082E001C083E08EBB48C07D
:1075C0008058823008F044C080918602813009F4EE
:1075D0004EC0823009F03CC04FC08038C9F5809160
:1075E000E800877F8093E800809182028093F10019
:1075F0008091E8008E77BFCF81112AC0C0918502AB
:10760000C23030F58091E800877F8093E800C09316
:10761000820210DEC11106C08091E30087FD02C026
:1076200081E001C084E08EBB8DE2EDEAF1E0DF0194
:107630001D928A95E9F782E08093A5018093AA01C3
:1076400082EA91E028DE882319F087EA91E023DEC0
:107650008091E80083FF6CC08091E800877F809371
:10766000E8008091EB0080628093EB0061C052E102
:1076700040E06EE672E004C050E240E06EE472E08A
:107680008091E800877F8093E80020918902309103
:107690008A02852F942F2817390708F4C90140E082
:1076A000009781F12EB32223E9F12530D9F1209101
:1076B000E80023FD37C02091E80022FD2FC0209173
:1076C000E80020FFEDCF4091F3002091F20030E080
:1076D000342BFB01BF01009751F02830310538F4FD
:1076E00041914093F10001972F5F3F4FF3CF41E06D
:1076F0002830310509F040E02091E8002E772093F2
:10770000E800CECF4111CECF09C08EB3882351F00F
:10771000853041F08091E80083FD04C08091E8004D
:1077200082FFF3CF8091E8008B778093E80090CFC1
:10773000CF91089580C177C11F920F920FB60F921B
:1077400011242F933F934F935F936F937F938F9366
:107750009F93AF93BF93CF93DF93EF93FF93C0912A
:10776000E900CF708091EC00D82FD17080FDD0E877
:107770001092E9008091F000877F8093F000789468
:107780004ADE1092E9008091F00088608093F0005A
:10779000CD2BCF70C093E900FF91EF91DF91CF9196
:1077A000BF91AF919F918F917F916F915F914F9119
:1077B0003F912F910F900FBE0F901F9018951F9221
:1077C0000F920FB60F9211242F933F934F935F9315
:1077D0006F937F938F939F93AF93BF93EF93FF9399
:1077E0008091DA0080FF19C08091D80080FF15C019
:1077F0008091DA008E7F8093DA008091D90080FF3B
:107800000AC080E189BD82E189BD09B400FEFDCFD7
:1078100081E08EBB02C019BC1EBA8091E10080FFDE
:1078200016C08091E20080FF12C08091E2008E7F3E
:107830008093E2008091E20080618093E200809179
:10784000D80080628093D80019BC85E08EBB8091FF
:10785000E10084FF2DC08091E20084FF29C080E117
:1078600089BD82E189BD09B400FEFDCF8091D800B9
:107870008F7D8093D8008091E1008F7E8093E1001E
:107880008091E2008F7E8093E2008091E20081602F
:107890008093E20080918202882311F084E007C087
:1078A0008091E30087FD02C081E001C083E08EBBD0
:1078B0008091E10083FF25C08091E20083FF21C019
:1078C0008091E100877F8093E10082E08EBB10927F
:1078D00082028091E1008E7F8093E1008091E2003E
:1078E0008E7F8093E2008091E20080618093E200CD
:1078F00042E060E080E0BBDC8091F0008860809333
:10790000F000FF91EF91BF91AF919F918F917F9187
:107910006F915F914F913F912F910F900FBE0F90FC
:107920001F9018959FB7F89407B600FCFDCFF99902
:10793000FECF809529E0E1E0F0E0082E209357008B
:10794000E8959FBF0895E1E0F0E089E0809357005B
:107950008491089529E0FC012093570084910895B3
:1079600021E2FC01209357008491089507B600FCA2
:10797000FDCFF999FECF21E0FB010A0120935700CA
:10798000E89511240895CF92DF92EF92FF926B0158
:107990007C010E9440308823A1F08FB7F89407B68D
:1079A00000FCFDCFF999FECF95E0F60190935700CA
:1079B000E89507B600FCFDCF91E190935700E8955C
:1079C0008FBFFF90EF90DF90CF900895CF92DF921E
:1079D000EF92FF926B017C010E9440308823A1F05E
:1079E0008FB7F89407B600FCFDCFF999FECF93E06E
:1079F000F60190935700E89507B600FCFDCF91E1A2
:107A000090935700E8958FBFFF90EF90DF90CF9055
:107A100008951F920F920FB60F9211240F900FBE70
:107A20000F901F901895F999FECF92BD81BDF89ADD
:107A3000992780B50895262FF999FECF92BD81BD73
:107A4000F89A019700B4021639F01FBA20BD0FB69C
:107A5000F894FA9AF99A0FBE0895EE0FFF1F059059
:0A7A6000F491E02D0994F894FFCF93
:107A6A000147504942555342424F4F5408000000C3
:107A7A0000000000000000000000000000000000FC
:107A8A00004146004C004100530048000F00262EDA
:107A9A0000420049004E0000000000000000000003
:107AAA0000464C41534820202042494E0000000025
:107ABA000000000000000020084E120200006000D2
:107ACA00004145004500500052004F000F00144D80
:107ADA00002E00420049004E000000000000000095
:107AEA0000454550524F4D202042494E00000000AB
:107AFA000000000000000020084E120E00FF0300E4
:107B0A000000834000000104400000010100000061
:107B1A00000000000000000000000000000000005B
:107B2A00000000000000000000000000000000004B
:107B3A0000000000000000000000700000000000CB
:107B4A00000A00000000000000000000008000029F
:107B5A001F0000004C55464100000000426F6F7440
:107B6A006C6F61646572000000000000302E3030D6
:107B7A00EB3C906D6B646F73667300000204010046
:107B8A000210005200F8010012000100000000007B
:107B9A000000000000002978563412475049425527
:107BAA005342424F4F544641543132202020090259
:107BBA00200001010080320904000002080650007A
:107BCA00070583024000050705040240000512016B
:107BDA00100100000008EB0345200100000000012D
:107FA00015CDF1CCE3CCDCCCD5CCCDCCBBCC08957D
:087FB000089508950895089555
:107FE000DFCFDFCFDFCFDFCFDFCFDFCFDFCFDFCF21
:087FF000DFCFDFCFDFCFDFCFD1
:087FF8000070000030DFFBDC2B
:040000030000700089
:00000001FF
