:100000000BC1000025C1000023C1000021C1000078
:100010001FC100001DC100001BC1000019C100006C
:1000200017C1000015C100000C94471811C1000051
:100030000FC100000DC100000BC1000009C100008C
:1000400007C1000005C1000003C1000001C100009C
:10005000FFC00000FDC00000FBC000000C94670D55
:10006000F7C00000F5C00000F3C00000F1C00000C0
:10007000EFC00000EDC00000EBC00000E9C00000D0
:10008000E7C00000E5C00000E3C00000E1C00000E0
:10009000DFC00000DDC00000DBC00000D9C00000F0
:1000A000D7C00000D5C00000D3C000001003470037
:1000B00070006900620055007300620000001603C2
:1000C000580079007000680072006F004C006100F9
:1000D0006200730000000403090409022700010103
:1000E00000C0320904000003FE03010007050302FB
:1000F0004000050705820240000507058103020054
:10010000051201100100000008EB03652001000149
:1001100002030100150615EC14F114F6143E151B2C
:10012000151D151F15541536151115FB1401152134
:100130001528152F15EB143C1507150C151615066B
:10014000610D744A76793082729973A502751264D2
:1001500044017415016F1801691B01641E022023FC
:10016000BF05026F28733002EE00662D01E6010123
:100170006C33016F3601773901653C02F20373413C
:1001800001F40401644701F21101654D017250014F
:100190006D53022058BF090463616C646567736D19
:1001A00001F20601E607016F6A01E90801747001B6
:1001B0006F7301727601E50A01657C01727F01BFF0
:1001C0000B023087318F01308A02B00CB10D013043
:1001D0009203B00EB10FB21001659C01739F0165CF
:1001E000A201F4120174A80172AB0169AE016EB1F3
:1001F0000167B40220B9BF150273BE6ECA0168C19F
:10020000016FC40172C701F413016FCD0172D001F7
:100210006DD30161D601EC1411241FBECFEFDAE0DB
:10022000DEBFCDBF11E0A0E0B1E0E6E2F5E302C041
:1002300005900D92A034B107D9F725E0A0E4B1E014
:1002400001C01D92A93DB207E1F7C2D70C94911AE3
:10025000D7CE2FE530E04FB7F89493E09093670541
:10026000882309F464C087E490E090936905809343
:10027000680580E590E090936B0580936A0589E4BA
:1002800090E090936D0580936C0582E490E09093EC
:100290006F0580936E0530937105209370058091F2
:1002A00002019DEC899F912D112496959695969526
:1002B000692F70E0605D7F4F7093730560937205E6
:1002C0005AE0959F8019112490E0C096909375058F
:1002D00080937405309377052093760528E080E0BD
:1002E0009EE031E20BC0F0E0F796AA0FBB1FA859C1
:1002F000BA4FED93FC938F5F843199F0A22FA80F32
:10030000E92FF0E030935700E49180FF03C0E295BD
:10031000EF709F5FEF70B0E0EA3028F7F0E0F09602
:10032000E4CF2B5E220F209366054FBF089520E097
:10033000D6CF85E38A95F1F7000080916105909111
:100340006205A0916305B09164050097A105B10510
:1003500069F00197A109B109809361059093620545
:10036000A0936305B093640580E0089581E008954B
:100370000E944F1A90914D0580914E05892B08954A
:100380000E944F1A90914E0580914D05892B08953A
:10039000DC01FC019C01245F3F4F9091F10091939F
:1003A000E217F307D1F711968C9180934405909151
:1003B0004D0581E0892708950E94D217F8942FEF08
:1003C00087EA91E6215080409040E1F700C00000AC
:1003D0009CE088E10FB6F894A895809360000FBE6A
:1003E00090936000EFEFF9E628E1E150F040204003
:1003F000E1F700C00000E0E0F0E70995FFCFFF92D1
:100400000F931F93CF93DF9300D0CDB7DEB7109239
:10041000660580EA96E8A1E0B0E0809361059093DC
:100420006205A0936305B093640569E971E080916A
:1004300002010E940B138091610590916205A091C9
:100440006305B0916405892B8A2B8B2B09F004C1BD
:1004500089E991E00E9443128091610590916205C3
:10046000A0916305B0916405892B8A2B8B2B09F42D
:10047000D5C080EA96E8A1E0B0E080936105909352
:100480006205A0936305B093640569E971E080910A
:1004900002010E94B712F12C10E049E951E0BE01BF
:1004A0006F5F7F4FCE0102960E94D311F110D1C031
:1004B0008C32B1F0982F9F7E9A32A1F09F3291F04A
:1004C0008C3581F0982F9D7F903261F08C3251F005
:1004D000863241F090EE980F9F3578F490E004C09A
:1004E000FF24F3948FE590E0E12FF0E0EE0FFF1F83
:1004F000E859FA4F918380831F5F123308F03BC1A4
:100500008981811103C08A81882339F2E12FF0E0CB
:10051000EE0FFF1FEA59FA4F808191818F359105C7
:1005200009F035C1123028F432C1102F013009F41E
:10053000F9C00FEF010FE02FF0E0EE0FFF1FEA59B7
:10054000FA4F808191818F35910579F3110F1093C6
:10055000660589E991E00E944312809161059091BE
:100560006205A0916305B09164050097A105B105EE
:1005700009F0ECC080EA96E8A1E0B0E08093610564
:1005800090936205A0936305B093640569E971E0F7
:10059000809102010E940B13809161059091620588
:1005A000A0916305B0916405892B8A2B8B2B09F0F0
:1005B00091C189E991E00E94431280916105909177
:1005C0006205A0916305B09164050097A105B1058E
:1005D00009F0F7C0F11022C020916805309169053B
:1005E00028343105D9F420916A0530916B05203506
:1005F0003105A1F420916C0530916D05205331092E
:10060000FF24F3942A30310508F0A4C1892B8A2BEA
:100610008B2B21F0002311F0F110ABC081E019DE2B
:1006200010E080E00E94BB112FEF81EE94E021509A
:1006300080409040E1F700C0000081E00E94BB11C3
:10064000812F0F900F90DF91CF911F910F91FF900D
:100650000895FF24F3942ECF49E951E060E08AE247
:100660000E9490138091610590916205A0916305AD
:10067000B09164050097A105B10509F447C049E9A7
:1006800051E060E089E40E949013809161059091AF
:100690006205A0916305B0916405892B8A2B8B2B91
:1006A00009F4D6CE49E951E060E084E40E94901359
:1006B0008091610590916205A0916305B0916405F8
:1006C000892B8A2B8B2B09F4C3CE49E951E060E0DA
:1006D0008EE40E9490138091610590916205A09133
:1006E0006305B0916405892B8A2B8B2B09F4B0CE5E
:1006F00049E951E060E08FE30E9490138091610529
:1007000090916205A0916305B0916405892B8A2BB5
:100710008B2B09F49DCE49E951E061E08AE00E940B
:10072000901396CE84E08093660589E991E00E945B
:1007300043128091610590916205A0916305B0918B
:1007400064050097A105B10509F414CFF11011C09B
:1007500020916805309169052834310509F05ECF94
:1007600020916A0530916B052035310509F056CF8F
:1007700041CF11E056CFE12FF0E0EE0FFF1FEA5915
:10078000FA4F808191818F35910509F4D2CE81E0B5
:10079000810F880F8093660589E991E00E944312DA
:1007A0008091610590916205A0916305B091640507
:1007B0000097A105B10509F4EFC01111EBC000E0ED
:1007C000D9CE80EA96E8A1E0B0E0809361059093ED
:1007D0006205A0936305B093640569E971E08091B7
:1007E00002010E94B71200E049E951E0BE016F5FCB
:1007F0007F4FCE0102960E94D311F11068C08C3257
:10080000B9F0982F9F7E9A32A9F09F3299F08C35DB
:1008100089F0982F9D7F903269F08C3259F08632A2
:1008200049F090EE980F9F3588F4282F30E005C0EE
:10083000FF24F3942FE530E08FE5E02FF0E0EE0F9A
:10084000FF1FE859FA4F318320830F5F023308F00E
:1008500094C09981911108C09A81911105C08D3081
:1008600019F08A3009F0C0CFE02FF0E0EE0FFF1F43
:10087000EA59FA4F808191818F35910589F40230D0
:1008800018F40EC0013061F00150E02FF0E0EE0FDF
:10089000FF1FEA59FA4F808191818F35910591F3BD
:1008A00081E0800F880F8093660589E991E00E94BE
:1008B00043128091610590916205A0916305B0910A
:1008C0006405FF2009F448C0FF24F3949FCEFF2461
:1008D000F39497CF49E951E060E089E40E949013D6
:1008E0008091610590916205A0916305B0916405C6
:1008F000892B8A2B8B2B09F45CCE49E951E060E00F
:1009000084E40E9490138091610590916205A0910A
:100910006305B0916405892B8A2B8B2B09F449CE92
:1009200049E951E060E08FE30E94901380916105F6
:1009300090916205A0916305B0916405892B8A2B83
:100940008B2B09F436CE49E951E061E08AE00E9440
:1009500090132FCEF12C5ACE209168053091690565
:100960002834310509F052CE20916A0530916B058B
:100970002035310509F04ACE3DCEE02FF0E0EE0FF4
:10098000FF1FEA59FA4F808191818F35910509F453
:100990007BCF86CF012FDACE012FECCD1F93CF93E3
:1009A000DF93EC01162FF999FECFCE010E947B1A3E
:1009B000811749F0F999FECF612FCE01DF91CF91D8
:1009C0001F910C94831ADF91CF911F91089584B7E2
:1009D000877F84BF0FB6F894A895809160008861E6
:1009E00080936000109260000FBE90E080E80FB628
:1009F000F89480936100909361000FBE0E942A18C2
:100A0000E0EEF0E080818160808380E022DC859AE6
:100A10008D9A08950895089542E061EC81E00E9466
:100A2000651746E361E882E00E94651746E360E8E7
:100A300083E00C946517CF93DF93C091E900CF70EA
:100A40008091EC001092E900D091480581E00E946D
:100A5000BB1180EF99E4A2E0B0E080936105909330
:100A60006205A0936305B093640569E971E0809124
:100A700002010E94AC1090914801892B109248010C
:100A800091E09093F100D093F1008093F100D09326
:100A9000460580934505909347058091E8008E7741
:100AA0008093E8000E94791710924905C093E900ED
:100AB000DF91CF910895CF938091D5059091D60580
:100AC0000097B9F59091D10590FF31C08091D20582
:100AD000863009F4BBC08730D0F18038B9F008F413
:100AE00066C0813A09F427C1823A09F4A4C0803A69
:100AF000F1F48091D305813009F080E00E94BB11B0
:100B00008091E800877F8093E8008AC08091E800A8
:100B1000877F8093E8008091D3058093480580917A
:100B20004601882309F40BC181E080934905CF91E8
:100B300008958238910511F00397C9F79091D10576
:100B400091FFF5CF8091D205863029F67FC08330A2
:100B500009F48FC008F04EC0813009F4CEC0823055
:100B600031F7923A21F780914F05813009F4DBC0CB
:100B700092E88091E800877F8093E8009093F100ED
:100B80001092F1001092F10080914205909143057E
:100B90008093F100A0E0B0E0892F9A2FAB2FBB2704
:100BA0008093F1001092F1001092F1003CC0873068
:100BB00009F48FC0803409F0BACF8091E800877FB4
:100BC0008093E800C1E0C093F1008091E8008E7747
:100BD0008093E8000E9479178D982FEF84E39CE0C2
:100BE000215080409040E1F700C000008D9AC093F2
:100BF00041059DCF843009F45EC0853009F097CF60
:100C0000913A09F094CF9091E800977F9093E80093
:100C100090914F05992309F494C083E88093F100E3
:100C200081E08093F1008091E8008E778093E80066
:100C3000CF910C94791791E090934B058091E80047
:100C4000877F8093E8009093F100EDCF913A09F00F
:100C50006ECF80914F05853009F481C092E8809174
:100C6000E800877F8093E8009093F1001092F100F4
:100C7000DACF923A09F05BCF90914F0591116BC09A
:100C80002091440530E04091D3055091D40542179E
:100C9000530709F47AC091E881E080934E05809172
:100CA000E800877F8093E8009093F10080914405ED
:100CB0008093F100B8CF923A09F039CF80914F0577
:100CC000833009F055CF80914E05882381F192E061
:100CD00050CF913A09F02BCF8091E800877F809325
:100CE000E80068E170E083E091E00E9415168091D1
:100CF000E8008B778093E8001ACF923A09F017CF7B
:100D000090914F05911129C02091440530E0409108
:100D1000D3055091D4054217530799F191E881E02A
:100D200080934D058BCF80914D058111D0CF1092CE
:100D30004F0591E01ECF91E090934A057FCFCF9170
:100D40007ACE91E090934E0590934D0590934C058B
:100D500080934F0565CF93E89FCF93E8E0CF8091D4
:100D60004E0581110CC080914D05811108C0809104
:100D70004C05811104C010924F0591E070CF92E0B4
:100D80006ECF80934F0591E0CACF80934F0591E0DD
:100D900083CFCF93683060F4C62FBC014C2F50E056
:100DA00089E595E00E94721AC093440110924501B2
:100DB000CF910895CF93C82F10924401109245010E
:100DC0000E946815CC2359F0C25003C0C150811154
:100DD00006C08091F1000E946F15CF3FB9F7CF9107
:100DE0000895DF92EF92FF920F931F93CF93DF93BB
:100DF000C62FD22E11E010934601D091F10044236A
:100E000071F180914105811169C081E00E94BB119F
:100E10008D98B701809102010E940B1390914905B2
:100E2000992309F4EBC0882309F4DFC0C111CEC0B7
:100E3000D110CCC08D9A1092410591E0909346015B
:100E400090914905992319F0882309F4ADC0DF91E9
:100E5000CF911F910F91FF90EF90DF90089581E067
:100E60000E94BB118D98809149058111BEC0CC2391
:100E700009F48EC0811128C0C15011F40111249AC7
:100E800086996EC0869826983E983F98DAB98091E8
:100E900051051092510581113BC0369BF8CF269A1F
:100EA0008091510510925105811151C0379BF8CFA7
:100EB00026981AB82498CC2309F4A8C0D091F10040
:100EC000809149058823C1F2C7010E944312B3DD16
:100ED000B701809102010E940B13CECFD13209F0ED
:100EE00094CF862F67DF109241051D251093460190
:100EF00080914905882309F4AACFDD2009F454C064
:100F0000DF91CF911F910F91FF90EF90DF9093CDE4
:100F1000F7010995369932C0882309F4B8CF1AB879
:100F20004ED62498C11150C081E0DD2009F482CF53
:100F300081114CC0C7010E9443128D9A1092410545
:100F400010924601809149058111DACF80CFF701D7
:100F50000995379917C0882309F4A2CF2698DFCFC7
:100F60008FE693E00197F1F700C000008698E7E173
:100F7000F1E03197F1F700C0000085CF882309F434
:100F80008ECFCDCF26981AB8882309F493CFC8CF37
:100F9000D110D0CF8D9A10924105109346018091C7
:100FA0004905882309F453CFC7010E94431243DD4A
:100FB000B70180910201DF91CF911F910F91FF90B6
:100FC000EF90DF900C940B138091F1008D9A1092AA
:100FD000410581E0D826D0924601DF91CF911F9143
:100FE0000F91FF90EF90DF900895C7010E94431288
:100FF00022DDB701809102010E940B13CC2309F47A
:1010000094CF8111E3CF8091490534CF80E08DCF1B
:101010007F928F929F92AF92BF92CF92DF92EF9288
:10102000FF920F931F93CF93DF93D82F992E6B01CD
:10103000C42F590181E00E94BB118D98C1119DC040
:10104000C114D10409F4A7C0ED2EF92CC0E0D0E002
:10105000869976C086983F9A3E9880915105109265
:101060005105811140C01E99F8CF3E9A89B08094F5
:1010700083B199249394F82FF0717F2E84FD912CE5
:101080003F98809151051092510581113EC01E9BE1
:10109000F8CF2091500580E0222331F0711030C04C
:1010A0009924939481113CC03E9A2196F701819234
:1010B0007F0191103FC0CC15DD0510F4882341F26B
:1010C000982EF50190828D9ACE01DF91CF911F91DC
:1010D0000F91FF90EF90DF90CF90BF90AF909F90D7
:1010E0008F907F900895F80109951E9B3CC088233E
:1010F00009F4B3CF20915005222391F181E0812C96
:1011000091E0821290E0992ECDCFF80109951E99B9
:101110002EC0882309F4B5CF209150052111BECFF0
:101120004ED581E03E9A2196F70181927F01992068
:1011300009F4C1CF8111C5CFC8010E944312C1CFAC
:101140008FE693E00197F1F700C0000086983F9A80
:101150003E98E7E1F1E03197F1F700C000007DCF64
:10116000812C912CDDCF882309F47FCFC3CF209130
:101170005005222309F496CF91CFB8018091020146
:101180000E94B712C114D10419F0882309F45CCF6E
:10119000C0E0D0E095CFC0E0D0E080E091CF1092E9
:1011A000440110924A0510924C0510924B05109282
:1011B000490581E0809301018093000110923D0573
:1011C00010923E0510923F05109240050C94C111FB
:1011D000CF93DF93CDB7DEB7CF58D1090FB6F894D0
:1011E000DEBF0FBECDBF14BE0FB6F894A895809198
:1011F0006000886180936000109260000FBE2A9AA0
:101200002298E5DBA4D4F999FECF89E690E00E940C
:101210007B1A0E94D613789416C02FEF34E34CE06B
:10122000215030404040E1F700C000008D9A8FEF20
:1012300094E3ECE081509040E040E1F700C0000012
:101240008D981A9B38C10E94A211882331F388E639
:1012500090E00E947B1A182F8EEF810F833008F4E4
:1012600049C101E00E94E0138F3F09F426C1809339
:101270000201F999FECF113009F4D6C1F999FECFD8
:1012800080E090E00E947B1A182FB9D88111ADC37D
:1012900080910201181709F493C38AE690E00E9436
:1012A0007B1A813009F481C38D9A8091E0008E7F92
:1012B0008093E00063E0762E72E0672EE0E58E2EEC
:1012C000E3EC9E2EA12CB12C09C01A9BF4C00E9405
:1012D000A211882309F48CC10E944F1A8091D00575
:1012E000843099F780913D0590913E05A0913F058E
:1012F000B0914005892B8A2B8B2B09F010C17F9967
:101300002FC08092610590926205A0926305B09211
:10131000640569E971E0809102011ED78064982F0D
:101320009F7B20914801922B9093480191E89983EB
:101330008A83E1E0E093E90004C080914E058111C9
:101340000AC040E050E062E070E0CE0101960E94E9
:10135000CA15853091F38091E8008E778093E8007C
:1013600080914C05811171C180914B0581117FC124
:1013700080914A05811189C17092E9008091E8004D
:1013800082FF19C0CE018F579F4F02D8882399F052
:10139000CF57DF4F8881C158D040823009F4F4C163
:1013A000803809F4DCC1813009F47FC18091EB0001
:1013B00080628093EB0080914705882349F1109269
:1013C0004705809146058068C357DF4F8883CD5815
:1013D000D04080914505C257DF4F8883CE58D0401A
:1013E00021E02093E90004C080914E0581110BC0DB
:1013F00040E050E062E070E0CE0183579F4F0E94D2
:10140000CA15853089F38091E8008E778093E800D3
:1014100080914D05811104C080914E058823A9F16A
:101420007092E9008091E8008B778093E8008091CA
:10143000E8008B778093E8006092E9008091EE00ED
:10144000837069F08091E80084608093E800809167
:10145000E80082FDFCCF8091EE00837099F78091C7
:101460004C05882389F081E086D7809261059092AF
:101470006205A0926305B092640569E971E080910C
:101480000201E5D510924C058ADE10924E051092AD
:101490004D0581E040913D0550913E0560913F052D
:1014A00070914005452B462B472B09F480E0809333
:1014B00047011A990CCF0E94DC01009302019FEFB3
:1014C000E1EEF4E09150E040F040E1F700C00000B0
:1014D0008D9A2FEF31EE44E0215030404040E1F74B
:1014E00000C000008D982ED7882309F46CC01A998B
:1014F000B9CEE1CF133009F464C0143009F45FC0F1
:1015000095E080E0FFEF23ED30E3F15020403040E4
:10151000E1F700C000008F5F9813F4CFA2CE709265
:10152000E9008091E80082FF46CF109243051092B7
:10153000420540913D0550913E0560913F057091F7
:1015400040054034510561057105B8F5942F491BDC
:1015500051096109710940933D0550933E0560931F
:101560003F057093400521E0411551056105710566
:1015700009F020E0C157DF4F2883CF58D040209397
:10158000010180916505882309F44CC081E0452B59
:10159000462B472B09F046C0082F017088EBE82E38
:1015A00081E0F82E40E0692FCE0101961ADC80918F
:1015B000E8008B778093E800FECE90E4C8CF9EE1F0
:1015C000A0CF9FE09ECF8D984FEF89E698E14150E4
:1015D00080409040E1F700C000009CE088E10FB639
:1015E000F894A895809360000FBE90936000FFCFA1
:1015F0008D988091E00081608093E0003FEF49E6A4
:1016000088E1315040408040E1F700C000009CE09C
:1016100088E10FB6F894A895809360000FBE909370
:101620006000FFCF80E0B8CF81E00E94290180E018
:10163000A2D62FEF31EE44E0215030404040E1F798
:1016400000C0000081E097D628CE81E094D6809239
:10165000610590926205A0926305B092640569E904
:1016600071E080910201F3D410924C057DCE8092FE
:10167000610590926205A0926305B092640589E9C4
:1016800091E09ED210924B0573CE809261059092AC
:101690006205A0926305B092640569E971E08091EA
:1016A000020148D410924A0567CECB57DF4F4881DC
:1016B00059816A817B81C558D0408A019B0145339D
:1016C00051056105710520F004E310E020E030E0F1
:1016D000902F401B510B620B730B40933D055093B1
:1016E0003E0560933F0570934005C757DF4F8881E3
:1016F000C958D04021E0811101C020E02093650548
:1017000021E0411551056105710509F020E0C1573F
:10171000DF4F2883CF58D040882329F081E0452B24
:10172000462B472B09F080E0082F017058EBE52E7F
:1017300051E0F52E40910101692FCE01019651DB58
:101740007092E9008091E8008B778093E800C157A0
:10175000DF4F8881CF58D040809301012CCE81E0AB
:101760000AD68092610590926205A0926305B092BC
:10177000640569E971E08091020165D38091E80018
:101780008B778093E80017CE8091E8008B77809369
:10179000E800CB57DF4F488159816A817B81C5586A
:1017A000D040443FF3E05F076105710508F0FAC0DF
:1017B000CA01F0904401FF2009F4DEC0E090450129
:1017C0008E2D90E00F2D10E0081B190B1801412CF5
:1017D000512C421553056405750520F48A011A0140
:1017E000412C512CCB57DF4F288239824A825B82B1
:1017F000C558D040BC01675A7A4FA80189E491E0EE
:101800000E94721A0E0D0093450181E00F1508F435
:1018100080E0C157DF4F8883CF58D0400F1520F0AC
:101820001092440110924501C157DF4F8881CF5873
:10183000D04080930001C757DF4F8883C958D040FC
:1018400080914E05882341F16092E9008091E80083
:101850008E778093E800CB57DF4F88819981AA81EA
:10186000BB81C558D0400C96A11DB11D8F7399271F
:10187000AA27BB27892B8A2B8B2B39F40E949A1716
:101880008091E8008E778093E80080914E05882350
:1018900009F491CD84DC8FCD80914405CE57DF4F84
:1018A0008883C258D0408095CD57DF4F8883C35876
:1018B000D0406092E9000E949A17811122C04CE04A
:1018C000E42EF12C8E010F571F4F8091E80085FF09
:1018D0000CC0C8010196F80120812093F100F1E0CD
:1018E000EF1AF10871F08C01F0CF8091E8008E774B
:1018F0008093E8000E949A17811103C0C8018C01EF
:10190000E4CF80914E0581119FCFCB57DF4F0881E7
:101910001981C558D0400E949A17811195CF24E3B0
:10192000C22ED12C39E4E32E31E0F32E011511053E
:1019300009F48ACF8091E80085FF14C0C801C01661
:10194000D10608F4C601081B190BF701E80EF91EB1
:1019500081918093F100EE16FF06D1F790E4C92E35
:10196000D12CE4CF8091E8008E778093E8000E942C
:101970009A178823D9F268CF00EC11E09E01215715
:101980003F4F40910001BC0189E491E041DBA0E0C0
:10199000B0E0CB57DF4F88839983AA83BB83C558B8
:1019A000D04042CF84EF93E004CF8091660590E071
:1019B00002978A9708F478CC8AE28093660574CC03
:1019C00006E615E081E090E09C012656354079015D
:1019D000C701800F911F0E947B1AF80181938F012C
:1019E000F5E00C3C1F07A1F758CC6091020180E0A4
:1019F00090E00E94CE0406E615E0F80161918F01A7
:101A0000CF01865695400E94CE04F5E00C3C1F079E
:101A1000A1F743CCF9011082692F77276230710555
:101A200049F16330710599F06130710541F080E052
:101A300090E020E030E0FA0131832083089582E1D4
:101A400090E021E031E0FA01318320830895992765
:101A500081309105E9F0B0F082309105F9F00397FB
:101A600031F78091660590E062E0F901608326E637
:101A700035E0E1CF87E290E02AED30E0FA013183F2
:101A800020830895E6EDF0E0849190E09F01D3CFAC
:101A9000EEEBF0E0849190E09F01CDCFECEAF0E036
:101AA000849190E09F01C7CF85E38A95F1F700000C
:101AB0008091520590915305009739F001979093CA
:101AC00053058093520580E0089581E008951F92A8
:101AD0000F920FB60F9211248F939F938091570509
:101AE0008F5F8093570591E0909351058630B0F059
:101AF000809158058F5F809358051092570580910B
:101B0000540581110BC0869910C07E9917C0809131
:101B100055058230C9F08F5F809355059F918F9155
:101B20000F900FBE0F901F901895109255059F9122
:101B30008F910F900FBE0F901F9018951092550522
:101B400082E080935605EACF90935605E7CF1AB806
:101B50001BB885B18F7885B984B18F78806284B9DC
:101B600088B18F7388B987B18F7387B972986A9873
:101B700081B38F7381BB80B38F7380BB1092540588
:101B8000109255053E986A9A8FED91E00197F1F712
:101B900000C000006A988FE39CE90197F1F700C04C
:101BA00000001092540585E085BDEEE6F0E08081EE
:101BB0008160808310925705109258050895C7CF11
:101BC000CF93DF93EC01869B2EC0869A26983E9891
:101BD0003F9881E18AB902C081111EC080915105F0
:101BE00010925105FE010995369BF6CF811114C064
:101BF000269A02C081110FC08091510510925105A3
:101C0000FE010995379BF6CF26981AB8811105C0B9
:101C1000DF91CF91089526981AB899DF98DF81E077
:101C2000DF91CF9108958FE693E00197F1F700C01F
:101C30000000869AE7E1F1E03197F1F700C000007B
:101C4000C5CF1F93CF93DF93182FEB018F71806265
:101C5000869B5CC0869A26983E983F988AB902C0B7
:101C6000811121C08091510510925105FE01099505
:101C7000369BF6CF811117C0269A02C0811112C07F
:101C80008091510510925105FE010995379BF6CFC1
:101C900026981AB8811108C0107E51F4DF91CF91B7
:101CA0001F91089526981AB852DF81E0107EB1F393
:101CB000869B3AC0869A26983E983F9880E68AB9D5
:101CC00002C081111CC08091510510925105FE0186
:101CD0000995369BF6CF811112C0269A02C0811158
:101CE0000DC08091510510925105FE010995379B59
:101CF000F6CF26981AB8882389F202C026981AB817
:101D000026DF81E0DF91CF911F910895EFE6F3E0A8
:101D10003197F1F700C00000869AE7E1F1E03197D2
:101D2000F1F700C0000097CF8FE693E00197F1F73D
:101D300000C00000869AE7E1F1E03197F1F700C0BA
:101D40000000B9CF1F93CF93DF93182FEB018F7152
:101D50008064869B5CC0869A26983E983F988AB994
:101D600002C0811121C08091510510925105FE01E0
:101D70000995369BF6CF811117C0269A02C08111B2
:101D800012C08091510510925105FE010995379BB3
:101D9000F6CF26981AB8811108C0107E51F4DF9151
:101DA000CF911F91089526981AB8D1DE81E0107E58
:101DB000B1F3869B3AC0869A26983E983F9880E673
:101DC0008AB902C081111CC0809151051092510541
:101DD000FE010995369BF6CF811112C0269A02C0EA
:101DE00081110DC08091510510925105FE01099598
:101DF000379BF6CF26981AB8882389F202C0269816
:101E00001AB8A5DE81E0DF91CF911F910895EFE62A
:101E1000F3E03197F1F700C00000869AE7E1F1E0C6
:101E20003197F1F700C0000097CF8FE693E001975C
:101E3000F1F700C00000869AE7E1F1E03197F1F791
:101E400000C00000B9CFCF93DF93EB01FADE882307
:101E500029F07DDE81E0DF91CF910895869B5CC003
:101E6000869A26983E983F9888E08AB902C08111E8
:101E700042C08091510510925105FE010995369B93
:101E8000F6CF811138C0269A02C0811133C08091EB
:101E9000510510925105FE010995379BF6CF269802
:101EA0001AB8811129C0869B29C0869A26983E9827
:101EB0003F988FE38AB902C081111DC080915105FE
:101EC00010925105FE010995369BF6CF811113C082
:101ED000269A02C081110EC08091510510925105C1
:101EE000FE010995379BF6CF26981AB8882309F486
:101EF000B2CF02C026981AB82ADEABCF8FE693E0A5
:101F00000197F1F700C00000869AE7E1F1E0319710
:101F1000F1F700C00000CACF8FE693E00197F1F718
:101F200000C00000869AE7E1F1E03197F1F700C0C8
:101F3000000097CFCF93DF93EB0183DE882371F00E
:101F40009FEFE1EEF4E09150E040F040E1F700C097
:101F50000000FDDD81E0DF91CF910895869B69C08F
:101F6000869A26983E983F9881E08AB902C08111EE
:101F70004BC08091510510925105FE010995369B89
:101F8000F6CF811141C0269A02C081113CC08091D8
:101F9000510510925105FE010995379BF6CF269801
:101FA0001AB8811132C0FFEF21EE84E0F1502040D9
:101FB0008040E1F700C00000869B2DC0869A2698DD
:101FC0003E983F988FE38AB902C0811121C0809169
:101FD000510510925105FE010995369BF6CF8111EE
:101FE00017C0269A02C0811112C08091510510922B
:101FF0005105FE010995379BF6CF26981AB888231C
:1020000009F4A9CF06C026981AB8A1DD99CF269861
:102010001AB89DDD9ECF8FE693E00197F1F700C0DF
:102020000000869AE7E1F1E03197F1F700C0000087
:10203000C6CF8FE693E00197F1F700C00000869AC3
:10204000E7E1F1E03197F1F700C000008ACFCF93CC
:10205000DF93EB0191E090935405F3DD882381F049
:1020600076DD81E010925405FFEF22E537E0F15074
:1020700020403040E1F700C00000DF91CF9108958B
:10208000869B5CC0869A26983E983F9884E08AB9E1
:1020900002C0811142C08091510510925105FE018C
:1020A0000995369BF6CF811138C0269A02C081115E
:1020B00033C08091510510925105FE010995379B5F
:1020C000F6CF26981AB8811129C0869B29C0869A16
:1020D00026983E983F988FE38AB902C081111DC0AF
:1020E0008091510510925105FE010995369BF6CF5E
:1020F000811113C0269A02C081110EC08091510532
:1021000010925105FE010995379BF6CF26981AB813
:10211000882309F4A7CF02C026981AB818DDA0CFEB
:102120008FE693E00197F1F700C00000869AE7E19F
:10213000F1E03197F1F700C00000CACF8FE693E0DD
:102140000197F1F700C00000869AE7E1F1E03197CE
:10215000F1F700C0000097CF1F93CF93DF93182FA4
:10216000EB0181E08093540580E06BDD882349F02A
:1021700010E0EDDC10925405812FDF91CF911F917B
:102180000895869BB3C0869A26983E983F9888E12A
:102190008AB902C0811191C08091510510925105F8
:1021A000FE010995369BF6CF811187C0269A02C0A1
:1021B000811182C08091510510925105FE0109954F
:1021C000379BF6CF26981AB8811178C0BE01812FAF
:1021D000B9DD8111CDCF869997C086983F9A3E98F8
:1021E00002C0811171C08091510510925105FE010C
:1021F00009951E99F6CF811167C03E9A19B11095C5
:1022000083B13F9802C0811160C080915105109246
:102210005105FE0109951E9BF6CF811156C03E9ACD
:10222000869B56C0869A26983E983F9889E18AB93F
:1022300002C0811146C08091510510925105FE01E6
:102240000995369BF6CF81113CC0269A02C08111B8
:1022500037C08091510510925105FE010995379BB9
:10226000F6CF26981AB881112DC0869B5DC0869A3C
:1022700026983E983F988FE58AB902C0811121C007
:102280008091510510925105FE010995369BF6CFBC
:10229000811117C0269A02C0811112C08091510588
:1022A00010925105FE010995379BF6CF26981AB872
:1022B000882309F45FCF06C026981AB848DC58CFA7
:1022C00026981AB844DC55CF10E041DC3E9A51CF35
:1022D0008FE693E00197F1F700C00000869AE7E1EE
:1022E000F1E03197F1F700C000009DCF8FE693E059
:1022F0000197F1F700C00000869AE7E1F1E031971D
:10230000F1F700C0000040CF8FE693E00197F1F7AE
:1023100000C0000086983F9A3E98E7E1F1E03197CF
:10232000F1F700C000005FCF8FE693E00197F1F76F
:1023300000C00000869AE7E1F1E03197F1F700C0B4
:10234000000096CF869907C081E0909156059230A3
:1023500009F080E0089585E38A95F1F700008698FA
:1023600085E38A95F1F7000081E09091560592305F
:1023700089F380E0EFCF811102C025980895259A56
:1023800008953E986A9A8FED91E00197F1F700C0A9
:1023900000006A988FE39CE90197F1F700C0000004
:1023A000109254050895BF92CF92DF92EF92FF9260
:1023B0000F931F93CF93DF937C016B01EA01869902
:1023C00046C086983F9A3E9802C0811127C08091EE
:1023D000510510925105FE0109951E99F6CF811104
:1023E0001DC03E9A09B1009583B18071B82E3F9807
:1023F00002C0811109C08091510510925105FE0162
:102400000995182F1E9BF5CF80915005882379F1EF
:1024100091E0B11034C0F701908309C0809150055C
:10242000811129C011E000E080E0F70180831111E3
:102430008EDBF60110833E9A802FDF91CF911F91A2
:102440000F91FF90EF90DF90CF90BF9008958FE6AF
:1024500093E00197F1F700C0000086983F9A3E98FC
:10246000E7E1F1E03197F1F700C00000B0CF81E083
:10247000BB20D9F2D9CF90E011E000E0CCCF081713
:1024800051F290E0C8CFCF93DF93EC01869B53C00D
:10249000869A26983E983F988FE38AB902C08111A8
:1024A00041C08091510510925105FE010995369B5E
:1024B000F6CF811137C0269A02C0811132C08091B7
:1024C000510510925105FE010995379BF6CF2698CC
:1024D0001AB8811128C0869B3CC0869A26983E98DF
:1024E0003F988FE58AB902C081111CC080915105C7
:1024F00010925105FE010995369BF6CF811112C04D
:10250000269A02C081110DC080915105109251058B
:10251000FE010995379BF6CF26981AB8882331F02B
:1025200002C026981AB813DB12DB81E01092540522
:10253000DF91CF9108958FE693E00197F1F700C006
:102540000000869AE7E1F1E03197F1F700C0000062
:10255000A0CF8FE693E00197F1F700C00000869AC4
:10256000E7E1F1E03197F1F700C00000B7CF1F932A
:10257000CF93DF93182FEB0181E080935405869B66
:102580003CC0869A26983E983F988FE38AB902C04D
:1025900081112AC08091510510925105FE010995C3
:1025A000369BF6CF811120C0269A02C081111BC034
:1025B0008091510510925105FE010995379BF6CF88
:1025C00026981AB8811111C0BE0180E03ADB811152
:1025D0000DC0BE01812FB6DB3F9A811108C0DF918B
:1025E000CF911F91089526981AB8B1DA3F9AAFDAC1
:1025F00081E0DF91CF911F9108958FE693E00197DD
:10260000F1F700C00000869AE7E1F1E03197F1F7B9
:1026100000C00000B7CF1F93CF93DF93182FEB01BB
:1026200081E080935405869B5FC0869A26983E98E9
:102630003F988FE58AB902C081114EC08091510543
:1026400010925105FE010995369BF6CF811144C0C9
:10265000269A02C081113FC0809151051092510508
:10266000FE010995379BF6CF26981AB8811135C01F
:10267000BE0180E067DB811131C0869B43C0869A32
:1026800026983E983F988FE38AB902C0811124C0F2
:102690008091510510925105FE010995369BF6CFA8
:1026A00081111AC0269A02C0811115C0809151056E
:1026B00010925105FE010995379BF6CF26981AB85E
:1026C00081110BC0BE01812FBCDA811107C0DF91DF
:1026D000CF911F91089526981AB839DA38DA81E037
:1026E000DF91CF911F9108958FE693E00197F1F765
:1026F00000C00000869AE7E1F1E03197F1F700C0F1
:10270000000094CF8FE693E00197F1F700C000003E
:10271000869AE7E1F1E03197F1F700C00000B0CF11
:10272000CF93DF93EA016111249A86992EC086988F
:1027300026983E983F988AB902C081111FC08091A7
:10274000510510925105FE010995369BF6CF811176
:1027500015C0269A02C0811110C0809151051092B7
:102760005105FE010995379BF6CF26981AB88111BD
:1027700006C02498DF91CF91089526981AB8E7D91A
:1027800081E02498DF91CF910895EFE6F3E031974F
:10279000F1F700C000008698E7E1F1E03197F1F72A
:1027A00000C00000C5CF8091500508958A3011F017
:1027B0008D3019F4809350050895109250050895B6
:1027C0000F931F93CF93DF9384EF91E09093530582
:1027D00080935205869BCCC0869A26983E983F9857
:1027E0008FE38AB902C081111AC0809151051092FD
:1027F00051055AD9369BF7CF811111C0269A02C0D4
:1028000081110CC080915105109251054DD9379B13
:10281000F7CF26981AB8882321F002C026981AB854
:1028200096D9CFEF04EF11E0CF5FDC2FDF71DF31FE
:1028300009F484C0109353050093520564E57DE0CC
:102840008C2FFFD986988FE39FE10197F1F700C0A5
:102850000000379973C07E9B71C01C2F84EF91E0FC
:102860009093530580935205869B90C0869A269834
:102870003E983F988FE38AB902C0811165C080916C
:1028800051051092510510D9369BF7CF81115CC0CC
:10289000269A02C0811157C08091510510925105AE
:1028A00003D9379BF7CF26981AB881114EC0C03292
:1028B00008F44FC084EF91E0909353058093520544
:1028C00064E57DE08D2FBDD986988FE39FE1019768
:1028D000F1F700C00000379902C07E9965C084EF0F
:1028E00091E09093530580935205869B66C0869A2B
:1028F00026983E983F988FE38AB902C0811130C074
:102900008091510510925105CFD8369BF7CF811198
:1029100027C0269A02C0811122C0809151051092D1
:102920005105C2D8379BF7CF26981AB8811119C024
:10293000812FDF91CF911F910F910895CF3309F02F
:1029400073CF1FEF8BCF26981AB801D9C03208F089
:10295000B1CF812FDF91CF911F910F9108952698CC
:102960001AB8F5D8812FDF91CF911F910F9108955B
:102970008FE693E00197F1F700C00000869A87E1A7
:1029800091E00197F1F700C0000027CF8FE693E0B8
:102990000197F1F700C00000869A87E191E0019766
:1029A000F1F700C0000063CF1D2F84EF91E09093FA
:1029B00053058093520586999ACF8FE693E001974D
:1029C000F1F700C00000869A87E191E00197F1F7E6
:1029D00000C000008DCF089562E088E690E00C947E
:1029E000CE0463E088E690E00C94CE0464E088E6D0
:1029F00090E00C94CE0460E088E690E00C94CE0465
:102A0000FACF61E088E690E00C94CE04FACF61E062
:102A10008AE690E00C94CE0460E08AE690E00C94A4
:102A2000CE0464E08DE191E00C94C90666E082E298
:102A300091E00C94C9068DE0B9CE8AE0B7CE80E073
:102A4000B5CE60E089E690E00E94CE0480E0AECE94
:102A50006AE089E690E00E94CE048AE0A7CE6DE0AD
:102A600089E690E00E94CE048DE0A0CE9CDE682F27
:102A700089E690E00C94CE040C94DC0188E690E0AA
:102A80003AD5813061F0823029F464E089E291E046
:102A90000C94C90662E082E391E00C94C90663E0FD
:102AA0008EE291E00C94C9067EDE8A3061F08D30B2
:102AB00029F462E085E391E00C94C90663E08BE3BE
:102AC00091E00C94C90662E088E391E00C94C90699
:102AD0008FE391E090931C0180931B0108951F9355
:102AE000CF93DF93182F8FEB810F8A3108F4105E9C
:102AF000E0911B01F0911C019F012F5F3F4FD4918A
:102B0000DD2309F445C0C0E080E007C0CF5FDC17DB
:102B100049F120911B0130911C01F9019491A90107
:102B20004E5F5F4F50931C0140931B013196E4911F
:102B3000292F2F771213EACF8E2F97FF1DC090E019
:102B4000880F991F8D5E9E4F092E000CAA0BBB0BA0
:102B5000ABBFFC0187919691FC01099581E0CF5FA5
:102B6000DC13D7CF2FE331E030931C0120931B01FE
:102B7000DF91CF911F91089590E0815C9E4F9093DB
:102B80001C0180931B0180E0DF91CF911F9108957C
:102B900080E0E8CFCF92DF92EF92FF920F931F93E6
:102BA000CF93DF938C01EB016A01C4D181111EC068
:102BB000C114D10439F0F60180819181C81BD90B71
:102BC000080F191F209789F0E12CF12C9091E80053
:102BD00095FF15C0F80181918F018093F100219735
:102BE000FFEFEF1AFF0A209789F780E0DF91CF917E
:102BF0001F910F91FF90EF90DF90CF9008958091FB
:102C0000E8008E778093E8004AD4C114D10421F4FF
:102C100091D18823D9F2EACFF60180819181E80E23
:102C2000F91EF182E08285E0E1CF2091D705309155
:102C3000D8052617370750F06115710599F52091D1
:102C4000E8002E772093E80020E030E0FC0140E02F
:102C50000EC0853049F18091E80083FD27C0809146
:102C6000E80082FD19C08091E80080FD21C0211597
:102C7000310511F4442381F08091D0058111E9CF11
:102C800082E008958091D0058823D1F3853061F0EA
:102C90008091E80083FD0AC08091E80082FFF2CFB6
:102CA00080E008959B01D2CF83E0089581E00895EC
:102CB0004091F3008091F20090E0942B21153105B2
:102CC00019F08830910568F041E0089709F040E07C
:102CD0008091E8008E778093E800C9CF8830910515
:102CE00099F341914093F10021503109019621154A
:102CF0003105A1F7E9CF2091D7053091D8052617E6
:102D0000370750F06115710599F52091E8002E778D
:102D10002093E80020E030E0FC0140E00EC0853068
:102D200049F18091E80083FD27C08091E80082FD91
:102D300019C08091E80080FD21C02115310511F4F2
:102D4000442381F08091D0058111E9CF82E008957C
:102D50008091D0058823D1F3853061F08091E8001F
:102D600083FD0AC08091E80082FFF2CF80E00895E1
:102D70009B01D2CF83E0089581E008954091F30054
:102D80008091F20090E0942B2115310519F08830E4
:102D9000910568F041E0089709F040E08091E80073
:102DA0008E778093E800C9CF8830910599F34491DC
:102DB0004093F100319621503109019621153105DA
:102DC00099F7E8CFEF92FF920F931F93CF93DF9382
:102DD000C091D705D091D805C617D70750F0611517
:102DE0007105C1F52091E8002E772093E800C0E03E
:102DF000D0E08C0190E00EC0853071F18091E80048
:102E000083FD32C08091E80082FD1EC08091E80001
:102E100080FD32C0209711F49923B1F08091D00544
:102E20008111EACF82E0DF91CF911F910F91FF9046
:102E3000EF9008958091D0058823A1F3853061F04B
:102E40008091E80083FD10C08091E80082FFF2CFFE
:102E500080E0E9CFEB01CDCF83E0DF91CF911F91EF
:102E60000F91FF90EF90089581E0DF91CF911F9136
:102E70000F91FF90EF9008958091F300E090F200A1
:102E8000F12CF82A209721F088E0E816F10480F070
:102E900091E088E0E816F10409F090E08091E80004
:102EA0008E778093E800B6CF88E0E816F10481F3CE
:102EB000C80121D38093F1000F5F1F4F21978FEF3F
:102EC000E81AF80A209781F7E3CF8F708093E90022
:102ED000EBEEF0E0808181608083EDEEF0E0108227
:102EE0006093EC0040838091EE00881F8827881F44
:102EF00008958091D10587FF05C012C08091D0054B
:102F0000882349F08091E80080FFF8CF8091E800A5
:102F10008E778093E80008958091D0058823D9F3B7
:102F20008091E80082FFF8CF8091E8008B77809352
:102F3000E80008954091E4005091E50025E6909165
:102F4000EC00892F817090FF1EC08091E80080FD09
:102F500027C08091D0058823D9F08530D9F08091A1
:102F6000EB0085FD19C08091E4009091E5004817C1
:102F7000590729F3215091F0AC019091EC00892F71
:102F8000817090FDE2CF9091E80092FFE2CF08952A
:102F900082E0089583E0089581E0089584E0089533
:102FA00080E0089567D06ED0E0EEF0E0808181602F
:102FB0008083E8EDF0E080818F77808319BCA7EDF6
:102FC000B0E08C918E7F8C9380818F7E8083109275
:102FD000CF0508950F931F93CF93DF934BD052D01B
:102FE000C8EDD0E088818F77888388818068888366
:102FF00088818F7D888319BC1092D0051092CC05F2
:103000001092CE051092CD0500EE10E0F8018081FF
:103010008B7F808388818160888342E060E080E0EC
:1030200054DFE1EEF0E080818E7F8083E2EEF0E01D
:10303000808181608083808188608083F8018081C5
:103040008E7F8083888180618883DF91CF911F91FB
:103050000F910895E8EDF0E080818F7E8083E7EDA9
:10306000F0E080818160808384E082BF81E0809392
:10307000CF05B0CFE8EDF0E080818E7F80831092A5
:10308000E20008951092DA001092E10008951F9274
:103090000F920FB60F9211242F933F934F935F938C
:1030A0006F937F938F939F93AF93BF93EF93FF9310
:1030B0008091DA0080FF04C08091D80080FD50C06C
:1030C0008091E10080FF04C08091E20080FD7DC01E
:1030D0008091E10084FF2BC08091E20084FF27C033
:1030E00080E189BD82E189BD09B400FEFDCF8091F8
:1030F000D8008F7D8093D8008091E1008F7E8093EF
:10310000E1008091E2008F7E8093E2008091E200F6
:1031100081608093E2008091CC0581116BC0809129
:10312000E30087FD71C081E08093D005B7D1809125
:10313000E10083FF04C08091E20083FD27C0FF917E
:10314000EF91BF91AF919F918F917F916F915F911F
:103150004F913F912F910F900FBE0F901F90189598
:103160008091DA008E7F8093DA008091D90080FF11
:1031700045C080E189BD82E189BD09B400FEFDCF73
:1031800081E08093D0050E940A059ACF8091E100EA
:10319000877F8093E10082E08093D0051092CC0578
:1031A0008091E1008E7F8093E1008091E2008E7F2C
:1031B0008093E2008091E20080618093E20042E02F
:1031C00060E080E082DE6AD1BACF8091E2008E7F3B
:1031D0008093E2008091E20080618093E200809120
:1031E000D80080628093D80019BC85E08093D00518
:1031F00055D16ECF84E08093D00598CF19BC109242
:10320000D0050E940B055CCF83E08ECF1F93CF9338
:10321000DF9300D01F92CDB7DEB7E1EDF5E029EDE9
:1032200035E08091F10081932E173F07D1F70E947E
:103230005B058091E80083FF10C09091D1058091DB
:10324000D205853089F108F47CC08830D9F0893006
:1032500009F4B8C0863009F447C08091E80083FFC4
:103260000AC08091E800877F8093E8008091EB009E
:1032700080628093EB000F900F900F90DF91CF91C1
:103280001F910895903849F78091E800877F8093D7
:10329000E8008091CC058093F1008091E8008E7762
:1032A0008093E80026DED9CF9111D7CF1091D305B6
:1032B0001F778091E3008078812B8093E3008091D9
:1032C000E800877F8093E80014DE8091E80080FFAB
:1032D000FCCF8091E30080688093E3001111CCC0A3
:1032E00082E08093D005B9CF9058923008F0B5CFE6
:1032F0006091D5057091D6059E012D5F3F4FAE01BF
:103300004F5F5F4F8091D3059091D4050E940A0DC5
:10331000BC01892B09F4A1CF8091E800877F8093BD
:10332000E8008B81882309F4ABC0813009F4B2C076
:1033300089819A817ADC8091E8008B778093E8001C
:103340008CCF813029F008F45FC0833009F085CF3D
:10335000992309F47DC0923009F07FCF9091D30575
:10336000911127C09091D5059F702FEF290F26301E
:1033700008F073CF9093E9002091EB0020FF19C073
:10338000833009F481C08091EB0080618093EB0071
:1033900021E030E0A90102C0440F551F9A95E2F7E1
:1033A0004093EA001092EA008091EB0088608093DD
:1033B000EB001092E9008091E800877F8093E8009D
:1033C00098DD4BCF911149CF8091D3059091D405D1
:1033D000992702970CF041CF8091E800877F809376
:1033E000E8008091D3058093CC0583DD8091CC05E6
:1033F000811144C08091E30087FD40C081E080934B
:10340000D0050E940C0529CF903871F1923809F04F
:1034100024CF8091D5058F70873008F01ECF809320
:10342000E9008091EB0085FB882780F91092E90084
:103430009091E800977F9093E8008093F1001092BC
:10344000F1008091E8008E778093E80052DD05CF8F
:103450009091D305913009F000CF91E0833009F0CD
:1034600090E09093CE05A5CF8091CD059091CE05AB
:103470009923F1F28260DCCF83E033CF84E0BFCFC9
:1034800089819A8138DC57CF8091EB0080628093EC
:10349000EB008FCF89819A8195DC4DCF0895CF9332
:1034A0008091D005882391F0C091E900CF70809180
:1034B000EC0080FD0DC080E0C82B1092E9008091E7
:1034C000E80083FD0DC0CF70C093E900CF9108954F
:1034D00080E8C82B1092E9008091E80083FFF3CFC9
:1034E00095DEF1CFFB01DC0102C001900D9241504D
:1034F0005040D8F70895F999FECF92BD81BDF89A52
:10350000992780B50895262FF999FECF1FBA92BD4D
:1035100081BD20BD0FB6F894FA9AF99A0FBE0196B4
:063520000895F894FFCFAE
:10352600010101010000010400000000000000008C
:1035360001070700000000000000003F0156312E81
:1035460036006E6F726D616C00736C6F77006F661C
:1035560066006F6E006372006C6600656F6900003E
:00000001FF
