:1000000089C00000A4C00000A2C00000A0C0000081
:100010009EC000009CC000009AC0000098C0000074
:1000200096C0000094C000000C94930F0C946010D4
:100030008EC000008CC000008AC0000088C0000094
:1000400086C0000084C0000082C0000080C00000A4
:100050007EC000007CC000007AC000000C94230A1F
:1000600076C0000074C0000072C0000070C00000C4
:100070006EC000006CC000006AC0000068C00000D4
:1000800066C0000064C0000062C0000060C00000E4
:100090005EC000005CC000005AC0000058C00000F4
:1000A00056C0000054C0000052C0000010034700BA
:1000B00070006900620055007300620000001603C2
:1000C000580079007000680072006F004C006100F9
:1000D0006200730000000403090409022700010103
:1000E00000C0320904000003FE03010007050302FB
:1000F0004000050705820240000507058103020054
:10010000051201100100000008EB03652001000149
:100110000203010011241FBECFEFDAE0DEBFCDBF26
:1001200011E0A0E0B1E0E4E4F4E202C005900D9239
:10013000AC31B107D9F721E0ACE1B1E001C01D92CB
:10014000A13FB207E1F70E9401090C94201258CF99
:100150004FE550E0AFB7F89493E090937F01882388
:10016000B1F187E490E0909381018093800180E574
:1001700090E0909383018093820189E490E09093D2
:1001800085018093840182E490E0909387018093BD
:1001900086015093890140938801809102016AE0B1
:1001A0000E94F511282F30E0205D3F4F30938B01E6
:1001B00020938A01892F90E0C09690938D018093BF
:1001C0008C0150938F0140938E0188E001C080E044
:1001D00090E06EE071E2282F290FE62FF0E0709397
:1001E0005700E49190FF03C0E295EF706F5FEF70EE
:1001F00030E04E2F50E0EA3018F0495C5F4F02C00B
:10020000405D5F4FF901EE0FFF1FE058FE4F518335
:1002100040839F5F9431F9F68B5E880F80937E0157
:10022000AFBF0895982F80ED890F8A3008F080E0E5
:100230002FE9290F263010F489EA890F2FEB290FB7
:10024000263010F489EC890F089585E38A95F1F73B
:1002500000008091790190917A01A0917B01B09189
:100260007C010097A105B10569F00197A109B109C9
:100270008093790190937A01A0937B01B0937C01E4
:1002800080E0089581E008950E94DB1190916E0155
:1002900080916F01892B08950E94DB1190916F016D
:1002A00080916E01892B08950E941E0FF8942FEF04
:1002B00087EA91E6215080409040E1F700C00000BD
:1002C0009CE088E10FB6F894A895809360000FBE7B
:1002D00090936000EFEFF9E628E1E150F040204014
:1002E000E1F700C00000E0E0F0E70995FFCF0E94D1
:1002F000640C91E08F3F11F490E081E08093020163
:10030000892F0895FF920F931F93CF93DF9300D00F
:10031000CDB7DEB710927E0180EA96E8A1E0B0E0AA
:100320008093790190937A01A0937B01B0937C0133
:1003300065E271E0809102010E94370C80917901A1
:1003400090917A01A0917B01B0917C01892B8A2B3D
:100350008B2B31F045E251E060E08AE20E94540CC0
:100360008091790190917A01A0917B01B0917C01FB
:10037000892B8A2B8B2B31F045E251E060E089E438
:100380000E94540C8091790190917A01A0917B0197
:10039000B0917C01892B8A2B8B2B31F045E251E007
:1003A00060E084E40E94540C8091790190917A017C
:1003B000A0917B01B0917C01892B8A2B8B2B31F092
:1003C00045E251E060E08EE40E94540C8091790196
:1003D00090917A01A0917B01B0917C01892B8A2BAD
:1003E0008B2B31F045E251E060E08FE30E94540C2A
:1003F0008091790190917A01A0917B01B0917C016B
:10040000892B8A2B8B2B31F045E251E061E08AE0A9
:100410000E94540C85E291E00E94080C80917901C1
:1004200090917A01A0917B01B0917C01892B8A2B5C
:100430008B2B09F475C180EA96E8A1E0B0E08093C7
:10044000790190937A01A0937B01B0937C0165E2DE
:1004500071E0809102010E941C0CF12C10E045E239
:1004600051E0BE016F5F7F4FCE0102960E94690B83
:1004700001E0F11003C08C3209F000E0F02E982F5B
:100480009F7E9A3261F09F3251F08C3541F0982F67
:100490009D7F903221F08C3211F0863209F48FE585
:1004A00090EE980F9F3550F4E12FF0E0EE0FFF1F14
:1004B000E058FE4F90E0918380831F5F123350F429
:1004C0008981811107C08A81882349F203C01230D3
:1004D00060F01150E12FF0E0EE0FFF1FE258FE4FE9
:1004E000808191818F35910591F381E0810F880F93
:1004F00080937E0185E291E00E94080C8091790151
:1005000090917A01A0917B01B0917C01892B8A2B7B
:100510008B2B11F0111108C180EA96E8A1E0B0E040
:100520008093790190937A01A0937B01B0937C0131
:1005300065E271E0809102010E94370C809179019F
:1005400090917A01A0917B01B0917C01892B8A2B3B
:100550008B2B31F045E251E060E089E40E94540CBD
:100560008091790190917A01A0917B01B0917C01F9
:10057000892B8A2B8B2B31F045E251E060E084E43B
:100580000E94540C8091790190917A01A0917B0195
:10059000B0917C01892B8A2B8B2B31F045E251E005
:1005A00060E08FE30E94540C8091790190917A0170
:1005B000A0917B01B0917C01892B8A2B8B2B31F090
:1005C00045E251E061E08AE00E94540C85E291E04E
:1005D0000E94080C8091790190917A01A0917B0191
:1005E000B0917C01892B8A2B8B2B09F497C080EA70
:1005F00096E8A1E0B0E08093790190937A01A0930E
:100600007B01B0937C0165E271E0809102010E9460
:100610001C0C10E045E251E0BE016F5F7F4FCE0140
:1006200002960E94690B01E0F11003C08C3209F0C0
:1006300000E0F02E982F9F7E9A3261F09F3251F0A9
:100640008C3541F0982F9D7F903221F08C3211F043
:10065000863209F48FE590EE980F9F3558F4E12F1C
:10066000F0E0EE0FFF1FE058FE4F282F30E03183FF
:1006700020831F5F123370F4998191110BC09A810E
:10068000911108C08D3031F08A3021F603C012304C
:1006900060F01150E12FF0E0EE0FFF1FE258FE4F27
:1006A000808191818F35910591F381E0810F880FD1
:1006B00080937E0185E291E00E94080C011119C02F
:1006C000809180019091810188349105A1F48091FD
:1006D0008201909183018035910569F42091840114
:1006E000309185012053310981E02A30310520F015
:1006F00002C081E001C080E04091790150917A010F
:1007000060917B0170917C01452B462B472B41F07A
:10071000112331F0882321F011E009C0002381F278
:1007200081E016DD10E003C0002351F2F5CF80E038
:10073000C9D62FEF81EE94E0215080409040E1F740
:1007400000C0000081E0BED6812F0F900F90DF9196
:10075000CF911F910F91FF9008951A9BA5CD0895F9
:100760001F93CF93DF93EC01162FF999FECFCE01A3
:100770000E940A12811749F0F999FECF612FCE012C
:10078000DF91CF911F910C941212DF91CF911F91A5
:10079000089584B7877F84BF0FB6F894A895809199
:1007A0006000886180936000109260000FBE90E04E
:1007B00080E80FB6F89480936100909361000FBEBB
:1007C0000E94760FE0EEF0E080818160808380E01F
:1007D000BFDC859A8D9A08950895089542E061ECF2
:1007E00081E00E94970E42E361E882E00E94970E4A
:1007F00042E360E883E00C94970ECF938091ED0183
:100800009091EE01009729F48091E90180FD0BC0E1
:100810008BC18238910519F0039709F085C1809149
:10082000E90181FF81C18091EA01863009F408C1A4
:1008300090F4833009F496C038F4813009F463C031
:10084000823009F483C070C1843009F4B2C08530AD
:1008500009F4DFC069C1803871F118F5873009F4F7
:1008600015C1803409F060C18091E800877F8093D2
:10087000E800C1E0C093F1008091E8008E7780939A
:10088000E8000E94CC0E8D982FEF84E39CE021506D
:1008900080409040E1F700C000008D9AC09326018F
:1008A00043C1813A09F41FC1823A09F40CC1803A6C
:1008B00009F03AC101C1C091EB0181E003D680E5A6
:1008C00093ECA0E0B0E08093790190937A01A0933B
:1008D0007B01B0937C0165E271E08091020157D702
:1008E0009091E800977F9093E80091E09093F10059
:1008F000C093F1008093F100C0936B0180936A0173
:1009000090936C0109C19091E901923A09F00CC1F0
:100910009091700191110EC02091690130E04091D9
:10092000EB015091EC014217530731F480937001B1
:1009300081E003C083E801C081E891E090936E01FB
:100940009091E800977F9093E800E4C08091E901DE
:10095000823A09F0E9C0809170018130D9F5809127
:100960006E0132C09091E901923A09F0DDC0909198
:10097000700191110EC02091690130E04091EB01AE
:100980005091EC014217530731F48093700181E0DC
:1009900003C083E801C081E891E090936F019091DA
:1009A000E800977F9093E8008093F10080916901BF
:1009B000B1C08091E901823A09F0B6C0809170011E
:1009C000833041F480916F01811106C01092700153
:1009D00081E003C082E801C082E09091E800977F47
:1009E0009093E8008093F1001092F1001092F100D2
:1009F00080916701909168018093F100A0E0B0E0E0
:100A0000892F9A2FAB2FBB278093F1001092F10012
:100A10003AC09091E901913A09F086C09091700135
:100A2000992321F083E88093F1006EC091E09093C8
:100A30006F0190936E0190936D018093700164C07B
:100A40008091E901813A09F06FC080917001853091
:100A500081F480916F0181110EC080916E0181112E
:100A60000AC080916D01811106C01092700181E071
:100A700003C082E801C082E09091E800977F9093E4
:100A8000E8008093F1001092F10046C08091E901E6
:100A9000813A09F049C08091E800877F8093E8009F
:100AA00068E170E083E091E00E945F0D8091E800D2
:100AB0008B778093E80038C08091EB01813009F09A
:100AC00080E000D521C080E593ECA0E0B0E0809309
:100AD000790190937A01A0937B01B0937C0185E228
:100AE00091E0ECD511C080E593ECA0E0B0E08093FC
:100AF000790190937A01A0937B01B0937C0165E228
:100B000071E080910201C5D58091E800877F8093D4
:100B1000E80081E08093F1008091E8008E77809377
:100B2000E800CF910C94CC0ECF9108950F931F93B2
:100B3000CF93DF93EC01898175DB182F8A8172DBFB
:100B400090E1199F800D1124182F8B816BDB082FEA
:100B50008C8168DB682F90E1099F600D11241123BF
:100B600019F0113041F021C088E690E0DF91CF917B
:100B70001F910F91F5CD613041F0623061F46DE06D
:100B800089E690E0EDDD8DE00BC06AE089E690E05B
:100B9000E7DD8AE005C060E089E690E0E1DD80E025
:100BA000DF91CF911F910F9185C6DF91CF911F915A
:100BB0000F910895CF92DF92EF92FF920F931F93C0
:100BC000CF93DF937C01C62FD42ED22F442349F03C
:100BD00080912601882329F081E0F70190819132EC
:100BE00009F080E080FF04C06C2FC7019FDF24C0A4
:100BF00081E068D48D98DD2029F0B8018091020150
:100C000036D601C080E0CD2ECC2379F0811113C0FF
:100C1000C150F70181917F01C11102C06C2D01C04B
:100C200060E06170A80140D6EFCFDD2321F0811193
:100C300002C0C801EDD58D9A10922601DF91CF91A7
:100C40001F910F91FF90EF90DF90CF9008956F92DA
:100C50007F928F929F92AF92BF92CF92DF92FF923C
:100C60000F931F93CF93DF9300D0CDB7DEB75C0116
:100C7000F62E742E4901680181E024D48D981982E2
:100C8000772029F0B80180910201D6D589831A8294
:100C900087E2682E81E0782E10E09A818981911197
:100CA00013C0F116B1F0811118C0A601BE016F5F2B
:100CB0007F4FCE0102960DD599819111EECF1F5F26
:100CC000F30181933F01E9CF811107C0C601A0D58F
:100CD000F12E8981882321F01F2D81E08A83F12E56
:100CE0008A81F40180834F2D50E067E271E0C501F5
:100CF0000E9401128D9A8F2D0F900F90DF91CF914E
:100D00001F910F91FF90DF90CF90BF90AF909F9079
:100D10008F907F906F90089581E080930101809380
:100D200000011092220110922301109224011092CE
:100D30002501CEC30F931F93CF93DF9300D0CDB780
:100D4000DEB723E02093E9002091E80022FF1CC0D9
:100D50008C011A821982AE014F5F5F4F6CE070E028
:100D6000C80164D6982F80916E01953011F48823C4
:100D700091F3F801218120936901811102C081E082
:100D8000911180E0817001C080E00F900F90DF91A1
:100D9000CF911F910F9108950F931F93CF93DF93DE
:100DA00000D0CDB7DEB78C0180916901F801818355
:100DB0008095828382E08093E9001A821982AE01D5
:100DC0004F5F5F4F6CE070E0C801E7D590916F0115
:100DD000853011F4992399F3911105C091E08111A7
:100DE00090E0892F01C080E081700F900F90DF911B
:100DF000CF911F910F910895BF92CF92DF92EF9202
:100E0000FF920F931F93CF93DF93CDB7DEB7CF58E9
:100E1000D1090FB6F894DEBF0FBECDBF8091E801B7
:100E2000843009F0DDC18091220190912301A091CD
:100E30002401B0912501892B8A2B8B2B09F022C12B
:100E4000CE018F579F4F76DF882309F47FC18091B1
:100E50001C0190911D01019690931D0180931C012E
:100E6000CF57DF4F8881C158D040823009F4A0C0ED
:100E7000803821F0813009F0FFC019C081E022D311
:100E800080E593ECA0E0B0E08093790190937A0143
:100E9000A0937B01B0937C0165E271E08091020137
:100EA000E3D38091E8008B778093E8004FC1CB5764
:100EB000DF4F3881C558D040CA57DF4F2881C65808
:100EC000D040C957DF4F9881C758D040C857DF4F2F
:100ED0008881C858D04030932201209323019093F9
:100EE0002401809325011092680110926701C32E9E
:100EF000D22EE92EF82E85E3C816D104E104F104C0
:100F000028F094E3C92ED12CE12CF12CBC2C47E61F
:100F100051E0B601CE01019689D5853021F480914A
:100F20006E018823A1F38091220190912301A09169
:100F30002401B09125018C199D09AE09BF09809348
:100F4000220190932301A0932401B0932501C75758
:100F5000DF4F2881C958D04031E0211101C030E075
:100F600030937D01222329F021E0892B8A2B8B2BC2
:100F700009F020E02170C157DF4F2883CF58D040BF
:100F800004E411E0409101016B2DCE01019612DEC7
:100F900083E08093E9008091E8008B778093E800FC
:100FA000C157DF4F8881CF58D04080930101CEC018
:100FB0008091E8008B778093E800CB57DF4F688102
:100FC00079818A819B81C558D04064337105810540
:100FD000910520F063E370E080E090E00CE411E024
:100FE0009E0121573F4F40910001CE0101962FDE17
:100FF00090E0A0E0B0E0CB57DF4F88839983AA83CD
:10100000BB83C558D040C157DF4F8881CF58D040EF
:1010100080930001C757DF4F8883C958D040809123
:101020006F01811104C0CE018F579F4FB5DE109222
:1010300068011092670180916F01882379F082E046
:101040008093E9008091E8008E778093E80080919A
:101050006F01882309F47AC05FDE78C0CB57DF4F79
:1010600068817981C558D04047E651E0CE010196AC
:1010700094D4853001F3E3CF8091EB0080628093BC
:10108000EB0064C083E08093E9008091E80082FF78
:101090005DC01092680110926701809122019091C9
:1010A0002301A0912401B091250180349105A1056F
:1010B000B10510F4F82E02C080E4F82ECF2CD12C0C
:1010C00047E651E0B601CE010196B0D4853021F457
:1010D00080916E018823A1F38091220190912301D8
:1010E000A0912401B09125018F199109A109B1099D
:1010F0008093220190932301A0932401B0932501B2
:101100008091E8008B778093E80080917D018823AF
:1011100069F021E08091220190912301A0912401A6
:10112000B0912501892B8A2B8B2B09F020E02170AF
:10113000C157DF4F2883CF58D0402093010104E4EA
:1011400011E040E06F2DCE01019634DD80916D01FC
:101150008823A9F081E0B6D180E593ECA0E0B0E06F
:101160008093790190937A01A0937B01B0937C01E5
:1011700065E271E08091020162D210926D0180916E
:101180006C01882309F110926C0180916B018068D9
:10119000C357DF4F8883CD58D04080916A01C25732
:1011A000DF4F8883CE58D04081E08093E90040E053
:1011B00050E062E070E0CE0183579F4FEED3809104
:1011C000E8008E778093E80080916E01811103C062
:1011D00080916F018111A0DD10926F0110926E015C
:1011E000C157DF4F0FB6F894DEBF0FBECDBFDF9102
:1011F000CF911F910F91FF90EF90DF90CF90BF9014
:10120000089514BE0FB6F894A89580916000886187
:1012100080936000109260000FBE2A9A2298B9DA7B
:101220006BD1F999FECF89E690E00E940A1242D371
:10123000789438D1811117C02FEF84E39CE02150BE
:1012400080409040E1F700C000008D9AEFEFF4E39A
:101250002CE0E150F0402040E1F700C000008D9804
:101260007CDAE7CF7ADA43D881112CC08FEF91EE88
:10127000E4E081509040E040E1F700C000008D9A2A
:10128000FFEF21EE84E0F15020408040E1F700C004
:1012900000008D9807D18111E5CF8D989FEFE9E689
:1012A000F8E19150E040F040E1F700C000009CE020
:1012B00088E10FB6F894A895809360000FBE9093D4
:1012C0006000FFCFF999FECF88E690E00E940A12F5
:1012D000813081F1F999FECF80E090E00E940A12FE
:1012E000C82F10D8882399F06091020180E090E027
:1012F00037DA0EE711E0C0E0D0E0F80161918F012C
:101300002196CE012DDAC636D105B9F723C08091DA
:101310000201C8131FC00EE711E0C1E0D0E0CE010A
:101320000E940A12F80181938F012196C736D105D8
:10133000B1F710C081E00E94A80080E0C3D0FFEFA9
:1013400021EE84E0F15020408040E1F700C0000031
:1013500081E0B8D08D9A8091E0008E7F8093E0008C
:101360004BDDFBD99FD081111AC08D988091E00090
:1013700081608093E0009FEFE9E6F8E19150E04062
:10138000F040E1F700C000009CE088E10FB6F8945F
:10139000A895809360000FBE90936000FFCF0E94DD
:1013A000DB11DECFF9011082692F772762307105DA
:1013B00059F06330710569F06130710549F582E1DA
:1013C00090E021E031E028C087E290E02AED30E0B3
:1013D00023C099278130910591F070F082309105FA
:1013E00089F00397A9F480917E0190E062E0F90111
:1013F00060832EE731E010C0E6EDF0E005C0EEEBD3
:10140000F0E002C0ECEAF0E0849190E09F0104C0BB
:1014100080E090E020E030E0FA01318320830895FD
:1014200085E38A95F1F70000809171019091720136
:10143000009739F00197909372018093710180E0D9
:10144000089581E008951F920F920FB60F92112414
:101450008F93809177018F5F809377018630E0F0E2
:10146000809178018F5F809378011092770180914D
:101470007401811111C07E990AC08091750182307A
:1014800011F481E007C08F5F8093750105C0109251
:10149000750182E0809376018F910F900FBE0F90BF
:1014A0001F901895869B07C085E38A95F1F7000089
:1014B000869881E0089581E090917601923009F05C
:1014C00080E00895882311F0259A089525980895BD
:1014D0006A9A2FEF81EE94E0215080409040E1F72E
:1014E00000C000006A988FE39CE90197F1F700C003
:1014F00000001092740108951AB81BB885B18F7856
:1015000085B984B18F7884B988B18F7388B987B170
:101510008F7387B972986A9881B38F7381BB80B3D8
:101520008F7380BB259A1092740110927501D0DFE1
:1015300085E085BDEEE6F0E08081816080831092D9
:1015400077011092780108950F931F93CF938A012A
:1015500026983E983F9890B3292F2074662391F0E7
:1015600096FD06C0EFE6F3E03197F1F700C000000A
:10157000869A211112C0E7E1F1E03197F1F700C03E
:1015800000000BC096FF06C0EFE6F3E03197F1F7DD
:1015900000C0000086982111EECF8AB9F5E0FA95D7
:1015A000F1F70000F8010995C82F369903C0882388
:1015B000C9F30BC0811109C0269AF8010995C82FFB
:1015C000379902C08823C9F326981AB8C11194DF4D
:1015D0008C2FCF911F910F9108950F931F93CF934D
:1015E000C82F8B018F71AB0161E08064ADDFC07EDD
:1015F00039F0A80161E080E6CF911F910F91A4CF4F
:10160000CF911F910F9108950F931F93CF93C82FE0
:101610008B018F71AB0161E0806296DFC07E39F093
:10162000A80161E080E6CF911F910F918DCFCF91FE
:101630001F910F910895AC0161E08FE385CFCF93A7
:10164000DF93EB01E1DF81110AC0AE0161E084E0CC
:101650007BDF811104C0CE01EEDF882311F04CDF67
:1016600081E0DF91CF910895CF93DF93EB01CCDF41
:1016700081110AC0AE0161E088E066DF811104C01B
:10168000CE01D9DF882311F037DF81E0DF91CF91E0
:101690000895CF93DF93EB01B7DF81110AC0AE014C
:1016A00061E081E051DF811104C0CE01C4DF8823F5
:1016B00011F022DF81E0DF91CF910895CF93AC014B
:1016C00061E081E141DFC82F811116DF8C2FCF91BE
:1016D0000895AF92BF92DF92EF92FF920F931F9304
:1016E000CF93DF938C017B015A0180B3982F9074C4
:1016F00086FF06C0EFE6F3E03197F1F700C0000087
:101700008698992331F087E191E00197F1F700C0C5
:1017100000003F9A3E98F5010995D82F1E9B03C003
:101720008823C9F314C0811112C03E9AC9B1C09573
:10173000D3B0D4FADD24D0F881E0D8263F98F50163
:101740000995D82F1E9905C08823C9F302C0D12C52
:10175000C0E090917301911103C0F801D08208C0DC
:1017600081E0D11002C0C91380E08170F80180834C
:10177000D111C2DEF701D0838C2FDF91CF911F9161
:101780000F91FF90EF90DF90BF90AF900895FF9280
:101790000F931F93CF93DF9300D0CDB7DEB7F82E12
:1017A0008B011A82AB0161E088E1CEDE8A83811170
:1017B00004C0B8018F2D11DF8A8386983F9A8A81F1
:1017C000811109C0A801BE016E5F7F4FCE01019655
:1017D00080DFF82E01C0F12C8A81811105C0A8019B
:1017E00061E08FE5B1DE8A838A81811105C0A8019D
:1017F00061E089E1A9DE8A838A8181117DDE8F2DF6
:101800000F900F90DF91CF911F910F91FF9008954E
:10181000CF93DF93EC010FDF882319F06DDE81E0B9
:1018200006C0AE0161E08FE58FDE8111F7CF109227
:101830007401DF91CF9108950F931F93CF93DF939E
:10184000D82F8B0181E080937401CB01F4DEC82F87
:10185000811104C0B8018D2FC0DEC82F3F9AC1117D
:101860004BDE8C2FDF91CF911F910F9108951F9325
:10187000CF93DF93182FEB0181E080937401AB01CC
:1018800061E08FE561DE811109C0CE01D4DE8111F6
:1018900005C0BE01812FB8DE882311F02DDE81E066
:1018A000DF91CF911F9108956111249A60E04CDE81
:1018B000249808958A3011F08D3019F480937301C3
:1018C0000895109273010895EF92FF921F93CF93A2
:1018D000DF9384EF91E0909372018093710140E176
:1018E0005AE061E08FE330DECFEF94EFE92EFF2482
:1018F000F394CF5F1C2F1F711F3109F442C0F09287
:101900007201E092710160E17AE08C2F7DDE8698B1
:101910008FE39FE10197F1F700C00000379931C0D4
:101920007E9B2FC0DC2F84EFE82EFF24F394F092EF
:101930007201E092710140E15AE061E08FE304DE60
:10194000C03220F1F0927201E092710160E17AE020
:10195000812F5ADE86988FE39FE10197F1F700C04F
:101960000000379902C07E99D12F84EF91E09093C7
:1019700072018093710140E15AE061E08FE3E4DDA0
:1019800005C0CF3309F0B5CFDFEFCDCF8D2FDF917D
:10199000CF911F91FF90EF900895CF92DF92EF9239
:1019A000FF920F931F93CF93DF93EC018B017A018A
:1019B00012D2811132C0E114F10439F0F7018081B3
:1019C0009181081B190BC80FD91FC12CD12C0115EF
:1019D000110511F18091E80085FD15C08091E800A6
:1019E0008E778093E800E114F10449F0F7018081DB
:1019F0009181C80ED91ED182C08285E00EC0EBD184
:101A0000882329F30AC089918093F10001501109BC
:101A1000FFEFCF1ADF0ADBCF80E0DF91CF911F917C
:101A20000F91FF90EF90DF90CF900895CF92DF92CB
:101A3000EF92FF920F931F93CF93DF93EC018B01F3
:101A40007A01C9D1811132C0E114F10439F0F701F2
:101A500080819181081B190BC80FD91FC12CD12C73
:101A60000115110511F18091E80085FD15C08091E7
:101A7000E8008B778093E800E114F10449F0F70166
:101A800080819181C80ED91ED182C08285E00EC0AE
:101A9000A2D1882329F30AC08091F10089930150D3
:101AA0001109FFEFCF1ADF0ADBCF80E0DF91CF9182
:101AB0001F910F91FF90EF90DF90CF9008952091AC
:101AC000EF013091F0012617370748F061157105D5
:101AD00039F42091E8002E772093E80001C0B90185
:101AE000FC0120E06115710579F18091E8018823FE
:101AF000F1F18530F1F18091E80083FD3CC08091E7
:101B0000E80082FD2EC08091E80080FFEBCF20919D
:101B1000F3008091F20090E0922B6115710551F075
:101B20008830910538F421912093F10061507109BA
:101B30000196F3CF21E0089709F020E08091E800BA
:101B40008E778093E800CECF2111CFCF0AC080914D
:101B5000E801882361F0853061F08091E80083FD21
:101B60000AC08091E80082FFF2CF80E0089582E011
:101B7000089583E0089581E008952091EF01309168
:101B8000F0012617370748F06115710539F42091E7
:101B9000E8002E772093E80001C0B901FC0120E0A5
:101BA0006115710591F18091E801882309F440C025
:101BB000853009F43FC08091E80083FD3DC08091ED
:101BC000E80082FD2FC08091E80080FFE9CF2091DE
:101BD000F3008091F20090E0922B6115710559F0AD
:101BE0008830910540F424912093F10031966150A2
:101BF00071090196F2CF21E0089709F020E0809169
:101C0000E8008E778093E800CBCF2111CCCF0AC0BB
:101C10008091E801882361F0853061F08091E800CF
:101C200083FD0AC08091E80082FFF2CF80E0089532
:101C300082E0089583E0089581E00895CF92DF92D5
:101C4000EF92FF920F931F93CF93DF93EB012091BD
:101C5000EF013091F0012617370740F0209739F453
:101C60002091E8002E772093E80001C0E9016C0183
:101C700020E02097D9F18091E801882309F449C038
:101C8000853009F448C08091E80083FD46C080910A
:101C9000E80082FD38C08091E80080FFEACF8091A3
:101CA000F3000091F20010E0182B7801C701801BAF
:101CB000910B8C0D9D1D209761F038E0E316F10427
:101CC00040F4A8D38093F10021972FEFE21AF20A93
:101CD000EDCF21E038E0E316F10409F020E0309187
:101CE000E8003E773093E8006C01C3CF2111C3CFE9
:101CF0000AC08091E801882361F0853061F080910D
:101D0000E80083FD0AC08091E80082FFF2CF80E006
:101D100005C082E003C083E001C081E0DF91CF9184
:101D20001F910F91FF90EF90DF90CF900895982F23
:101D3000973068F59093E900981739F07091EC00AE
:101D40002091ED005091F00003C0242F762F50E039
:101D500021FD02C09F5FECCF3091EB003E7F3093BE
:101D6000EB003091ED003D7F3093ED003091EB00C2
:101D700031603093EB007093EC002093ED005093B2
:101D8000F0002091EE0027FDE5CF80E008958F70F0
:101D90008093E90081E008958091E90187FF11C0F7
:101DA0008091E80082FD05C08091E8018111F8CFA3
:101DB00011C08091E8008B770BC08091E8018823E7
:101DC00049F08091E80080FFF8CF8091E8008E779D
:101DD0008093E80008952091E4003091E50095E6B5
:101DE0004091EC00842F817040FF23C08091E80077
:101DF00080FD1DC08091E801882399F0853099F01D
:101E00008091EB0085FD11C04091E4005091E50008
:101E10002417350729F3915011F09A01E1CF84E09E
:101E2000089582E0089583E0089581E0089580E0B8
:101E300008954091E80042FFDDCF089567D06ED04D
:101E4000E0EEF0E0808181608083E8EDF0E0808169
:101E50008F77808319BCA7EDB0E08C918E7F8C9337
:101E600080818F7E80831092E70108950F931F93E6
:101E7000CF93DF934BD052D0C8EDD0E088818F77DD
:101E8000888388818068888388818F7D888319BC56
:101E90001092E8011092E4011092E6011092E5011F
:101EA00000EE10E0F80180818B7F80838881816063
:101EB000888342E060E080E03ADFE1EEF0E080819C
:101EC0008E7F8083E2EEF0E080818160808380817C
:101ED00088608083F80180818E7F80838881806123
:101EE0008883DF91CF911F910F910895E8EDF0E085
:101EF00080818F7E8083E7EDF0E080818160808348
:101F000084E082BF81E08093E701B0CFE8EDF0E0AC
:101F100080818E7F80831092E20008951092DA0013
:101F20001092E10008951F920F920FB60F921124A4
:101F30002F933F934F935F936F937F938F939F93D1
:101F4000AF93BF93EF93FF938091E10082FF0AC0AC
:101F50008091E20082FF06C08091E1008B7F809338
:101F6000E10028D28091DA0080FF1FC08091D80064
:101F700080FF1BC08091DA008E7F8093DA00809111
:101F8000D90080FF0DC080E189BD82E189BD09B41F
:101F900000FEFDCF81E08093E8010E94EC0305C0C4
:101FA00019BC1092E8010E94ED038091E10080FFCE
:101FB00018C08091E20080FF14C08091E2008E7F03
:101FC0008093E2008091E20080618093E200809142
:101FD000D80080628093D80019BC85E08093E80126
:101FE000E9D18091E10084FF2FC08091E20084FF5D
:101FF0002BC080E189BD82E189BD09B400FEFDCF1F
:102000008091D8008F7D8093D8008091E1008F7EF1
:102010008093E1008091E2008F7E8093E2008091C6
:10202000E20081608093E2008091E401882311F056
:1020300084E007C08091E30087FD02C081E001C019
:1020400083E08093E801B6D18091E10083FF27C04F
:102050008091E20083FF23C08091E100877F80931D
:10206000E10082E08093E8011092E4018091E100B8
:102070008E7F8093E1008091E2008E7F8093E2006A
:102080008091E20080618093E20042E060E080E0C5
:102090004EDE8091F00088608093F0008BD1FF913C
:1020A000EF91BF91AF919F918F917F916F915F91D0
:1020B0004F913F912F910F900FBE0F901F90189549
:1020C0001F920F920FB60F9211242F933F934F93AD
:1020D0005F936F937F938F939F93AF93BF93CF93B0
:1020E000DF93EF93FF93C091E900CF708091EC00F4
:1020F000D82FD17080FDD0E81092E9008091F000D7
:10210000877F8093F00078941ED01092E900809130
:10211000F00088608093F000CD2BCF70C093E90071
:10212000FF91EF91DF91CF91BF91AF919F918F91EF
:102130007F916F915F914F913F912F910F900FBEC3
:102140000F901F9018951F93CF93DF9300D01F928D
:10215000CDB7DEB7E9EEF1E081EF91E02091F1003B
:1021600021938E179F07D1F70E94FD038091E8000D
:1021700083FF0BC18091E9019091EA01953009F448
:1021800083C030F49130A9F168F0933091F1FDC033
:10219000983009F4C9C0993009F4D5C0963009F0D7
:1021A000F4C094C0803821F0823809F0EEC008C035
:1021B0008091E5019091E601992389F082600FC03A
:1021C0008091ED018F70873008F0DFC08093E900C7
:1021D0008091EB0085FB882780F91092E9009091AF
:1021E000E800977F9093E8008093F1001092F1004F
:1021F000A6C0282F2D7F09F0C8C0882319F082308F
:1022000061F0C3C08091EB01813009F0BEC0933012
:1022100009F080E08093E6012EC08091EB018111EE
:102220002AC08091ED018F702FEF280F263008F023
:10223000ACC08093E9002091EB0020FF1CC09330DC
:1022400021F48091EB00806214C09091EB009061CA
:102250009093EB0021E030E0A90102C0440F551F2C
:102260008A95E2F74093EA001092EA008091EB0031
:1022700088608093EB001092E9008091E800877FEE
:102280008093E80089DD81C081117FC01091EB014E
:102290001F778091E3008078812B8093E300809109
:1022A000E800877F8093E80077DD8091E80080FF79
:1022B000FCCF8091E30080688093E300111102C09D
:1022C00082E001C083E08093E8015FC080588230E3
:1022D00008F05BC06091ED017091EE019E012D5FF1
:1022E0003F4FAE014F5F5F4F8091EB019091EC014A
:1022F00059D8BC01892B09F448C08091E800877F38
:102300008093E8002B8189819A81211102C035DCFC
:1023100005C0213011F492DC01C0D1DB8091E800CE
:102320008B778093E80031C0803879F58091E800A0
:10233000877F8093E8008091E4018093F100809191
:10234000E8008E779DCF811120C08091EB019091A4
:10235000EC0199270297CCF48091E800877F809365
:10236000E8008091EB018093E40116DD8091E401A7
:10237000811106C08091E30087FD02C081E001C0A9
:1023800084E08093E8010E94EE038091E80083FFDF
:102390000AC08091E800877F8093E8008091EB007D
:1023A00080628093EB000F900F900F90DF91CF91A0
:1023B0001F9108950895CF938091E801882399F0A3
:1023C000C091E900CF709091EC00892F817090FD51
:1023D00080E8C82B1092E9008091E80083FDB3DE0D
:1023E000CF70C093E900CF910895991B79E004C0A4
:1023F000991F961708F0961B881F7A95C9F7809544
:102400000895FB01DC0102C001900D924150504043
:10241000D8F70895F999FECF92BD81BDF89A992712
:1024200080B50895262FF999FECF1FBA92BD81BDC0
:1024300020BD0FB6F894FA9AF99A0FBE0196089546
:04244000F894FFCF3E
:10244400010101010000010400000000000000007F
:0C2454000107070000000000000000006D
:00000001FF
