:1000000089C00000A4C00000A2C00000A0C0000081
:100010009EC000009CC000009AC0000098C0000074
:1000200096C0000094C000000C94EC0E0C94B90F24
:100030008EC000008CC000008AC0000088C0000094
:1000400086C0000084C0000082C0000080C00000A4
:100050007EC000007CC000007AC000000C94CD0976
:1000600076C0000074C0000072C0000070C00000C4
:100070006EC000006CC000006AC0000068C00000D4
:1000800066C0000064C0000062C0000060C00000E4
:100090005EC000005CC000005AC0000058C00000F4
:1000A00056C0000054C0000052C0000010034700BA
:1000B00070006900620055007300620000001603C2
:1000C000580079007000680072006F004C006100F9
:1000D0006200730000000403090409022700010103
:1000E00000C0320904000002FE03010007050302FC
:1000F00040000507058202400005000000000000E6
:10010000001201100100000008EB0365200100014E
:100110000203010011241FBECFEFDAE0DEBFCDBF26
:1001200011E0A0E0B1E0E6EFF2E202C005900D922E
:10013000AC31B107D9F721E0ACE1B1E001C01D92CB
:10014000AD3EB207E1F70E94AC080C94791158CF8C
:100150004FE550E0AFB7F89493E090937B0188238C
:10016000B1F187E490E090937D0180937C0180E57C
:1001700090E090937F0180937E0189E490E09093DA
:1001800081018093800182E490E0909383018093C9
:1001900082015093850140938401809102016AE0BD
:1001A0000E944E11282F30E0205D3F4F3093870191
:1001B00020938601892F90E0C096909389018093C7
:1001C000880150938B0140938A0188E001C080E050
:1001D00090E06EE071E2282F290FE62FF0E0709397
:1001E0005700E49190FF03C0E295EF706F5FEF70EE
:1001F00030E04E2F50E0EA3018F0495C5F4F02C00B
:10020000405D5F4FF901EE0FFF1FE458FE4F518331
:1002100040839F5F9431F9F68B5E880F80937A015B
:10022000AFBF0895982F80ED890F8A3008F080E0E5
:100230002FE9290F263010F489EA890F2FEB290FB7
:10024000263010F489EC890F089585E38A95F1F73B
:1002500000008091750190917601A0917701B09195
:1002600078010097A105B10569F00197A109B109CD
:100270008093750190937601A0937701B0937801F4
:1002800080E0089581E008950E94341190916A0100
:1002900080916B01892B08950E94341190916B011C
:1002A00080916A01892B08950E94770EF8942FEFB0
:1002B00087EA91E6215080409040E1F700C00000BD
:1002C0009CE088E10FB6F894A895809360000FBE7B
:1002D00090936000EFEFF9E628E1E150F040204014
:1002E000E1F700C00000E0E0F0E70995FFCF0E94D1
:1002F000C30B91E08F3F11F490E081E08093020105
:10030000892F0895FF920F931F93CF93DF9300D00F
:10031000CDB7DEB710927A0180EA96E8A1E0B0E0AE
:100320008093750190937601A0937701B093780143
:1003300065E271E0809102010E94930B809175014A
:1003400090917601A0917701B0917801892B8A2B49
:100350008B2B31F045E251E060E08AE20E94B30B62
:100360008091750190917601A0917701B09178010B
:10037000892B8A2B8B2B31F045E251E060E089E438
:100380000E94B30B8091750190917601A091770145
:10039000B0917801892B8A2B8B2B31F045E251E00B
:1003A00060E084E40E94B30B809175019091760126
:1003B000A0917701B0917801892B8A2B8B2B31F09A
:1003C00045E251E060E08EE40E94B30B809175013C
:1003D00090917601A0917701B0917801892B8A2BB9
:1003E0008B2B31F045E251E060E08FE30E94B30BCC
:1003F0008091750190917601A0917701B09178017B
:10040000892B8A2B8B2B31F045E251E061E08AE0A9
:100410000E94B30B85E291E00E94630B809175010D
:1004200090917601A0917701B0917801892B8A2B68
:100430008B2B09F471C180EA96E8A1E0B0E08093CB
:10044000750190937601A0937701B093780165E2EE
:1004500071E0809102010E94770BF12C10E045E2DF
:1004600051E0BE016F5F7F4FCE0102960E94D80A15
:1004700001E0F11003C08C3209F000E0F02E982F5B
:100480009F7E9A3261F09F3251F08C3541F0982F67
:100490009D7F903221F08C3211F0863209F48FE585
:1004A00090EE980F9F3550F4E12FF0E0EE0FFF1F14
:1004B000E458FE4F90E0918380831F5F123350F425
:1004C0008981811107C08A81882349F203C01230D3
:1004D00060F01150E12FF0E0EE0FFF1FE658FE4FE5
:1004E000808191818F35910591F381E0810F880F93
:1004F00080937A0185E291E00E94630B80917501FF
:1005000090917601A0917701B0917801892B8A2B87
:100510008B2B11F0111104C180EA96E8A1E0B0E044
:100520008093750190937601A0937701B093780141
:1005300065E271E0809102010E94930B8091750148
:1005400090917601A0917701B0917801892B8A2B47
:100550008B2B31F045E251E060E089E40E94B30B5F
:100560008091750190917601A0917701B091780109
:10057000892B8A2B8B2B31F045E251E060E084E43B
:100580000E94B30B8091750190917601A091770143
:10059000B0917801892B8A2B8B2B31F045E251E009
:1005A00060E08FE30E94B30B80917501909176011A
:1005B000A0917701B0917801892B8A2B8B2B31F098
:1005C00045E251E061E08AE00E94B30B85E291E0F0
:1005D0000E94630B8091750190917601A091770143
:1005E000B0917801892B8A2B8B2B09F493C080EA78
:1005F00096E8A1E0B0E08093750190937601A09316
:100600007701B093780165E271E0809102010E9468
:10061000770B10E045E251E0BE016F5F7F4FCE01E6
:100620000296C6D701E0F11003C08C3209F000E059
:10063000F02E982F9F7E9A3261F09F3251F08C35C8
:1006400041F0982F9D7F903221F08C3211F086324C
:1006500009F48FE590EE980F9F3558F4E12FF0E004
:10066000EE0FFF1FE458FE4F282F30E03183208328
:100670001F5F123370F4998191110BC09A8191110F
:1006800008C08D3031F08A3029F603C0123060F096
:100690001150E12FF0E0EE0FFF1FE658FE4F808172
:1006A00091818F35910591F381E0810F880F8093BF
:1006B0007A0185E291E00E94630B011118C088E481
:1006C00090E090937D0180937C0180E590E0909391
:1006D0007F0180937E012091800130918101205320
:1006E000310981E02A30310518F080E001C081E055
:1006F0004091750150917601609177017091780178
:10070000452B462B472B41F0112331F0882321F054
:1007100011E009C0002399F281E01ADD10E003C066
:10072000002369F2F5CF80E06ED62FEF81EE94E0E2
:10073000215080409040E1F700C0000081E063D686
:10074000812F0F900F90DF91CF911F910F91FF900C
:1007500008951A9BA9CD08951F93CF93DF93EC01C1
:10076000162FF999FECFCE010E946311811749F02F
:10077000F999FECF612FCE01DF91CF911F910C949B
:100780006B11DF91CF911F91089584B7877F84BF4C
:100790000FB6F894A89580916000886180936000FE
:1007A000109260000FBE90E080E80FB6F89480933E
:1007B0006100909361000FBE0E94CF0EE0EEF0E06A
:1007C00080818160808380E0C3DC859A8D9A089562
:1007D0000895089542E361EC81E00E94F00D42E348
:1007E00061E882E00E94F00D42E360E883E00C944F
:1007F000F00DCF938091E9019091EA01009729F4DF
:100800008091E50180FD0BC07AC18238910519F015
:10081000039709F074C18091E50181FF70C1809157
:10082000E601863009F4FCC090F4833009F48CC0F2
:1008300038F4813009F459C0823009F479C05FC1BD
:10084000843009F4A8C0853009F4D5C058C1803877
:1008500071F118F5873009F405C1803409F04FC1F2
:100860008091E800877F8093E800C1E0C093F100A9
:100870008091E8008E778093E8000E94250E8D9885
:100880002FEF84E39CE0215080409040E1F700C0CE
:1008900000008D9AC093260132C1813A09F40EC13D
:1008A000823A09F4FBC0803A09F029C1F0C0C09136
:1008B000E70180E593ECA0E0B0E0809375019093B0
:1008C0007601A0937701B093780165E271E08091A1
:1008D0000201B8D69091E800977F9093E80091E0EC
:1008E0009093F100C093F10000C19091E501923A1C
:1008F00009F005C190916C0191110EC02091690120
:1009000030E04091E7015091E8014217530731F47C
:1009100080936C0181E003C083E801C081E891E02D
:1009200090936A019091E800977F9093E800DDC072
:100930008091E501823A09F0E2C080916C0181303A
:10094000D9F580916A0132C09091E501923A09F09F
:10095000D6C090916C0191110EC02091690130E0D8
:100960004091E7015091E8014217530731F4809319
:100970006C0181E003C083E801C081E891E09093BD
:100980006B019091E800977F9093E8008093F100CD
:1009900080916901AAC08091E501823A09F0AFC057
:1009A00080916C01833041F480916B01811106C00C
:1009B00010926C0181E003C082E801C082E0909156
:1009C000E800977F9093E8008093F1001092F10087
:1009D0001092F10080916701909168018093F1007D
:1009E000A0E0B0E0892F9A2FAB2FBB278093F100B6
:1009F0001092F10034C09091E501913A09F07FC066
:100A000090916C01992321F083E88093F10067C0F5
:100A100091E090936B0190936A0180936C015FC0A9
:100A20008091E501813A09F06AC080916C018530BE
:100A300061F480916B0181110AC080916A0181117A
:100A400006C010926C0181E003C082E801C082E020
:100A50009091E800977F9093E8008093F1001092C6
:100A6000F10045C08091E501813A09F048C08091CC
:100A7000E800877F8093E80068E170E083E091E020
:100A800077D78091E8008B778093E80038C0809119
:100A9000E701813009F080E0B6D421C080E593EC15
:100AA000A0E0B0E08093750190937601A093770168
:100AB000B093780185E291E070D511C080E593ECA8
:100AC000A0E0B0E08093750190937601A093770148
:100AD000B093780165E271E0809102014AD580917E
:100AE000E800877F8093E80081E08093F1008091A7
:100AF000E8008E778093E800CF910C94250ECF917B
:100B000008950F931F93CF93DF93EC0189818ADBC4
:100B1000182F8A8187DB90E1199F800D1124182FEF
:100B20008B8180DB082F8C817DDB682F90E1099F12
:100B3000600D1124112319F0113041F021C088E615
:100B400090E0DF91CF911F910F9106CE613041F07F
:100B5000623061F46DE089E690E0FEDD8DE00BC06F
:100B60006AE089E690E0F8DD8AE005C060E089E6A9
:100B700090E0F2DD80E0DF91CF911F910F91F9C5F8
:100B8000DF91CF911F910F910895CF92DF92EF9255
:100B9000FF920F931F93CF93DF937C01C62FD42E28
:100BA000D22F442349F080912601882329F081E047
:100BB000F7019081913209F080E080FF04C06C2F32
:100BC000C7019FDF24C081E01ED48D98DD2029F06D
:100BD000B80180910201A7D501C080E0CD2ECC23C1
:100BE00079F0811113C0C150F70181917F01C111CA
:100BF00002C06C2D01C060E06170A801B4D5EFCFD8
:100C0000DD2321F0811102C0C8015DD58D9A1092BB
:100C10002601DF91CF911F910F91FF90EF90DF9010
:100C2000CF9008956F927F928F929F92AF92BF92D2
:100C3000CF92DF92FF920F931F93CF93DF9300D059
:100C4000CDB7DEB75C01F62E742E4901680181E054
:100C5000DAD38D981982772029F0B80180910201AA
:100C600046D589831A8287E2682E81E0782E10E0CB
:100C70009A818981911113C0F116B1F0811118C0C8
:100C8000A601BE016F5F7F4FCE01029691D499817C
:100C90009111EECF1F5FF30181933F01E9CF8111E5
:100CA00007C0C60110D5F12E8981882321F01F2DA0
:100CB00081E08A83F12E8A81F40180834F2D50E0F8
:100CC00067E271E0C5010E945A118D9A8F2D0F9035
:100CD0000F90DF91CF911F910F91FF90DF90CF90F8
:100CE000BF90AF909F908F907F906F90089581E01C
:100CF0008093010180930001109222011092230140
:100D0000109224011092250184C30F931F93CF9357
:100D1000DF9300D0CDB7DEB723E02093E900209128
:100D2000E80022FF1CC08C011A821982AE014F5FBD
:100D30005F4F6CE070E0C801D2D5982F80916A01B6
:100D4000953011F4882391F3F801218120936901F2
:100D5000811102C081E0911180E0817001C080E0CA
:100D60000F900F90DF91CF911F910F9108950F93E6
:100D70001F93CF93DF9300D0CDB7DEB78C01809166
:100D80006901F80181838095828382E08093E90084
:100D90001A821982AE014F5F5F4F6CE070E0C801AC
:100DA00055D590916B01853011F4992399F39111E8
:100DB00005C091E0811190E0892F01C080E0817031
:100DC0000F900F90DF91CF911F910F910895BF92D7
:100DD000CF92DF92EF92FF920F931F93CF93DF9307
:100DE000CDB7DEB7CD58D1090FB6F894DEBF0FBE30
:100DF000CDBF8091E401843009F09DC18091220132
:100E000090912301A0912401B0912501892B8A2B77
:100E10008B2B09F020C1CE018F579F4F76DF88239F
:100E200009F47DC180911C0190911D010196909360
:100E30001D0180931C01CF57DF4F8881C158D040DE
:100E4000823009F49EC0803821F0813009F0FDC065
:100E500017C080E593ECA0E0B0E08093750190931B
:100E60007601A0937701B093780165E271E08091FB
:100E700002016AD38091E8008B778093E8004FC12C
:100E8000CB57DF4F3881C558D040CA57DF4F288134
:100E9000C658D040C957DF4F9881C758D040C8576F
:100EA000DF4F8881C858D04030932201209323011E
:100EB000909324018093250110926801109267019C
:100EC000C32ED22EE92EF82E85E3C816D104E104F4
:100ED000F10428F094E3C92ED12CE12CF12CBC2C88
:100EE00047E651E0B601CE010196F9D4853021F4F0
:100EF00080916A018823A1F38091220190912301BE
:100F0000A0912401B09125018C199D09AE09BF095A
:100F10008093220190932301A0932401B093250193
:100F2000C757DF4F2881C958D04031E0211101C097
:100F300030E030937901222329F021E0892B8A2B9C
:100F40008B2B09F020E02170C357DF4F2883CD5849
:100F5000D04004E411E0409101016B2DCE010196D7
:100F600014DE83E08093E9008091E8008B77809322
:100F7000E800C357DF4F8881CD58D04080930101EE
:100F8000CEC08091E8008B778093E800CB57DF4F8D
:100F9000688179818A819B81C558D040643371050D
:100FA0008105910520F063E370E080E090E00CE4BF
:100FB00011E09E0123573F4F40910001CE01019661
:100FC00031DE90E0A0E0B0E0CB57DF4F888399831B
:100FD000AA83BB83C558D040C357DF4F8881CD5803
:100FE000D04080930001C757DF4F8883C958D04055
:100FF00080916B01811104C0CE018F579F4FB7DEE6
:10100000109268011092670180916B01882379F03A
:1010100082E08093E9008091E8008E778093E80079
:1010200080916B01882309F47AC061DE78C0CB57C8
:10103000DF4F68817981C558D04047E651E0CE0145
:10104000019604D4853001F3E3CF8091EB008062F8
:101050008093EB0064C083E08093E9008091E80016
:1010600082FF5DC010926801109267018091220199
:1010700090912301A0912401B09125018034910524
:10108000A105B10510F4F82E02C080E4F82ECF2C93
:10109000D12C47E651E0B601CE01019620D485302F
:1010A00021F480916A018823A1F38091220190911B
:1010B0002301A0912401B09125018F199109A10963
:1010C000B1098093220190932301A0932401B0934E
:1010D00025018091E8008B778093E8008091790169
:1010E000882369F021E08091220190912301A09151
:1010F0002401B0912501892B8A2B8B2B09F020E04C
:101100002170C357DF4F2883CD58D0402093010171
:1011100004E411E040E06F2DCE01019636DD8091B0
:101120006A01811103C080916B018111E0DD109291
:101130006B0110926A01C357DF4F0FB6F894DEBF00
:101140000FBECDBFDF91CF911F910F91FF90EF9018
:10115000DF90CF90BF90089514BE0FB6F894A89575
:1011600080916000886180936000109260000FBEE3
:101170002A9A22980ADB61D1F999FECF89E690E09C
:101180000E946311F6D2789437D1811117C02FEFE6
:1011900084E39CE0215080409040E1F700C00000D3
:1011A0008D9AEFEFF4E32CE0E150F0402040E1F7BE
:1011B00000C000008D98CDDAE7CFCBDA98D8811146
:1011C0002CC08FEF91EEE4E081509040E040E1F7D9
:1011D00000C000008D9AFFEF21EE84E0F150204026
:1011E0008040E1F700C000008D9806D18111E5CF65
:1011F0008D989FEFE9E6F8E19150E040F040E1F78B
:1012000000C000009CE088E10FB6F894A895809398
:1012100060000FBE90936000FFCFF999FECF88E683
:1012200090E00E946311813081F1F999FECF80E056
:1012300090E00E946311C82F65D8882399F06091CF
:10124000020180E090E088DA0AE711E0C0E0D0E037
:10125000F80161918F012196CE017EDAC636D10563
:10126000B9F723C080910201C8131FC00AE711E03B
:10127000C1E0D0E0CE010E946311F80181938F019B
:101280002196C736D105B1F710C081E00E94A800B1
:1012900080E0B9D0FFEF21EE84E0F15020408040A3
:1012A000E1F700C0000081E0AED08D9A8091E000AF
:1012B0008E7F8093E0008BDD4CDA9ED081111AC0C6
:1012C0008D988091E00081608093E0009FEFE9E6D7
:1012D000F8E19150E040F040E1F700C000009CE0F0
:1012E00088E10FB6F894A895809360000FBE9093A4
:1012F0006000FFCFB9D7DFCFF9011082692F7727C0
:101300006230710559F06330710569F06130710523
:1013100049F582E190E021E031E028C087E290E0E9
:101320002AED30E023C099278130910591F070F0CB
:101330008230910589F00397A9F480917A0190E0B9
:1013400062E0F90160832AE731E010C0E6EDF0E0E9
:1013500005C0EEEBF0E002C0ECEAF0E0849190E032
:101360009F0104C080E090E020E030E0FA0131838A
:101370002083089585E38A95F1F7000080916D013F
:1013800090916E01009739F0019790936E018093D0
:101390006D0180E0089581E008951F920F920FB6CD
:1013A0000F9211248F93809173018F5F809373014B
:1013B0008630E0F0809174018F5F80937401109209
:1013C000730180917001811111C07E990AC08091D2
:1013D0007101823011F481E007C08F5F8093710149
:1013E00005C01092710182E0809372018F910F907D
:1013F0000FBE0F901F90189581E09091720192306E
:1014000009F080E00895882311F0259A0895259821
:1014100008956A9A2FEF81EE94E021508040904029
:10142000E1F700C000006A988FE39CE90197F1F7AB
:1014300000C000001092700108951AB81BB885B161
:101440008F7885B984B18F7884B988B18F7388B962
:1014500087B18F7387B972986A9881B38F7381BB94
:1014600080B38F7380BB259A109270011092710126
:10147000D0DF85E085BDEEE6F0E08081816080838D
:10148000109273011092740108950F931F93CF93DC
:101490008A0126983E983F98662311F0869A01C0EB
:1014A00086988AB985E08A95F1F70000F8010995D8
:1014B000C82F369903C08823C9F30BC0811109C016
:1014C000269AF8010995C82F379902C08823C9F3D5
:1014D00026981AB88698C111B0DF8C2FCF911F9132
:1014E0000F9108950F931F93CF93C82F8B018F7186
:1014F000AB0161E08064C9DFC07E39F0A80161E022
:1015000080E6CF911F910F91C0CFCF911F910F9186
:1015100008950F931F93CF93C82F8B018F71AB0149
:1015200061E08062B2DFC07E39F0A80161E080E650
:10153000CF911F910F91A9CFCF911F910F91089536
:10154000AC0161E08FE3A1CFCF93DF93EB01E1DF4B
:1015500081110AC0AE0161E088E097DF811104C00B
:10156000CE01EEDF882311F068DF81E0DF91CF91BB
:101570000895CF93DF93EB01CCDF811109C0AE0159
:1015800061E081E082DF811103C0CE01D9DF8111EA
:1015900054DF80E0DF91CF910895CF93AC0161E0FB
:1015A00081E173DFC82F811148DF8C2FCF9108951F
:1015B000AF92BF92DF92EF92FF920F931F93CF9360
:1015C000DF938C017B015A013F9A3E98F501099502
:1015D000D82F1E9B03C08823C9F314C0811112C0E9
:1015E0003E9AC9B1C095D3B0D4FADD24D0F881E0D9
:1015F000D8263F98F5010995D82F1E9905C0882354
:10160000C9F302C0D12CC0E090916F01911103C0C9
:10161000F801D08208C081E0D11002C0C91380E077
:101620008170F8018083D11108DFF701D0838C2FFE
:10163000DF91CF911F910F91FF90EF90DF90BF90BE
:10164000AF900895FF920F931F93CF93DF9300D035
:10165000CDB7DEB7F82E8B011A82AB0161E088E1CD
:1016600014DF8A83811104C0B8018F2D3BDF8A8388
:1016700086983F9A8A81811109C0A801BE016E5FD8
:101680007F4FCE01019694DFF82E01C0F12C8A81A4
:10169000811105C0A80161E08FE5F7DE8A838A81A8
:1016A000811105C0A80161E089E1EFDE8A838A81AA
:1016B0008111C3DE8F2D0F900F90DF91CF911F917D
:1016C0000F91FF900895CF93DF93EC0139DF8823CA
:1016D00019F0B3DE81E006C0AE0161E08FE5D5DE32
:1016E0008111F7CF10927001DF91CF9108950F9380
:1016F0001F93CF93DF93D82F8B0181E080937001EC
:10170000CB011EDFC82F811104C0B8018D2FEADE86
:10171000C82F86983F9AC11190DE8C2FDF91CF9110
:101720001F910F9108951F93CF93DF93182FEB0113
:1017300081E080937001AB0161E08FE5A6DE882334
:1017400011F0C1E008C0CE01FBDE8111FACFBE016D
:10175000812FDFDEC82F8698C1116FDE8C2FDF91BD
:10176000CF911F9108956111249A60E08EDE249834
:1017700008958A3011F08D3019F480936F01089527
:1017800010926F010895EF92FF921F93CF93DF9312
:1017900084EF91E090936E0180936D014AEB59E0E4
:1017A00061E08FE372DECFEF84EFE82EFF24F39445
:1017B000CF5F1C2F1F711F3109F43CC0F0926E01E6
:1017C000E0926D016AEB79E08C2FA3DE86988FE3BF
:1017D0009FE10197F1F700C0000037992BC07E9B75
:1017E00029C0DC2F84EF91E090936E0180936D010E
:1017F0004AEB59E061E08FE348DEC03200F16AEB6A
:1018000079E0812F86DE86988FE39FE10197F1F7DB
:1018100000C00000379902C07E99D12F84EF91E07B
:1018200090936E0180936D014AEB59E061E08FE384
:101830002CDE05C0CF3309F0BBCFDFEFD3CF8D2F28
:10184000DF91CF911F91FF90EF900895CF92DF929B
:10185000EF92FF920F931F93CF93DF93EC018B01D5
:101860007A0112D2811132C0E114F10439F0F7018A
:1018700080819181081B190BC80FD91FC12CD12C55
:101880000115110511F18091E80085FD15C08091C9
:10189000E8008E778093E800E114F10449F0F70145
:1018A00080819181C80ED91ED182C08285E00EC090
:1018B000EBD1882329F30AC089918093F10001506C
:1018C0001109FFEFCF1ADF0ADBCF80E0DF91CF9164
:1018D0001F910F91FF90EF90DF90CF900895CF92DE
:1018E000DF92EF92FF920F931F93CF93DF93EC0160
:1018F0008B017A01C9D1811132C0E114F10439F0B0
:10190000F70180819181081B190BC80FD91FC12CC9
:10191000D12C0115110511F18091E80085FD15C04C
:101920008091E8008B778093E800E114F10449F09E
:10193000F70180819181C80ED91ED182C08285E0D5
:101940000EC0A2D1882329F30AC08091F1008993A7
:1019500001501109FFEFCF1ADF0ADBCF80E0DF91E2
:10196000CF911F910F91FF90EF90DF90CF9008954E
:101970002091EB013091EC012617370748F06115F3
:10198000710539F42091E8002E772093E80001C01A
:10199000B901FC0120E06115710579F18091E40144
:1019A0008823F1F18530F1F18091E80083FD3CC09E
:1019B0008091E80082FD2EC08091E80080FFEBCF8F
:1019C0002091F3008091F20090E0922B6115710557
:1019D00051F08830910538F421912093F100615045
:1019E00071090196F3CF21E0089709F020E080917A
:1019F000E8008E778093E800CECF2111CFCF0AC0C8
:101A00008091E401882361F0853061F08091E800E5
:101A100083FD0AC08091E80082FFF2CF80E0089544
:101A200082E0089583E0089581E008952091EB011C
:101A30003091EC012617370748F06115710539F42C
:101A40002091E8002E772093E80001C0B901FC0145
:101A500020E06115710591F18091E401882309F47A
:101A600040C0853009F43FC08091E80083FD3DC04F
:101A70008091E80082FD2FC08091E80080FFE9CFCF
:101A80002091F3008091F20090E0922B6115710596
:101A900059F08830910540F424912093F10031965B
:101AA000615071090196F2CF21E0089709F020E01A
:101AB0008091E8008E778093E800CBCF2111CCCFC6
:101AC0000AC08091E401882361F0853061F0809143
:101AD000E80083FD0AC08091E80082FFF2CF80E039
:101AE000089582E0089583E0089581E00895CF92FB
:101AF000DF92EF92FF920F931F93CF93DF93EB014F
:101B00002091EB013091EC012617370740F0209728
:101B100039F42091E8002E772093E80001C0E90114
:101B20006C0120E02097D9F18091E401882309F429
:101B300049C0853009F448C08091E80083FD46C063
:101B40008091E80082FD38C08091E80080FFEACFF4
:101B50008091F3000091F20010E0182B7801C7018A
:101B6000801B910B8C0D9D1D209761F038E0E316D2
:101B7000F10440F4A8D38093F10021972FEFE21AEB
:101B8000F20AEDCF21E038E0E316F10409F020E09D
:101B90003091E8003E773093E8006C01C3CF21110B
:101BA000C3CF0AC08091E401882361F0853061F0E1
:101BB0008091E80083FD0AC08091E80082FFF2CFA7
:101BC00080E005C082E003C083E001C081E0DF91D6
:101BD000CF911F910F91FF90EF90DF90CF900895DC
:101BE000982F973068F59093E900981739F0709125
:101BF000EC002091ED005091F00003C0242F762FCF
:101C000050E021FD02C09F5FECCF3091EB003E7FA2
:101C10003093EB003091ED003D7F3093ED0030913B
:101C2000EB0031603093EB007093EC002093ED00FB
:101C30005093F0002091EE0027FDE5CF80E008955D
:101C40008F708093E90081E008958091E50187FF1E
:101C500011C08091E80082FD05C08091E4018111EE
:101C6000F8CF11C08091E8008B770BC08091E40120
:101C7000882349F08091E80080FFF8CF8091E80048
:101C80008E778093E80008952091E4003091E5007C
:101C900095E64091EC00842F817040FF23C0809135
:101CA000E80080FD1DC08091E401882399F0853013
:101CB00099F08091EB0085FD11C04091E4005091B6
:101CC000E5002417350729F3915011F09A01E1CF6F
:101CD00084E0089582E0089583E0089581E0089506
:101CE00080E008954091E80042FFDDCF089567D07D
:101CF0006ED0E0EEF0E0808181608083E8EDF0E07E
:101D000080818F77808319BCA7EDB0E08C918E7FA6
:101D10008C9380818F7E80831092E30108950F93CE
:101D20001F93CF93DF934BD052D0C8EDD0E0888182
:101D30008F77888388818068888388818F7D888376
:101D400019BC1092E4011092E0011092E20110928D
:101D5000E10100EE10E0F80180818B7F80838881B3
:101D60008160888342E060E080E03ADFE1EEF0E00D
:101D700080818E7F8083E2EEF0E0808181608083CD
:101D8000808188608083F80180818E7F8083888154
:101D900080618883DF91CF911F910F910895E8EDC5
:101DA000F0E080818F7E8083E7EDF0E080818160CC
:101DB000808384E082BF81E08093E301B0CFE8EDCF
:101DC000F0E080818E7F80831092E200089510926F
:101DD000DA001092E10008951F920F920FB60F9251
:101DE00011242F933F934F935F936F937F938F9320
:101DF0009F93AF93BF93EF93FF938091E10082FF96
:101E00000AC08091E20082FF06C08091E1008B7FD2
:101E10008093E10028D28091DA0080FF1FC080917A
:101E2000D80080FF1BC08091DA008E7F8093DA009B
:101E30008091D90080FF0DC080E189BD82E189BD1C
:101E400009B400FEFDCF81E08093E4010E94E80325
:101E500005C019BC1092E4010E94E9038091E100E1
:101E600080FF18C08091E20080FF14C08091E200E2
:101E70008E7F8093E2008091E20080618093E20097
:101E80008091D80080628093D80019BC85E080934F
:101E9000E401E9D18091E10084FF2FC08091E2004C
:101EA00084FF2BC080E189BD82E189BD09B400FEB9
:101EB000FDCF8091D8008F7D8093D8008091E10084
:101EC0008F7E8093E1008091E2008F7E8093E2001C
:101ED0008091E20081608093E2008091E00188239C
:101EE00011F084E007C08091E30087FD02C081E02B
:101EF00001C083E08093E401B6D18091E10083FFCB
:101F000027C08091E20083FF23C08091E100877F9A
:101F10008093E10082E08093E4011092E0018091DF
:101F2000E1008E7F8093E1008091E2008E7F8093BC
:101F3000E2008091E20080618093E20042E060E094
:101F400080E04EDE8091F00088608093F0008BD1BD
:101F5000FF91EF91BF91AF919F918F917F916F9181
:101F60005F914F913F912F910F900FBE0F901F9057
:101F700018951F920F920FB60F9211242F933F9333
:101F80004F935F936F937F938F939F93AF93BF9381
:101F9000CF93DF93EF93FF93C091E900CF708091CF
:101FA000EC00D82FD17080FDD0E81092E90080912C
:101FB000F000877F8093F00078941ED01092E900A3
:101FC0008091F00088608093F000CD2BCF70C0939B
:101FD000E900FF91EF91DF91CF91BF91AF919F9178
:101FE0008F917F916F915F914F913F912F910F90C2
:101FF0000FBE0F901F9018951F93CF93DF9300D0C3
:102000001F92CDB7DEB7E5EEF1E08DEE91E02091C5
:10201000F10021938E179F07D1F70E94F903809159
:10202000E80083FF0BC18091E5019091E6019530B6
:1020300009F483C030F49130A9F168F0933091F144
:10204000FDC0983009F4C9C0993009F4D5C0963064
:1020500009F0F4C094C0803821F0823809F0EEC055
:1020600008C08091E1019091E201992389F082609A
:102070000FC08091E9018F70873008F0DFC0809336
:10208000E9008091EB0085FB882780F91092E90038
:102090009091E800977F9093E8008093F100109270
:1020A000F100A6C0282F2D7F09F0C8C0882319F0A1
:1020B000823061F0C3C08091E701813009F0BEC079
:1020C000933009F080E08093E2012EC08091E70117
:1020D00081112AC08091E9018F702FEF280F2630DF
:1020E00008F0ACC08093E9002091EB0020FF1CC0F9
:1020F000933021F48091EB00806214C09091EB004A
:1021000090619093EB0021E030E0A90102C0440F00
:10211000551F8A95E2F74093EA001092EA008091F9
:10212000EB0088608093EB001092E9008091E8005A
:10213000877F8093E80089DD81C081117FC0109185
:10214000E7011F778091E3008078812B8093E30083
:102150008091E800877F8093E80077DD8091E80038
:1021600080FFFCCF8091E30080688093E300111131
:1021700002C082E001C083E08093E4015FC0805828
:10218000823008F05BC06091E9017091EA019E0124
:102190002D5F3F4FAE014F5F5F4F8091E701909100
:1021A000E801AAD8BC01892B09F448C08091E80055
:1021B000877F8093E8002B8189819A81211102C059
:1021C00035DC05C0213011F492DC01C0D1DB8091F7
:1021D000E8008B778093E80031C0803879F58091F2
:1021E000E800877F8093E8008091E0018093F10010
:1021F0008091E8008E779DCF811120C08091E7010A
:102200009091E80199270297CCF48091E800877FAC
:102210008093E8008091E7018093E00116DD8091D2
:10222000E001811106C08091E30087FD02C081E0DA
:1022300001C084E08093E4010E94EA038091E800F9
:1022400083FF0AC08091E800877F8093E800809137
:10225000EB0080628093EB000F900F900F90DF9166
:10226000CF911F9108950895CF938091E401882321
:1022700099F0C091E900CF709091EC00892F8170A6
:1022800090FD80E8C82B1092E9008091E80083FD62
:10229000B3DECF70C093E900CF910895991B79E028
:1022A00004C0991F961708F0961B881F7A95C9F7E6
:1022B00080950895FB01DC0102C001900D92415010
:1022C0005040D8F70895F999FECF92BD81BDF89A94
:1022D000992780B50895262FF999FECF1FBA92BD90
:1022E00081BD20BD0FB6F894FA9AF99A0FBE0196F7
:0622F0000895F894FFCFF1
:1022F60001010101000001040000000000000000CF
:0C230600010303000000000000000000C4
:00000001FF
