:100000000BC1000025C1000023C1000021C1000078
:100010001FC100001DC100001BC1000019C100006C
:1000200017C1000015C100000C945C1811C100003C
:100030000FC100000DC100000BC1000009C100008C
:1000400007C1000005C1000003C1000001C100009C
:10005000FFC00000FDC00000FBC000000C94760D46
:10006000F7C00000F5C00000F3C00000F1C00000C0
:10007000EFC00000EDC00000EBC00000E9C00000D0
:10008000E7C00000E5C00000E3C00000E1C00000E0
:10009000DFC00000DDC00000DBC00000D9C00000F0
:1000A000D7C00000D5C00000D3C000001003470037
:1000B00070006900620055007300620000001603C2
:1000C000580079007000680072006F004C006100F9
:1000D0006200730000000403090409022700010103
:1000E00000C0320904000003FE03010007050302FB
:1000F0004000050705820240000507058103020054
:10010000051201100100000008EB03652001000149
:100110000203010B151115F714FC140115441521E8
:10012000152315251569153C151C1506150C1527E5
:10013000152E153515F6144215121517155A1506F4
:10014000610D744A76793082729973A502751264D2
:1001500044017415016F1801691B01641E022023FC
:10016000BF05026F28733002EE00662D01E6010123
:100170006C33016F3601773901653C02F20373413C
:1001800001F40401644701F21101654D017250014F
:100190006D53022058BF090463616C646567736D19
:1001A00001F20601E607016F6A01E90801747001B6
:1001B0006F7301727601E50A01657C01727F01BFF0
:1001C0000B023087318F01308A02B00CB10D013043
:1001D0009203B00EB10FB21001659C01739F0165CF
:1001E000A201F4120174A80172AB0169AE016EB1F3
:1001F0000167B40220B9BF150273BE6ECA0168C19F
:10020000016FC40172C701F413016FCD0172D001F7
:100210006DD30161D601EC1411241FBECFEFDAE0DB
:10022000DEBFCDBF11E0A0E0B1E0E0E5F5E302C044
:1002300005900D92A634B107D9F725E0A6E4B1E008
:1002400001C01D92AE3DB207E1F7D0D70C94A61ABB
:10025000D7CE2FE530E04FB7F89493E090936C053C
:10026000882309F464C087E490E090936E0580933E
:100270006D0580E590E09093700580936F0589E4AB
:1002800090E0909372058093710582E490E09093E2
:1002900074058093730530937605209375058091DE
:1002A00002019DEC899F912D112496959695969526
:1002B000692F70E0605D7F4F7093780560937705DC
:1002C0005AE0959F8019112490E0C09690937A058A
:1002D0008093790530937C0520937B0528E080E0AE
:1002E0009EE031E20BC0F0E0F796AA0FBB1FA359C6
:1002F000BA4FED93FC938F5F843199F0A22FA80F32
:10030000E92FF0E030935700E49180FF03C0E295BD
:10031000EF709F5FEF70B0E0EA3028F7F0E0F09602
:10032000E4CF2B5E220F20936B054FBF089520E092
:10033000D6CF85E38A95F1F700008091660590910C
:100340006705A0916805B09169050097A105B10501
:1003500069F00197A109B10980936605909367053B
:10036000A0936805B093690580E0089581E0089541
:100370000E94641A9091530580915405892B089529
:100380000E94641A9091540580915305892B089519
:10039000DC01FC019C01245F3F4F9091F10091939F
:1003A000E217F307D1F711968C9180934A0590914B
:1003B000530581E0892708950E94E717F8942FEFED
:1003C00087EA91E6215080409040E1F700C00000AC
:1003D0009CE088E10FB6F894A895809360000FBE6A
:1003E00090936000EFEFF9E628E1E150F040204003
:1003F000E1F700C00000E0E0F0E70995FFCFFF92D1
:100400000F931F93CF93DF9300D0CDB7DEB7109239
:100410006B0580EA96E8A1E0B0E0809366059093D2
:100420006705A0936805B093690569E971E080915B
:1004300002010E940D138091660590916705A091BD
:100440006805B0916905892B8A2B8B2B09F004C1B3
:1004500089E991E00E9445128091660590916705B7
:10046000A0916805B0916905892B8A2B8B2B09F423
:10047000D5C080EA96E8A1E0B0E08093660590934D
:100480006705A0936805B093690569E971E08091FB
:1004900002010E94B912F12C10E049E951E0BE01BD
:1004A0006F5F7F4FCE0102960E94D511F110D1C02F
:1004B0008C32B1F0982F9F7E9A32A1F09F3291F04A
:1004C0008C3581F0982F9D7F903261F08C3251F005
:1004D000863241F090EE980F9F3578F490E004C09A
:1004E000FF24F3948FE590E0E12FF0E0EE0FFF1F83
:1004F000E359FA4F918380831F5F123308F03BC1A9
:100500008981811103C08A81882339F2E12FF0E0CB
:10051000EE0FFF1FE559FA4F808191818F359105CC
:1005200009F035C1123028F432C1102F013009F41E
:10053000F9C00FEF010FE02FF0E0EE0FFF1FE559BC
:10054000FA4F808191818F35910579F3110F1093C6
:100550006B0589E991E00E944512809166059091B2
:100560006705A0916805B09169050097A105B105DF
:1005700009F0ECC080EA96E8A1E0B0E0809366055F
:1005800090936705A0936805B093690569E971E0E8
:10059000809102010E940D1380916605909167057C
:1005A000A0916805B0916905892B8A2B8B2B09F0E6
:1005B00091C189E991E00E94451280916605909170
:1005C0006705A0916805B09169050097A105B1057F
:1005D00009F0F7C0F11022C020916D0530916E0531
:1005E00028343105D9F420916F05309170052035FC
:1005F0003105A1F420917105309172052053310924
:10060000FF24F3942A30310508F0A4C1892B8A2BEA
:100610008B2B21F0002311F0F110ABC081E019DE2B
:1006200010E080E00E94BD112FEF81EE94E0215098
:1006300080409040E1F700C0000081E00E94BD11C1
:10064000812F0F900F90DF91CF911F910F91FF900D
:100650000895FF24F3942ECF49E951E060E08AE247
:100660000E9492138091660590916705A09168059C
:10067000B09169050097A105B10509F447C049E9A2
:1006800051E060E089E40E949213809166059091A8
:100690006705A0916805B0916905892B8A2B8B2B82
:1006A00009F4D6CE49E951E060E084E40E94921357
:1006B0008091660590916705A0916805B0916905E4
:1006C000892B8A2B8B2B09F4C3CE49E951E060E0DA
:1006D0008EE40E9492138091660590916705A09127
:1006E0006805B0916905892B8A2B8B2B09F4B0CE54
:1006F00049E951E060E08FE30E9492138091660522
:1007000090916705A0916805B0916905892B8A2BA6
:100710008B2B09F49DCE49E951E061E08AE00E940B
:10072000921396CE84E080936B0589E991E00E9454
:1007300045128091660590916705A0916805B0917A
:1007400069050097A105B10509F414CFF11011C096
:1007500020916D0530916E052834310509F05ECF8A
:1007600020916F05309170052035310509F056CF85
:1007700041CF11E056CFE12FF0E0EE0FFF1FE5591A
:10078000FA4F808191818F35910509F4D2CE81E0B5
:10079000810F880F80936B0589E991E00E944512D3
:1007A0008091660590916705A0916805B0916905F3
:1007B0000097A105B10509F4EFC01111EBC000E0ED
:1007C000D9CE80EA96E8A1E0B0E0809366059093E8
:1007D0006705A0936805B093690569E971E08091A8
:1007E00002010E94B91200E049E951E0BE016F5FC9
:1007F0007F4FCE0102960E94D511F11068C08C3255
:10080000B9F0982F9F7E9A32A9F09F3299F08C35DB
:1008100089F0982F9D7F903269F08C3259F08632A2
:1008200049F090EE980F9F3588F4282F30E005C0EE
:10083000FF24F3942FE530E08FE5E02FF0E0EE0F9A
:10084000FF1FE359FA4F318320830F5F023308F013
:1008500094C09981911108C09A81911105C08D3081
:1008600019F08A3009F0C0CFE02FF0E0EE0FFF1F43
:10087000E559FA4F808191818F35910589F40230D5
:1008800018F40EC0013061F00150E02FF0E0EE0FDF
:10089000FF1FE559FA4F808191818F35910591F3C2
:1008A00081E0800F880F80936B0589E991E00E94B9
:1008B00045128091660590916705A0916805B091F9
:1008C0006905FF2009F448C0FF24F3949FCEFF245C
:1008D000F39497CF49E951E060E089E40E949213D4
:1008E0008091660590916705A0916805B0916905B2
:1008F000892B8A2B8B2B09F45CCE49E951E060E00F
:1009000084E40E9492138091660590916705A091FE
:100910006805B0916905892B8A2B8B2B09F449CE88
:1009200049E951E060E08FE30E94921380916605EF
:1009300090916705A0916805B0916905892B8A2B74
:100940008B2B09F436CE49E951E061E08AE00E9440
:1009500092132FCEF12C5ACE20916D0530916E0559
:100960002834310509F052CE20916F053091700581
:100970002035310509F04ACE3DCEE02FF0E0EE0FF4
:10098000FF1FE559FA4F808191818F35910509F458
:100990007BCF86CF012FDACE012FECCD1F93CF93E3
:1009A000DF93EC01162FF999FECFCE010E94901A29
:1009B000811749F0F999FECF612FCE01DF91CF91D8
:1009C0001F910C94981ADF91CF911F91089584B7CD
:1009D000877F84BF0FB6F894A895809160008861E6
:1009E00080936000109260000FBE90E080E80FB628
:1009F000F89480936100909361000FBE0E943F18AD
:100A0000E0EEF0E080818160808380E022DC859AE6
:100A10008D9A08950895089542E061EC81E00E9466
:100A20007A1746E361E882E00E947A1746E360E8BD
:100A300083E00C947A17CF93DF93C091E900CF70D5
:100A40008091EC001092E900D0914E0581E00E9467
:100A5000BD1180EF99E4A2E0B0E080936605909329
:100A60006705A0936805B093690569E971E0809115
:100A700002010E94B31090914E01892B10924E01F9
:100A800091E09093F100D093F1008093F100D09326
:100A90004C0580934B0590934D058091E8008E772F
:100AA0008093E8000E948E1710924F05C093E900D2
:100AB000DF91CF910895CF938091DA059091DB0576
:100AC0000097B9F59091D60590FF31C08091D70578
:100AD000863009F4BBC08730D0F18038B9F008F413
:100AE00066C0813A09F427C1823A09F4A4C0803A69
:100AF000F1F48091D805813009F080E00E94BD11A9
:100B00008091E800877F8093E8008AC08091E800A8
:100B1000877F8093E8008091D80580934E0580916F
:100B20004C01882309F40BC181E080934F05CF91DC
:100B300008958238910511F00397C9F79091D60571
:100B400091FFF5CF8091D705863029F67FC083309D
:100B500009F48FC008F04EC0813009F4CEC0823055
:100B600031F7923A21F780915505813009F4DBC0C5
:100B700092E88091E800877F8093E8009093F100ED
:100B80001092F1001092F100809148059091490572
:100B90008093F100A0E0B0E0892F9A2FAB2FBB2704
:100BA0008093F1001092F1001092F1003CC0873068
:100BB00009F48FC0803409F0BACF8091E800877FB4
:100BC0008093E800C1E0C093F1008091E8008E7747
:100BD0008093E8000E948E178D982FEF84E39CE0AD
:100BE000215080409040E1F700C000008D9AC093F2
:100BF00047059DCF843009F45EC0853009F097CF5A
:100C0000913A09F094CF9091E800977F9093E80093
:100C100090915505992309F494C083E88093F100DD
:100C200081E08093F1008091E8008E778093E80066
:100C3000CF910C948E1791E0909351058091E8002C
:100C4000877F8093E8009093F100EDCF913A09F00F
:100C50006ECF80915505853009F481C092E880916E
:100C6000E800877F8093E8009093F1001092F100F4
:100C7000DACF923A09F05BCF9091550591116BC094
:100C800020914A0530E04091D8055091D90542178E
:100C9000530709F47AC091E881E08093540580916C
:100CA000E800877F8093E8009093F10080914A05E7
:100CB0008093F100B8CF923A09F039CF8091550571
:100CC000833009F055CF80915405882381F192E05B
:100CD00050CF913A09F02BCF8091E800877F809325
:100CE000E80068E170E083E091E00E942A168091BC
:100CF000E8008B778093E8001ACF923A09F017CF7B
:100D000090915505911129C020914A0530E04091FC
:100D1000D8055091D9054217530799F191E881E020
:100D2000809353058BCF809153058111D0CF1092C2
:100D3000550591E01ECF91E0909350057FCFCF9164
:100D40007ACE91E090935405909353059093520579
:100D50008093550565CF93E89FCF93E8E0CF8091CE
:100D6000540581110CC080915305811108C08091F8
:100D70005205811104C01092550591E070CF92E0A8
:100D80006ECF8093550591E0CACF8093550591E0D1
:100D900083CFCF93683060F4C62FBC014C2F50E056
:100DA0008EE595E00E94871AC0934A0110924B018C
:100DB000CF910895CF93DF93D82F10924A011092CC
:100DC0004B010E947D15CFEFCD0FD11104C00BC098
:100DD000811111C0C92F8091F1000E9484159FEFED
:100DE0009C0FC111F5CFCEEF8091F100C150E0F71B
:100DF000DF91CF910895C2509111F6CFF9CFDF92D4
:100E0000EF92FF920F931F93CF93DF93C62FD22EB3
:100E100011E010934C01D091F100442371F18091C5
:100E20004705811169C081E00E94BD118D98B7010D
:100E3000809102010E940D1390914F05992309F4AE
:100E4000EBC0882309F4DFC0C111CEC0D110CCC0E3
:100E50008D9A1092470591E090934C0190914F0527
:100E6000992319F0882309F4ADC0DF91CF911F9128
:100E70000F91FF90EF90DF90089581E00E94BD11E7
:100E80008D9880914F058111BEC0CC2309F48EC08E
:100E9000811128C0C15011F40111249A86996EC0A5
:100EA000869826983E983F98DAB980915705109217
:100EB000570581113BC0369BF8CF269A8091570584
:100EC00010925705811151C0379BF8CF26981AB858
:100ED0002498CC2309F4A8C0D091F10080914F054B
:100EE0008823C1F2C7010E944512A5DDB701809198
:100EF00002010E940D13CECFD13209F094CF862F7C
:100F000059DF109247051D2510934C0180914F0524
:100F1000882309F4AACFDD2009F454C0DF91CF91D2
:100F20001F910F91FF90EF90DF9085CDF70109950C
:100F3000369932C0882309F4B8CF1AB847D6249816
:100F4000C11150C081E0DD2009F482CF81114CC075
:100F5000C7010E9445128D9A1092470510924C01CC
:100F600080914F058111DACF80CFF701099537992C
:100F700017C0882309F4A2CF2698DFCF8FE693E02D
:100F80000197F1F700C000008698E7E1F1E03197A2
:100F9000F1F700C0000085CF882309F48ECFCDCFB4
:100FA00026981AB8882309F493CFC8CFD110D0CF90
:100FB0008D9A1092470510934C0180914F0588231C
:100FC00009F453CFC7010E94451235DDB701809166
:100FD0000201DF91CF911F910F91FF90EF90DF9071
:100FE0000C940D138091F1008D9A1092470581E0C9
:100FF000D826D0924C01DF91CF911F910F91FF9095
:10100000EF90DF900895C7010E94451214DDB701EB
:10101000809102010E940D13CC2309F494CF811119
:10102000E3CF80914F0534CF80E08DCF7F928F92B8
:101030009F92AF92BF92CF92DF92EF92FF920F9367
:101040001F93CF93DF93D82F992E6B01C42F590193
:1010500081E00E94BD118D98C1119DC0C114D104C1
:1010600009F4A7C0ED2EF92CC0E0D0E0869976C037
:1010700086983F9A3E9880915705109257058111A6
:1010800040C01E99F8CF3E9A89B0809483B19924CC
:101090009394F82FF0717F2E84FD912C3F988091CE
:1010A00057051092570581113EC01E9BF8CF209125
:1010B000560580E0222331F0711030C099249394BA
:1010C00081113CC03E9A2196F70181927F019110D7
:1010D0003FC0CC15DD0510F4882341F2982EF501B0
:1010E00090828D9ACE01DF91CF911F910F91FF9049
:1010F000EF90DF90CF90BF90AF909F908F907F90B8
:101100000895F80109951E9B3CC0882309F4B3CFCC
:1011100020915605222391F181E0812C91E08212E9
:1011200090E0992ECDCFF80109951E992EC0882305
:1011300009F4B5CF209156052111BECF47D581E0E6
:101140003E9A2196F70181927F01992009F4C1CF3F
:101150008111C5CFC8010E944512C1CF8FE693E02F
:101160000197F1F700C0000086983F9A3E98E7E1AA
:10117000F1E03197F1F700C000007DCF812C912C78
:10118000DDCF882309F47FCFC3CF209156052223DA
:1011900009F496CF91CFB801809102010E94B91253
:1011A000C114D10419F0882309F45CCFC0E0D0E069
:1011B00095CFC0E0D0E080E091CF10924A0110922C
:1011C0005005109252051092510510924F0581E082
:1011D0008093010180930001109243051092440511
:1011E00010924505109246050C94C311CF93DF93DE
:1011F000CDB7DEB7CF58D1090FB6F894DEBF0FBE1A
:10120000CDBF14BE0FB6F894A89580916000886198
:1012100080936000109260000FBE2A9A2298D7DB5C
:101220009DD4F999FECF89E690E00E94901A0E9421
:10123000D813789416C02FEF34E34CE0215030409F
:101240004040E1F700C000008D9A8FEF94E3ECE09E
:1012500081509040E040E1F700C000008D981A9B5B
:1012600039C10E94A911882331F388E690E00E94D9
:10127000901A182F8EEF810F833008F44AC101E0D5
:101280000E94E2138F3F09F427C180930201F9996C
:10129000FECF113009F4D7C1F999FECF80E090E07C
:1012A0000E94901A182FABD88111AEC38091020111
:1012B000181709F494C38AE690E00E94901A8130CE
:1012C00009F482C38D9A8091E0008E7F8093E000C4
:1012D00063E0762E72E0672EE0E58E2EE3EC9E2E24
:1012E000A12CB12C09C01A9BF5C00E94A91188231A
:1012F00009F48DC10E94641A8091D505843099F754
:101300008091430590914405A0914505B091460513
:10131000892B8A2B8B2B09F011C17F992FC08092CA
:10132000660590926705A0926805B092690569E923
:1013300071E08091020117D78064982F9F7B2091E4
:101340004E01922B90934E0191E899838A83E1E0BC
:10135000E093E90004C08091540581110AC040E087
:1013600050E062E070E0CE0101960E94DF1585300A
:1013700091F38091E8008E778093E8008091520588
:10138000811172C180915105811180C180915005F8
:1013900081118AC17092E9008091E80082FF1AC031
:1013A000CE018F579F4F0E94C801882399F0CF57D5
:1013B000DF4F8881C158D040823009F4F4C18038B1
:1013C00009F4DCC1813009F47FC18091EB008062B7
:1013D0008093EB0080914D05882349F110924D05D3
:1013E00080914C058068C357DF4F8883CD58D0402B
:1013F00080914B05C257DF4F8883CE58D04021E003
:101400002093E90004C08091540581110BC040E095
:1014100050E062E070E0CE0183579F4F0E94DF15DD
:10142000853089F38091E8008E778093E800809181
:101430005305811104C0809154058823A9F170924D
:10144000E9008091E8008B778093E8008091E800C4
:101450008B778093E8006092E9008091EE008370C2
:1014600069F08091E80084608093E8008091E80052
:1014700082FDFCCF8091EE00837099F78091520538
:10148000882389F081E079D780926605909267057C
:10149000A0926805B092690569E971E08091020146
:1014A000DDD51092520589DE109254051092530535
:1014B00081E040914305509144056091450570914C
:1014C0004605452B462B472B09F480E080934D01C0
:1014D0001A990BCF0E94DC01009302019FEFE1EE0D
:1014E000F4E09150E040F040E1F700C000008D9A38
:1014F0002FEF33ED40E3215030404040E1F700C092
:1015000000008D9826D7882309F46CC01A99B8CEAC
:10151000E1CF133009F464C0143009F45FC095E0E2
:1015200080E0FFEF23ED30E3F15020403040E1F761
:1015300000C000008F5F9813F4CFA1CE7092E90035
:101540008091E80082FF46CF10924905109248052D
:1015500040914305509144056091450570914605C1
:101560004034510561057105B8F5942F491B5109A7
:101570006109710940934305509344056093450503
:101580007093460521E0411551056105710509F08B
:1015900020E0C157DF4F2883CF58D040209301016E
:1015A00080916A05882309F44CC081E0452B462BC5
:1015B000472B09F046C0082F017088EBE82E81E028
:1015C000F82E40E0692FCE01019619DC8091E800E9
:1015D0008B778093E800FECE90E4C8CF9EE1A0CF49
:1015E0009FE09ECF8D984FEF89E698E14150804073
:1015F0009040E1F700C000009CE088E10FB6F8944D
:10160000A895809360000FBE90936000FFCF8D98E7
:101610008091E00081608093E0003FEF49E688E13F
:10162000315040408040E1F700C000009CE088E17C
:101630000FB6F894A895809360000FBE9093600059
:10164000FFCF80E0B8CF81E00E94290180E095D6ED
:101650002FEF31EE44E0215030404040E1F700C030
:10166000000081E08AD627CE81E087D68092660589
:1016700090926705A0926805B092690569E971E0EA
:1016800080910201EBD4109252057CCE80926605C7
:1016900090926705A0926805B092690589E991E08A
:1016A00096D21092510572CE80926605909267058F
:1016B000A0926805B092690569E971E08091020124
:1016C00040D41092500566CECB57DF4F48815981E8
:1016D0006A817B81C558D0408A019B014533510501
:1016E0006105710520F004E310E020E030E0902F68
:1016F000401B510B620B730B409343055093440501
:101700006093450570934605C757DF4F8881C958D8
:10171000D04021E0811101C020E020936A0521E042
:10172000411551056105710509F020E0C157DF4FF2
:101730002883CF58D040882329F081E0452B462BC1
:10174000472B09F080E0082F017058EBE52E51E09F
:10175000F52E40910101692FCE01019650DB709268
:10176000E9008091E8008B778093E800C157DF4F54
:101770008881CF58D040809301012CCE81E0FDD5E7
:101780008092660590926705A0926805B0926905FF
:1017900069E971E0809102015DD38091E8008B7767
:1017A0008093E80017CE8091E8008B778093E80063
:1017B000CB57DF4F488159816A817B81C558D04022
:1017C000443FF3E05F076105710508F0FAC0CA0104
:1017D000F0904A01FF2009F4DEC0E0904B018E2D0D
:1017E00090E00F2D10E0081B190B1801412C512C13
:1017F000421553056405750520F48A011A01412C30
:10180000512CCB57DF4F288239824A825B82C558E0
:10181000D040BC01625A7A4FA8018FE491E00E9447
:10182000871A0E0D00934B0181E00F1508F480E03C
:10183000C157DF4F8883CF58D0400F1520F010924A
:101840004A0110924B01C157DF4F8881CF58D040D9
:1018500080930001C757DF4F8883C958D0408091DB
:101860005405882341F16092E9008091E8008E7769
:101870008093E800CB57DF4F88819981AA81BB8193
:10188000C558D0400C96A11DB11D8F739927AA276A
:10189000BB27892B8A2B8B2B39F40E94AF178091A1
:1018A000E8008E778093E80080915405882309F43E
:1018B00091CD83DC8FCD80914A05CE57DF4F888351
:1018C000C258D0408095CD57DF4F8883C358D04051
:1018D0006092E9000E94AF17811122C04CE0E42E13
:1018E000F12C8E010F571F4F8091E80085FF0CC02F
:1018F000C8010196F80120812093F100F1E0EF1A70
:10190000F10871F08C01F0CF8091E8008E77809320
:10191000E8000E94AF17811103C0C8018C01E4CF19
:101920008091540581119FCFCB57DF4F08811981DA
:10193000C558D0400E94AF17811195CF24E3C22E25
:10194000D12C3FE4E32E31E0F32E0115110509F40B
:101950008ACF8091E80085FF14C0C801C016D10667
:1019600008F4C601081B190BF701E80EF91E819156
:101970008093F100EE16FF06D1F790E4C92ED12C2A
:10198000E4CF8091E8008E778093E8000E94AF1743
:101990008823D9F268CF00EC11E09E0121573F4F18
:1019A00040910001BC018FE491E040DBA0E0B0E099
:1019B000CB57DF4F88839983AA83BB83C558D04018
:1019C00042CF84EF93E004CF80916B0590E00297C3
:1019D0008A9708F477CC8AE280936B0573CC0BE688
:1019E00015E081E090E09C012B5635407901C7015C
:1019F000800F911F0E94901AF80181938F01F5E0EA
:101A0000013D1F07A1F757CC6091020180E090E0F3
:101A10000E94CE040BE615E0F80161918F01CF0121
:101A20008B5695400E94CE04F5E0013D1F07A1F7BB
:101A300042CCF9011082692F77276230710549F194
:101A40006330710599F06130710541F080E090E0FC
:101A500020E030E0FA0131832083089582E190E0B4
:101A600021E031E0FA013183208308959927813004
:101A70009105E9F0B0F082309105F9F0039731F764
:101A800080916B0590E062E0F90160832BE635E020
:101A9000E1CF87E290E02AED30E0FA013183208344
:101AA0000895E6EDF0E0849190E09F01D3CFEEEB56
:101AB000F0E0849190E09F01CDCFECEAF0E08491DA
:101AC00090E09F01C7CF85E38A95F1F700008091F0
:101AD000580590915905009739F001979093590551
:101AE0008093580580E0089581E008951F920F9239
:101AF0000FB60F9211248F939F9380915C058F5F97
:101B000080935C0591E090935705863098F0809122
:101B10005D058F5F80935D0510925C0580915A058D
:101B2000811108C086990DC07E990BC080915B051C
:101B3000823080F09F918F910F900FBE0F901F9079
:101B4000189510925B059F918F910F900FBE0F908B
:101B50001F9018958F5F80935B05ECCF1AB81BB868
:101B600085B18F7885B984B18F78806284B988B166
:101B70008F7388B987B18F7387B972986A9881B368
:101B80008F7381BB80B38F7380BB10925A05109204
:101B90005B053E986A9A8FED91E00197F1F700C0DE
:101BA00000006A988FE39CE90197F1F700C00000FC
:101BB00010925A0585E085BDEEE6F0E080818160F7
:101BC000808310925C0510925D050895C7CFCF9376
:101BD000DF93EC01869B2EC0869A26983E983F980C
:101BE00081E18AB902C081111EC08091570510920F
:101BF0005705FE010995369BF6CF811114C0269A30
:101C000002C081110FC08091570510925705FE0147
:101C10000995379BF6CF26981AB8811105C0DF9138
:101C2000CF91089526981AB899DF98DF81E0DF9167
:101C3000CF9108958FE693E00197F1F700C000007F
:101C4000869AE7E1F1E03197F1F700C00000C5CFD7
:101C50001F93CF93DF93182FEB018F718062869BC8
:101C60005CC0869A26983E983F988AB902C0811136
:101C700021C08091570510925705FE010995369BAA
:101C8000F6CF811117C0269A02C0811112C080912F
:101C9000570510925705FE010995379BF6CF2698F8
:101CA0001AB8811108C0107E51F4DF91CF911F91B5
:101CB000089526981AB852DF81E0107EB1F3869B12
:101CC0003AC0869A26983E983F9880E68AB902C024
:101CD00081111CC08091570510925705FE0109958E
:101CE000369BF6CF811112C0269A02C081110DC019
:101CF0008091570510925705FE010995379BF6CF45
:101D000026981AB8882389F202C026981AB826DFC6
:101D100081E0DF91CF911F910895EFE6F3E03197D5
:101D2000F1F700C00000869AE7E1F1E03197F1F7A2
:101D300000C0000097CF8FE693E00197F1F700C055
:101D40000000869AE7E1F1E03197F1F700C000006A
:101D5000B9CF1F93CF93DF93182FEB018F7180645E
:101D6000869B5CC0869A26983E983F988AB902C0A6
:101D7000811121C08091570510925705FE010995E8
:101D8000369BF6CF811117C0269A02C0811112C06E
:101D90008091570510925705FE010995379BF6CFA4
:101DA00026981AB8811108C0107E51F4DF91CF91A6
:101DB0001F91089526981AB8D1DE81E0107EB1F304
:101DC000869B3AC0869A26983E983F9880E68AB9C4
:101DD00002C081111CC08091570510925705FE0169
:101DE0000995369BF6CF811112C0269A02C0811147
:101DF0000DC08091570510925705FE010995379B3C
:101E0000F6CF26981AB8882389F202C026981AB805
:101E1000A5DE81E0DF91CF911F910895EFE6F3E019
:101E20003197F1F700C00000869AE7E1F1E03197C1
:101E3000F1F700C0000097CF8FE693E00197F1F72C
:101E400000C00000869AE7E1F1E03197F1F700C0A9
:101E50000000B9CFCF93DF93EB01FADE882329F09E
:101E60007DDE81E0DF91CF910895869B5CC0869AEC
:101E700026983E983F9888E08AB902C0811142C0F6
:101E80008091570510925705FE010995369BF6CFB4
:101E9000811138C0269A02C0811133C08091570544
:101EA00010925705FE010995379BF6CF26981AB870
:101EB000811129C0869B29C0869A26983E983F9812
:101EC0008FE38AB902C081111DC08091570510921D
:101ED0005705FE010995369BF6CF811113C0269A4E
:101EE00002C081110EC08091570510925705FE0166
:101EF0000995379BF6CF26981AB8882309F4B2CFF4
:101F000002C026981AB82ADEABCF8FE693E001977D
:101F1000F1F700C00000869AE7E1F1E03197F1F7B0
:101F200000C00000CACF8FE693E00197F1F700C030
:101F30000000869AE7E1F1E03197F1F700C0000078
:101F400097CFCF93DF93EB0183DE882371F09FEF70
:101F5000E1EEF4E09150E040F040E1F700C0000015
:101F6000FDDD81E0DF91CF910895869B69C0869A5F
:101F700026983E983F9881E08AB902C081114BC0F3
:101F80008091570510925705FE010995369BF6CFB3
:101F9000811141C0269A02C081113CC08091570531
:101FA00010925705FE010995379BF6CF26981AB86F
:101FB000811132C0FFEF21EE84E0F15020408040DB
:101FC000E1F700C00000869B2DC0869A26983E98B7
:101FD0003F988FE38AB902C0811121C080915705D3
:101FE00010925705FE010995369BF6CF811117C057
:101FF000269A02C0811112C0809157051092570590
:10200000FE010995379BF6CF26981AB8882309F464
:10201000A9CF06C026981AB8A1DD99CF26981AB87C
:102020009DDD9ECF8FE693E00197F1F700C00000A1
:10203000869AE7E1F1E03197F1F700C00000C6CFE2
:102040008FE693E00197F1F700C00000869AE7E180
:10205000F1E03197F1F700C000008ACFCF93DF9312
:10206000EB0191E090935A05F3DD882381F076DD52
:1020700081E010925A05FFEF22E537E0F150204051
:102080003040E1F700C00000DF91CF910895869BBA
:102090005CC0869A26983E983F9884E08AB902C030
:1020A000811142C08091570510925705FE01099594
:1020B000369BF6CF811138C0269A02C0811133C0F9
:1020C0008091570510925705FE010995379BF6CF71
:1020D00026981AB8811129C0869B29C0869A26980D
:1020E0003E983F988FE38AB902C081111DC080914C
:1020F000570510925705FE010995369BF6CF8111C1
:1021000013C0269A02C081110EC08091570510920B
:102110005705FE010995379BF6CF26981AB88823F4
:1021200009F4A7CF02C026981AB818DDA0CF8FE611
:1021300093E00197F1F700C00000869AE7E1F1E033
:102140003197F1F700C00000CACF8FE693E0019706
:10215000F1F700C00000869AE7E1F1E03197F1F76E
:1021600000C0000097CF1F93CF93DF93182FEB0190
:1021700081E080935A0580E06BDD882349F010E010
:10218000EDDC10925A05812FDF91CF911F910895B8
:10219000869BB3C0869A26983E983F9888E18AB974
:1021A00002C0811191C08091570510925705FE0120
:1021B0000995369BF6CF811187C0269A02C08111FE
:1021C00082C08091570510925705FE010995379BF3
:1021D000F6CF26981AB8811178C0BE01812FB9DDDB
:1021E0008111CDCF869997C086983F9A3E9802C0BC
:1021F000811171C08091570510925705FE01099514
:102200001E99F6CF811167C03E9A19B1109583B11E
:102210003F9802C0811160C0809157051092570508
:10222000FE0109951E9BF6CF811156C03E9A869BF2
:1022300056C0869A26983E983F9889E18AB902C08E
:10224000811146C08091570510925705FE010995EE
:10225000369BF6CF81113CC0269A02C0811137C04F
:102260008091570510925705FE010995379BF6CFCF
:1022700026981AB881112DC0869B5DC0869A269833
:102280003E983F988FE58AB902C0811121C08091A4
:10229000570510925705FE010995369BF6CF81111F
:1022A00017C0269A02C0811112C080915705109262
:1022B0005705FE010995379BF6CF26981AB8882353
:1022C00009F45FCF06C026981AB848DC58CF269884
:1022D0001AB844DC55CF10E041DC3E9A51CF8FE66E
:1022E00093E00197F1F700C00000869AE7E1F1E082
:1022F0003197F1F700C000009DCF8FE693E0019782
:10230000F1F700C00000869AE7E1F1E03197F1F7BC
:1023100000C0000040CF8FE693E00197F1F700C0C6
:10232000000086983F9A3E98E7E1F1E03197F1F797
:1023300000C000005FCF8FE693E00197F1F700C087
:102340000000869AE7E1F1E03197F1F700C0000064
:1023500096CF869B0DC080915A058111089585E323
:102360008A95F1F70000869885E38A95F1F70000D9
:102370008FB186FB882780F90895811102C02598C6
:102380000895259A08953E986A9A8FED91E00197F5
:10239000F1F700C000006A988FE39CE90197F1F71C
:1023A00000C0000010925A050895BF92CF92DF92AC
:1023B000EF92FF920F931F93CF93DF937C016B01FA
:1023C000EA01869946C086983F9A3E9802C08111DC
:1023D00027C08091570510925705FE0109951E9957
:1023E000F6CF81111DC03E9A09B1009583B180716D
:1023F000B82E3F9802C0811109C0809157051092F4
:102400005705FE010995182F1E9BF5CF80915605A3
:10241000882379F191E0B11034C0F701908309C0AD
:1024200080915605811129C011E000E080E0F7019C
:102430008083111193DBF60110833E9A802FDF9188
:10244000CF911F910F91FF90EF90DF90CF90BF90B1
:1024500008958FE693E00197F1F700C00000869899
:102460003F9A3E98E7E1F1E03197F1F700C00000B4
:10247000B0CF81E0BB20D9F2D9CF90E011E000E0ED
:10248000CCCF081751F290E0C8CFCF93DF93EC0187
:10249000869B53C0869A26983E983F988FE38AB9C8
:1024A00002C0811141C08091570510925705FE016D
:1024B0000995369BF6CF811137C0269A02C081114B
:1024C00032C08091570510925705FE010995379B40
:1024D000F6CF26981AB8811128C0869B3CC0869AF0
:1024E00026983E983F988FE58AB902C081111CC09A
:1024F0008091570510925705FE010995369BF6CF3E
:10250000811112C0269A02C081110DC08091570519
:1025100010925705FE010995379BF6CF26981AB8F9
:10252000882331F002C026981AB818DB17DB81E047
:1025300010925A05DF91CF9108958FE693E00197AD
:10254000F1F700C00000869AE7E1F1E03197F1F77A
:1025500000C00000A0CF8FE693E00197F1F700C024
:102560000000869AE7E1F1E03197F1F700C0000042
:10257000B7CF1F93CF93DF93182FEB0181E08093A8
:102580005A05869B3CC0869A26983E983F988FE3D2
:102590008AB902C081112AC080915705109257054F
:1025A000FE010995369BF6CF811120C0269A02C004
:1025B00081111BC08091570510925705FE010995A6
:1025C000379BF6CF26981AB8811111C0BE0180E062
:1025D0003FDB81110DC0BE01812FBBDB3F9A811112
:1025E00008C0DF91CF911F91089526981AB8B6DAE6
:1025F0003F9AB4DA81E0DF91CF911F9108958FE681
:1026000093E00197F1F700C00000869AE7E1F1E05E
:102610003197F1F700C00000B7CF1F93CF93DF933E
:10262000182FEB0181E080935A05869B5FC0869A44
:1026300026983E983F988FE58AB902C081114EC016
:102640008091570510925705FE010995369BF6CFEC
:10265000811144C0269A02C081113FC08091570564
:1026600010925705FE010995379BF6CF26981AB8A8
:10267000811135C0BE0180E06CDB811131C0869BC9
:1026800043C0869A26983E983F988FE38AB902C045
:10269000811124C08091570510925705FE010995BC
:1026A000369BF6CF81111AC0269A02C0811115C03F
:1026B0008091570510925705FE010995379BF6CF7B
:1026C00026981AB881110BC0BE01812FC1DA811181
:1026D00007C0DF91CF911F91089526981AB83EDA6E
:1026E0003DDA81E0DF91CF911F9108958FE693E06D
:1026F0000197F1F700C00000869AE7E1F1E0319719
:10270000F1F700C0000094CF8FE693E00197F1F756
:1027100000C00000869AE7E1F1E03197F1F700C0D0
:102720000000B0CFCF93DF93EA016111249A86991C
:102730002EC0869826983E983F988AB902C081118B
:102740001FC08091570510925705FE010995369BD1
:10275000F6CF811115C0269A02C0811110C0809158
:10276000570510925705FE010995379BF6CF26981D
:102770001AB8811106C02498DF91CF910895269848
:102780001AB8ECD981E02498DF91CF910895EFE653
:10279000F3E03197F1F700C000008698E7E1F1E03F
:1027A0003197F1F700C00000C5CF8091560508951C
:1027B0008A3011F08D3019F48093560508951092E7
:1027C000560508950F931F93CF93DF9381E0809375
:1027D0005A0584EF91E09093590580935805869BA4
:1027E000D2C0869A26983E983F988FE38AB902C055
:1027F00081111AC0809157051092570564D9369BF4
:10280000F7CF811111C0269A02C081110CC08091AE
:1028100057051092570557D9379BF7CF26981AB806
:10282000882321F002C026981AB898D9C0E004EF96
:1028300011E0CF5FDC2FDF71DF3109F486C0109328
:1028400059050093580563E67DE08C2F01DA8698E0
:102850008FE39FE10197F1F700C00000379975C041
:102860007E9B73C01C2F84EF91E090935905809359
:102870005805869B96C0869A26983E983F988FE387
:102880008AB902C0811167C080915705109257051F
:102890001AD9369BF7CF81115EC0269A02C08111EA
:1028A00059C080915705109257050DD9379BF7CF26
:1028B00026981AB8811150C0C03208F451C084EF74
:1028C00091E0909359058093580563E67DE08D2F44
:1028D000BFD986988FE39FE10197F1F700C0000010
:1028E000379902C07E996BC084EF91E090935905AF
:1028F00080935805869B6CC0869A26983E983F9890
:102900008FE38AB902C0811134C0809157051092BB
:102910005705D9D8369BF7CF81112BC0269A02C014
:10292000811126C08091570510925705CCD8379B4E
:10293000F7CF26981AB881111DC010925A05812F21
:10294000DF91CF911F910F910895CF3309F071CF8F
:102950001FEF89CF26981AB801D9C03208F0AFCF3F
:1029600010925A05812FDF91CF911F910F910895F9
:1029700026981AB8F3D810925A05812FDF91CF917B
:102980001F910F9108958FE693E00197F1F700C032
:102990000000869A87E191E00197F1F700C00000FE
:1029A00021CF8FE693E00197F1F700C00000869AEF
:1029B00087E191E00197F1F700C000005DCF1D2F86
:1029C00084EF91E09093590580935805869994CFB0
:1029D0008FE693E00197F1F700C00000869A87E147
:1029E00091E00197F1F700C0000087CF089562E001
:1029F00088E690E00C94CE0463E088E690E00C94C6
:102A0000CE0464E088E690E00C94CE0460E088E6B2
:102A100090E00C94CE04FACF61E088E690E00C944C
:102A2000CE04FACF61E08AE690E00C94CE0460E038
:102A30008AE690E00C94CE0464E08DE191E00C9481
:102A4000C9068DE0B5CE8AE0B3CE80E0B1CE60E0BD
:102A500089E690E00E94CE0480E0AACE6AE089E692
:102A600090E00E94CE048AE0A3CE6DE089E690E07B
:102A70000E94CE048DE09CCE98DE682F89E690E01F
:102A80000C94CE040C94DC0188E690E049D58130AA
:102A900061F0823029F464E082E291E00C94C9068E
:102AA00062E08BE291E00C94C90663E087E291E07A
:102AB0000C94C9068AE690E033D5813029F066E0AF
:102AC00084E391E00C94C90665E08EE291E00C94F9
:102AD000C9066BDE8A3061F08D3029F462E08BE349
:102AE00091E00C94C90663E081E491E00C94C9067E
:102AF00062E08EE391E00C94C9068FE391E090933D
:102B00001C0180931B0108951F93CF93DF93182F0F
:102B10008FEB810F8A3108F4105EE0911B01F09178
:102B20001C019F012F5F3F4FD491DD2309F445C065
:102B3000C0E080E007C0CF5FDC1749F120911B01A6
:102B400030911C01F9019491A9014E5F5F4F5093A0
:102B50001C0140931B013196E491292F2F7712130A
:102B6000EACF8E2F97FF1DC090E0880F991F8D5ED2
:102B70009E4F092E000CAA0BBB0BABBFFC0187912B
:102B80009691FC01099581E0CF5FDC13D7CF2FE34D
:102B900031E030931C0120931B01DF91CF911F91F5
:102BA000089590E0815C9E4F90931C0180931B01DF
:102BB00080E0DF91CF911F91089580E0E8CFCF9220
:102BC000DF92EF92FF920F931F93CF93DF938C01CD
:102BD000EB016A01C4D181111EC0C114D10439F0C6
:102BE000F60180819181C81BD90B080F191F20970E
:102BF00089F0E12CF12C9091E80095FF15C0F801C7
:102C000081918F018093F1002197FFEFEF1AFF0A66
:102C1000209789F780E0DF91CF911F910F91FF906E
:102C2000EF90DF90CF9008958091E8008E778093A9
:102C3000E8004AD4C114D10421F491D18823D9F2F7
:102C4000EACFF60180819181E80EF91EF182E082DF
:102C500085E0E1CF2091DC053091DD0526173707AF
:102C600050F06115710599F52091E8002E772093B9
:102C7000E80020E030E0FC0140E00EC0853049F182
:102C80008091E80083FD27C08091E80082FD19C093
:102C90008091E80080FD21C02115310511F4442305
:102CA00081F08091D5058111E9CF82E0089580916E
:102CB000D5058823D1F3853061F08091E80083FD4C
:102CC0000AC08091E80082FFF2CF80E008959B0166
:102CD000D2CF83E0089581E008954091F300809180
:102CE000F20090E0942B2115310519F08830910500
:102CF00068F041E0089709F040E08091E8008E77A5
:102D00008093E800C9CF8830910599F341914093B1
:102D1000F10021503109019621153105A1F7E9CFC4
:102D20002091DC053091DD052617370750F061153D
:102D3000710599F52091E8002E772093E80020E0B6
:102D400030E0FC0140E00EC0853049F18091E800A0
:102D500083FD27C08091E80082FD19C08091E800C2
:102D600080FD21C02115310511F4442381F08091AB
:102D7000D5058111E9CF82E008958091D50588239A
:102D8000D1F3853061F08091E80083FD0AC0809125
:102D9000E80082FFF2CF80E008959B01D2CF83E06C
:102DA000089581E008954091F3008091F20090E051
:102DB000942B2115310519F08830910568F041E018
:102DC000089709F040E08091E8008E778093E80052
:102DD000C9CF8830910599F344914093F100319621
:102DE0002150310901962115310599F7E8CFEF926D
:102DF000FF920F931F93CF93DF93C091DC05D09187
:102E0000DD05C617D70750F061157105C1F5209192
:102E1000E8002E772093E800C0E0D0E08C0190E03D
:102E20000EC0853071F18091E80083FD32C0809141
:102E3000E80082FD1EC08091E80080FD32C020972E
:102E400011F49923B1F08091D5058111EACF82E088
:102E5000DF91CF911F910F91FF90EF900895809196
:102E6000D5058823A1F3853061F08091E80083FDCA
:102E700010C08091E80082FFF2CF80E0E9CFEB0143
:102E8000CDCF83E0DF91CF911F910F91FF90EF9015
:102E9000089581E0DF91CF911F910F91FF90EF9006
:102EA00008958091F300E090F200F12CF82A209729
:102EB00021F088E0E816F10480F091E088E0E8165F
:102EC000F10409F090E08091E8008E778093E800AB
:102ED000B6CF88E0E816F10481F3C80121D38093CE
:102EE000F1000F5F1F4F21978FEFE81AF80A209724
:102EF00081F7E3CF8F708093E900EBEEF0E0808103
:102F000081608083EDEEF0E010826093EC004083FE
:102F10008091EE00881F8827881F08958091D6052C
:102F200087FF05C012C08091D505882349F08091A4
:102F3000E80080FFF8CF8091E8008E778093E8006A
:102F400008958091D5058823D9F38091E80082FF08
:102F5000F8CF8091E8008B778093E8000895409146
:102F6000E4005091E50025E69091EC00892F8170F6
:102F700090FF1EC08091E80080FD27C08091D5059C
:102F80008823D9F08530D9F08091EB0085FD19C0F8
:102F90008091E4009091E5004817590729F32150EA
:102FA00091F0AC019091EC00892F817090FDE2CFFF
:102FB0009091E80092FFE2CF089582E0089583E0C7
:102FC000089581E0089584E0089580E0089567D031
:102FD0006ED0E0EEF0E0808181608083E8EDF0E08B
:102FE00080818F77808319BCA7EDB0E08C918E7FB4
:102FF0008C9380818F7E80831092D40508950F93E7
:103000001F93CF93DF934BD052D0C8EDD0E088818F
:103010008F77888388818068888388818F7D888383
:1030200019BC1092D5051092D1051092D3051092BB
:10303000D20500EE10E0F80180818B7F80838881CB
:103040008160888342E060E080E054DFE1EEF0E000
:1030500080818E7F8083E2EEF0E0808181608083DA
:10306000808188608083F80180818E7F8083888161
:1030700080618883DF91CF911F910F910895E8EDD2
:10308000F0E080818F7E8083E7EDF0E080818160D9
:10309000808384E082BF81E08093D405B0CFE8EDE7
:1030A000F0E080818E7F80831092E200089510927C
:1030B000DA001092E10008951F920F920FB60F925E
:1030C00011242F933F934F935F936F937F938F932D
:1030D0009F93AF93BF93EF93FF938091DA0080FFAC
:1030E00004C08091D80080FD50C08091E10080FF35
:1030F00004C08091E20080FD7DC08091E10084FFEA
:103100002BC08091E20084FF27C080E189BD82E16D
:1031100089BD09B400FEFDCF8091D8008F7D8093DA
:10312000D8008091E1008F7E8093E1008091E200E1
:103130008F7E8093E2008091E20081608093E200C4
:103140008091D10581116BC08091E30087FD71C032
:1031500081E08093D505B7D18091E10083FF04C061
:103160008091E20083FD27C0FF91EF91BF91AF9165
:103170009F918F917F916F915F914F913F912F918F
:103180000F900FBE0F901F9018958091DA008E7FE0
:103190008093DA008091D90080FF45C080E189BD2D
:1031A00082E189BD09B400FEFDCF81E08093D505A1
:1031B0000E940A059ACF8091E100877F8093E10009
:1031C00082E08093D5051092D1058091E1008E7F39
:1031D0008093E1008091E2008E7F8093E2008091F5
:1031E000E20080618093E20042E060E080E082DE05
:1031F0006AD1BACF8091E2008E7F8093E200809105
:10320000E20080618093E2008091D8008062809328
:10321000D80019BC85E08093D50555D16ECF84E0E8
:103220008093D50598CF19BC1092D5050E940B0547
:103230005CCF83E08ECF1F93CF93DF9300D01F929C
:10324000CDB7DEB7E6EDF5E02EED35E08091F1008B
:1032500081932E173F07D1F70E945B058091E8000C
:1032600083FF10C09091D6058091D705853089F1F4
:1032700008F47CC08830D9F0893009F4B8C08630B1
:1032800009F447C08091E80083FF0AC08091E800FC
:10329000877F8093E8008091EB0080628093EB0051
:1032A0000F900F900F90DF91CF911F91089590385C
:1032B00049F78091E800877F8093E8008091D105ED
:1032C0008093F1008091E8008E778093E80026DEFD
:1032D000D9CF9111D7CF1091D8051F778091E300F6
:1032E0008078812B8093E3008091E800877F809332
:1032F000E80014DE8091E80080FFFCCF8091E300BD
:1033000080688093E3001111CCC082E08093D505E2
:10331000B9CF9058923008F0B5CF6091DA0570912E
:10332000DB059E012D5F3F4FAE014F5F5F4F8091E8
:10333000D8059091D9050E94190DBC01892B09F47B
:10334000A1CF8091E800877F8093E8008B8188235C
:1033500009F4ABC0813009F4B2C089819A817ADC6A
:103360008091E8008B778093E8008CCF813029F042
:1033700008F45FC0833009F085CF992309F47DC03C
:10338000923009F07FCF9091D805911127C090918C
:10339000DA059F702FEF290F263008F073CF909336
:1033A000E9002091EB0020FF19C0833009F481C0AF
:1033B0008091EB0080618093EB0021E030E0A90177
:1033C00002C0440F551F9A95E2F74093EA0010920D
:1033D000EA008091EB0088608093EB001092E90096
:1033E0008091E800877F8093E80098DD4BCF9111B2
:1033F00049CF8091D8059091D905992702970CF073
:1034000041CF8091E800877F8093E8008091D805C4
:103410008093D10583DD8091D105811144C08091D5
:10342000E30087FD40C081E08093D5050E940C0534
:1034300029CF903871F1923809F024CF8091DA05C4
:103440008F70873008F01ECF8093E9008091EB00E9
:1034500085FB882780F91092E9009091E800977F1A
:103460009093E8008093F1001092F1008091E800C1
:103470008E778093E80052DD05CF9091D80591308A
:1034800009F000CF91E0833009F090E09093D305EC
:10349000A5CF8091D2059091D3059923F1F2826056
:1034A000DCCF83E033CF84E0BFCF89819A8138DCE1
:1034B00057CF8091EB0080628093EB008FCF8981A2
:1034C0009A8195DC4DCF0895CF938091D5058823BF
:1034D00091F0C091E900CF708091EC0080FD0DC0AB
:1034E00080E0C82B1092E9008091E80083FD0DC0B8
:1034F000CF70C093E900CF91089580E8C82B109257
:10350000E9008091E80083FFF3CF95DEF1CFFB0166
:10351000DC0102C001900D9241505040D8F708954F
:10352000F999FECF92BD81BDF89A992780B508958B
:10353000262FF999FECF1FBA92BD81BD20BD0FB6CF
:10354000F894FA9AF99A0FBE01960895F894FFCF6D
:103550000101010100000104000000000000000062
:1035600001070700000000000000003F0156312E57
:103570003800736C6F77006F6666006F6E0073685B
:103580006F7274006E6F726D616C006372006C66B6
:0635900000656F690000F8
:00000001FF
