:1000000089C00000A3C00000A1C000009FC0000084
:100010009DC000009BC0000099C0000097C0000078
:1000200095C0000093C000000C94410E0C940E0F7C
:100030008DC000008BC0000089C0000087C0000098
:1000400085C0000083C0000081C000007FC00000A8
:100050007DC000007BC0000079C000000C943A090C
:1000600075C0000073C0000071C000006FC00000C8
:100070006DC000006BC0000069C0000067C00000D8
:1000800065C0000063C0000061C000005FC00000E8
:100090005DC000005BC0000059C0000057C00000F8
:1000A00055C0000053C0000051C0000010034700BD
:1000B00070006900620055007300620000001603C2
:1000C000580079007000680072006F004C006100F9
:1000D0006200730000000403090409022700010103
:1000E00000C0320904000002FE03010007050302FC
:1000F00040000507058202400005000000000000E6
:10010000001201100100000008EB0365200100014E
:100110000203010011241FBECFEFDAE0DEBFCDBF26
:1001200011E0A0E0B1E0E0EAF1E202C005900D923A
:10013000AC31B107D9F721E0ACE1B1E001C01D92CB
:10014000AB3EB207E1F796D70C94CE1059CF4FE5EE
:1001500050E0AFB7F89493E0909379018823B1F120
:1001600087E490E090937B0180937A0180E590E0B2
:1001700090937D0180937C0189E490E090937F01CE
:1001800080937E0182E490E09093810180938001CE
:100190005093830140938201809102016AE00E94A2
:1001A000A310282F30E0205D3F4F3093850120932E
:1001B0008401892F90E0C0969093870180938601F7
:1001C000509389014093880188E001C080E090E06D
:1001D0006EE071E2282F290FE62FF0E070935700B0
:1001E000E49190FF03C0E295EF706F5FEF7030E035
:1001F0004E2F50E0EA3018F0495C5F4F02C0405D7E
:100200005F4FF901EE0FFF1FE658FE4F5183408309
:100210009F5F9431F9F68B5E880F80937801AFBFB2
:10022000089585E38A95F1F700008091730190911C
:100230007401A0917501B09176010097A105B105F7
:1002400069F00197A109B10980937301909374013A
:10025000A0937501B093760180E0089581E0089540
:100260000E9489109091690180916A01892B0895FB
:100270000E94891090916A0180916901892B0895EB
:100280000E94CC0DF8942FEF87EA91E62150804030
:100290009040E1F700C000009CE088E10FB6F894C0
:1002A000A895809360000FBE90936000EFEFF9E691
:1002B00028E1E150F0402040E1F700C00000E0E01C
:1002C000F0E70995FFCF0E94180B91E08F3F11F4E2
:1002D00090E081E080930201892F0895FF920F93AF
:1002E0001F93CF93DF9300D0CDB7DEB71092780184
:1002F00080EA96E8A1E0B0E08093730190937401E6
:10030000A0937501B093760161E171E080910201E3
:100310000E94F20A8091730190917401A09175017D
:10032000B0917601892B8A2B8B2B31F041E151E082
:1003300060E08AE20E94120B809173019091740137
:10034000A0917501B0917601892B8A2B8B2B31F00E
:1003500041E151E060E089E40E94120B8091730159
:1003600090917401A0917501B0917601892B8A2B2F
:100370008B2B31F041E151E060E084E40E94120BEC
:100380008091730190917401A0917501B0917601F3
:10039000892B8A2B8B2B31F041E151E060E08EE418
:1003A0000E94120B8091730190917401A0917501CC
:1003B000B0917601892B8A2B8B2B31F041E151E0F2
:1003C00060E08FE30E94120B8091730190917401A1
:1003D000A0917501B0917601892B8A2B8B2B31F07E
:1003E00041E151E061E08AE00E94120B81E191E07D
:1003F0000E94C20A8091730190917401A0917501CD
:10040000B0917601892B8A2B8B2B09F46EC180EA7F
:1004100096E8A1E0B0E08093730190937401A093FB
:100420007501B093760161E171E0809102010E9453
:10043000D60AF12C10E041E151E0BE016F5F7F4F21
:10044000CE0102960E94450A01E0F11003C08C32F1
:1004500009F000E0F02E982F9F7E9A3261F09F32D3
:1004600051F08C3541F0982F9D7F903221F08C32E5
:1004700011F0863209F48FE590EE980F9F3550F415
:10048000E12FF0E0EE0FFF1FE658FE4F90E0918362
:1004900080831F5F123350F48981811107C08A81E4
:1004A000882349F203C0123060F01150E12FF0E0D0
:1004B000EE0FFF1FE858FE4F808191818F35910527
:1004C00091F381E0810F880F8093780181E191E0C1
:1004D0000E94C20A8091730190917401A0917501EC
:1004E000B0917601892B8A2B8B2B11F0111101C150
:1004F00080EA96E8A1E0B0E08093730190937401E4
:10050000A0937501B093760161E171E080910201E1
:100510000E94F20A8091730190917401A09175017B
:10052000B0917601892B8A2B8B2B31F041E151E080
:1005300060E089E40E94120B809173019091740134
:10054000A0917501B0917601892B8A2B8B2B31F00C
:1005500041E151E060E084E40E94120B809173015C
:1005600090917401A0917501B0917601892B8A2B2D
:100570008B2B31F041E151E060E08FE30E94120BE0
:100580008091730190917401A0917501B0917601F1
:10059000892B8A2B8B2B31F041E151E061E08AE01D
:1005A0000E94120B81E191E0EDD78091730190914F
:1005B0007401A0917501B0917601892B8A2B8B2B48
:1005C00009F491C080EA96E8A1E0B0E0809373015D
:1005D00090937401A0937501B093760161E171E08D
:1005E00080910201E3D710E041E151E0BE016F5F6D
:1005F0007F4FCE01029649D701E0F11003C08C3243
:1006000009F000E0F02E982F9F7E9A3261F09F3221
:1006100051F08C3541F0982F9D7F903221F08C3233
:1006200011F0863209F48FE590EE980F9F3558F45B
:10063000E12FF0E0EE0FFF1FE658FE4F282F30E0CD
:10064000318320831F5F123370F4998191110BC0A5
:100650009A81911108C08D3031F08A3029F603C09B
:10066000123060F01150E12FF0E0EE0FFF1FE8585C
:10067000FE4F808191818F35910591F381E0810F4B
:10068000880F8093780181E191E07CD7011118C037
:1006900088E490E090937B0180937A0180E590E07C
:1006A00090937D0180937C0120917E0130917F01A8
:1006B0002053310981E02A30310518F080E001C073
:1006C00081E04091730150917401609175017091C6
:1006D0007601452B462B472B41F0112331F088231F
:1006E00021F011E009C0002399F281E030DD10E033
:1006F00003C0002369F2F5CF80E0F2D52FEF81EE41
:1007000094E0215080409040E1F700C0000081E07B
:10071000E7D5812F0F900F90DF91CF911F910F910F
:10072000FF9008951A9BACCD08951F93CF93DF934C
:10073000EC01162FF999FECFCE010E94B810811757
:1007400049F0F999FECF612FCE01DF91CF911F9132
:100750000C94C010DF91CF911F91089584B7877FCB
:1007600084BF0FB6F894A89580916000886180934B
:100770006000109260000FBE90E080E80FB6F89421
:1007800080936100909361000FBE0E94240EE0EE02
:10079000F0E080818160808380E0D9DC859A8D9A49
:1007A00008950895089542E361EC81E00E94450DAB
:1007B00042E361E882E00E94450D42E360E883E0A5
:1007C0000C94450DCF938091E7019091E80100973B
:1007D00029F48091E30180FD0BC078C18238910536
:1007E00019F0039709F072C18091E30181FF6EC196
:1007F0008091E401863009F4FAC090F4833009F462
:100800008AC038F4813009F457C0823009F477C0C7
:100810005DC1843009F4A6C0853009F4D3C056C147
:10082000803861F108F5873009F403C1803409F09C
:100830004DC18091E800877F8093E80081E080933C
:10084000F1008091E8008E778093E8000E947A0D95
:100850008D982FEF84E39CE0215080409040E1F799
:1008600000C000008D9A32C1813A09F40EC1823A6B
:1008700009F4FBC0803A09F029C1F0C0C091E5013C
:1008800080E593ECA0E0B0E0809373019093740155
:10089000A0937501B093760161E171E0809102014E
:1008A00030D69091E800977F9093E80091E0909384
:1008B000F100C093F10000C19091E301923A09F078
:1008C00005C190916B0191110EC02091680130E03B
:1008D0004091E5015091E6014217530731F48093AE
:1008E0006B0181E003C083E801C081E891E090934F
:1008F00069019091E800977F9093E800DDC08091B6
:10090000E301823A09F0E2C080916B018130D9F5B0
:100910008091690132C09091E301923A09F0D6C00A
:1009200090916B0191110EC02091680130E04091CF
:10093000E5015091E6014217530731F480936B01B2
:1009400081E003C083E801C081E891E090936A01EF
:100950009091E800977F9093E8008093F100809158
:100960006801AAC08091E301823A09F0AFC080918A
:100970006B01833041F480916A01811106C01092AD
:100980006B0181E003C082E801C082E09091E80041
:10099000977F9093E8008093F1001092F1001092FD
:1009A000F10080916601909167018093F100A0E0D1
:1009B000B0E0892F9A2FAB2FBB278093F1001092C4
:1009C000F10034C09091E301913A09F07FC0909119
:1009D0006B01992321F083E88093F10067C091E0D7
:1009E00090936A019093690180936B015FC080913D
:1009F000E301813A09F06AC080916B01853061F4AE
:100A000080916A0181110AC080916901811106C03B
:100A100010926B0181E003C082E801C082E09091F6
:100A2000E800977F9093E8008093F1001092F10026
:100A300045C08091E301813A09F048C08091E80007
:100A4000877F8093E80068E170E083E091E0E5D67D
:100A50008091E8008B778093E80038C08091E501B1
:100A6000813009F080E03CD421C080E593ECA0E027
:100A7000B0E08093730190937401A0937501B093DB
:100A8000760181E191E0F6D411C080E593ECA0E01D
:100A9000B0E08093730190937401A0937501B093BB
:100AA000760161E171E080910201D0D48091E8008B
:100AB000877F8093E80081E08093F1008091E800D7
:100AC0008E778093E800CF910C947A0DCF910895A2
:100AD000CF92DF92EF92FF920F931F93CF93DF930A
:100AE0006C01F62EC42FE22E81E0FAD38D98CC2330
:100AF00029F0B8018091020175D501C080E0E601BE
:100B0000CE2CFF2069F0811111C0FA948991F11067
:100B100002C06C2D01C060E06170A80183D5F1CFE7
:100B2000EE2021F0811102C0C8012CD58D9ADF91F1
:100B3000CF911F910F91FF90EF90DF90CF9008958C
:100B40006F927F928F929F92AF92BF92CF92DF92DD
:100B5000FF920F931F93CF93DF9300D0CDB7DEB7F3
:100B60005C01F62E742E4901680181E0B9D38D989D
:100B70001982772029F0B8018091020117D5898365
:100B80001A8286E2682E81E0782E10E09A818981AF
:100B9000911113C0F116B1F0811118C0A601BE0168
:100BA0006F5F7F4FCE01029670D499819111EECF85
:100BB0001F5FF30181933F01E9CF811107C0C60197
:100BC000E1D4F12E8981882321F01F2D81E08A83D1
:100BD000F12E8A81F40180834F2D50E066E271E0AE
:100BE000C5010E94AF108D9A8F2D0F900F90DF914D
:100BF000CF911F910F91FF90DF90CF90BF90AF905A
:100C00009F908F907F906F90089581E08093010175
:100C1000809300011092220110922301109224016E
:100C20001092250163C30F931F93CF93DF9300D0DE
:100C3000CDB7DEB723E02093E9002091E80022FF42
:100C40001CC08C011A821982AE014F5F5F4F6CE0AD
:100C500070E0C80199D5982F80916901953011F401
:100C6000882391F3F801218120936801811102C04A
:100C700081E0911180E0817001C080E00F900F90C1
:100C8000DF91CF911F910F9108950F931F93CF93F1
:100C9000DF9300D0CDB7DEB78C0180916801F801F9
:100CA00081838095828382E08093E9001A82198291
:100CB000AE014F5F5F4F6CE070E0C8011CD59091B2
:100CC0006A01853011F4992399F3911105C091E0DF
:100CD000811190E0892F01C080E081700F900F900A
:100CE000DF91CF911F910F910895BF92CF92DF9224
:100CF000EF92FF920F931F93CF93DF93CDB7DEB7A1
:100D0000CD58D1090FB6F894DEBF0FBECDBF80918C
:100D1000E201843009F09DC180912201909123016C
:100D2000A0912401B0912501892B8A2B8B2B09F0EE
:100D300020C1CE018F579F4F76DF882309F47DC1F4
:100D400080911C0190911D01019690931D0180934B
:100D50001C01CF57DF4F8881C158D040823009F441
:100D60009EC0803821F0813009F0FDC017C080E5B9
:100D700093ECA0E0B0E08093730190937401A09392
:100D80007501B093760161E171E08091020149D370
:100D90008091E8008B778093E8004FC1CB57DF4FFD
:100DA0003881C558D040CA57DF4F2881C658D04037
:100DB000C957DF4F9881C758D040C857DF4F888147
:100DC000C858D040309322012093230190932401EE
:100DD000809325011092670110926601C32ED22ED6
:100DE000E92EF82E85E3C816D104E104F10428F0B9
:100DF00094E3C92ED12CE12CF12CBC2C46E651E019
:100E0000B601CE010196C0D4853021F480916901EC
:100E10008823A1F38091220190912301A0912401C4
:100E2000B09125018C199D09AE09BF09809322015B
:100E300090932301A0932401B0932501C757DF4F5E
:100E40002881C958D04031E0211101C030E03093F1
:100E50007701222329F021E0892B8A2B8B2B09F0A3
:100E600020E02170C357DF4F2883CD58D04000E3E6
:100E700011E0409101016B2DCE01019629DE83E046
:100E80008093E9008091E8008B778093E800C35756
:100E9000DF4F8881CD58D04080930101CEC0809132
:100EA000E8008B778093E800CB57DF4F688179812A
:100EB0008A819B81C558D0406433710581059105B5
:100EC00020F063E370E080E090E008E311E09E0131
:100ED00023573F4F40910001CE01019631DE90E053
:100EE000A0E0B0E0CB57DF4F88839983AA83BB8310
:100EF000C558D040C357DF4F8881CD58D04080932C
:100F00000001C757DF4F8883C958D04080916A01DC
:100F1000811104C0CE018F579F4FB7DE1092670139
:100F20001092660180916A01882379F082E08093B3
:100F3000E9008091E8008E778093E80080916A0153
:100F4000882309F47AC061DE78C0CB57DF4F68810F
:100F50007981C558D04046E651E0CE010196CBD309
:100F6000853001F3E3CF8091EB0080628093EB004A
:100F700064C083E08093E9008091E80082FF5DC057
:100F800010926701109266018091220190912301D5
:100F9000A0912401B091250180349105A105B105EE
:100FA00010F4F82E02C080E4F82ECF2CD12C46E6A7
:100FB00051E0B601CE010196E7D3853021F480914E
:100FC00069018823A1F38091220190912301A091CE
:100FD0002401B09125018F199109A109B1098093CC
:100FE000220190932301A0932401B09325018091C5
:100FF000E8008B778093E80080917701882369F07F
:1010000021E08091220190912301A0912401B091CF
:101010002501892B8A2B8B2B09F020E02170C357E7
:10102000DF4F2883CD58D0402093010100E311E029
:1010300040E06F2DCE0101964BDD80916901811159
:1010400003C080916A018111E0DD10926A01109263
:101050006901C357DF4F0FB6F894DEBF0FBECDBF97
:10106000DF91CF911F910F91FF90EF90DF90CF9084
:10107000BF90089514BE0FB6F894A89580916000B3
:10108000886180936000109260000FBE2A9A2298B7
:1010900065DB40D178941DD1811117C02FEF84E317
:1010A0009CE0215080409040E1F700C000008D9A04
:1010B000EFEFF4E32CE0E150F0402040E1F700C016
:1010C00000008D982FDBE7CF2DDBFDD881112CC0E0
:1010D0008FEF91EEE4E081509040E040E1F700C0F6
:1010E00000008D9AFFEF21EE84E0F1502040804017
:1010F000E1F700C000008D98ECD08111E5CF8D980C
:101100009FEFE9E6F8E19150E040F040E1F700C0E0
:1011100000009CE088E10FB6F894A89580936000E9
:101120000FBE90936000FFCFF999FECF80E090E072
:101130000E94B810C82FD2D88823C9F0609102014C
:1011400080E090E0F2DA08E711E0C0E0D0E0F801DA
:1011500061918F012196CE01E8DAC636D105B9F743
:101160008D9A8091E0008E7F8093E00013C0809183
:101170000201C813F5CF08E711E0C1E0D0E0CE01CD
:10118000F7D7F80181938F012196C736D105B9F7BA
:10119000E7CFBFD7AADDC6DA9CD08111FACF8D98F0
:1011A0008091E00081608093E000FFEF29E688E114
:1011B000F15020408040E1F700C000009CE088E151
:1011C0000FB6F894A895809360000FBE90936000CE
:1011D000FFCFF9011082692F77276230710559F02E
:1011E0006330710569F06130710549F582E190E085
:1011F00021E031E028C087E290E02AED30E023C012
:1012000099278130910591F070F08230910589F035
:101210000397A9F48091780190E062E0F90160837E
:1012200028E731E010C0E6EDF0E005C0EEEBF0E0BD
:1012300002C0ECEAF0E0849190E09F0104C080E0FD
:1012400090E020E030E0FA0131832083089585E3C7
:101250008A95F1F7000080916C0190916D010097E3
:1012600039F0019790936D0180936C0180E00895AF
:1012700081E008951F920F920FB60F9211248F9361
:10128000809171018F5F809371018630E0F08091D1
:1012900072018F5F809372011092710180916E01D3
:1012A000811111C07E990AC080916F01823011F4C2
:1012B00081E007C08F5F80936F0105C010926F01BE
:1012C00082E0809370018F910F900FBE0F901F905E
:1012D000189581E090917001923009F080E00895B6
:1012E000882311F0259A0895259808956A9A2FEF7A
:1012F00081EE94E0215080409040E1F700C0000072
:101300006A988FE39CE90197F1F700C00000109202
:101310006E0108951AB81BB885B18F7885B984B16C
:101320008F7884B988B18F7388B987B18F7387B983
:1013300072986A9881B38F7381BB80B38F7380BBBF
:10134000259A10926E0110926F01D0DF85E085BD65
:10135000EEE6F0E08081816080831092710110924E
:10136000720108950F931F93CF938A0126983E9898
:101370003F98662311F0869A01C086988AB985E065
:101380008A95F1F70000F8010995C82F369903C036
:101390008823C9F30BC0811109C0269AF801099569
:1013A000C82F379902C08823C9F326981AB886989F
:1013B000C111B0DF8C2FCF911F910F9108950F9322
:1013C0001F93CF93C82F8B018F71AB0161E08064B5
:1013D000C9DFC07E39F0A80161E080E6CF911F919E
:1013E0000F91C0CFCF911F910F9108950F931F932D
:1013F000CF93C82F8B018F71AB0161E08062B2DFA8
:10140000C07E39F0A80161E080E6CF911F910F9175
:10141000A9CFCF911F910F910895AC0161E08FE3A7
:10142000A1CFCF93DF93EB01E1DF81110AC0AE01C1
:1014300061E088E097DF811104C0CE01EEDF8823F0
:1014400011F068DF81E0DF91CF910895CF93DF93B2
:10145000EB01CCDF811109C0AE0161E081E082DFE8
:10146000811103C0CE01D9DF811154DF80E0DF910B
:10147000CF910895CF93AC0161E081E173DFC82F74
:10148000811148DF8C2FCF910895AF92BF92CF92F8
:10149000DF92EF92FF921F93CF93DF935C016B017A
:1014A0007A013F9A3E98F7010995C82F1E9B03C009
:1014B0008823C9F313C0811111C03E9AD9B1D095C8
:1014C00013B11295117081E018273F98F701099523
:1014D000C82F1E9905C08823C9F302C010E0D0E0D0
:1014E000F5011083C11116DFF601C0838D2FDF9146
:1014F000CF911F91FF90EF90DF90CF90BF90AF9072
:101500000895FF920F931F93CF93DF9300D0CDB731
:10151000DEB7F82E8B011A82AB0161E088E122DF91
:101520008A83811104C0B8018F2D49DF8A83869890
:101530003F9A8A81811109C0A801BE016E5F7F4F69
:10154000CE010196A2DFF82E01C0F12C8A81811113
:1015500005C0A80161E08FE505DF8A838A818111DA
:1015600005C0A80161E089E1FDDE8A838A818111DD
:10157000D1DE8F2D0F900F90DF91CF911F910F91A2
:10158000FF900895CF93DF93EC0147DF882319F094
:10159000C1DE81E006C0AE0161E08FE5E3DE8111CE
:1015A000F7CF10926E01DF91CF9108950F931F93A3
:1015B000CF93DF93D82F8B0181E080936E01CB0115
:1015C0002CDFC82F811104C0B8018D2FF8DEC82F81
:1015D00086983F9AC1119EDE8C2FDF91CF911F918B
:1015E0000F9108951F93CF93DF93182FEB0181E0A4
:1015F00080936E01AB0161E08FE5B4DE882311F0CA
:10160000C1E008C0CE0109DF8111FACFBE01812FF0
:10161000EDDEC82F8698C1117DDE8C2FDF91CF9132
:101620001F9108956111249A60E09CDE249808952A
:10163000EF92FF921F93CF93DF9384EF91E090930B
:101640006D0180936C0147E259E061E08FE38ADE2F
:10165000CFEF84EFE82EFF24F394CF5F1C2F1F7190
:101660001F3109F43CC0F0926D01E0926C0167E219
:1016700079E08C2FBBDE86988FE39FE10197F1F72D
:1016800000C0000037992BC07E9B29C0DC2F84EF5F
:1016900091E090936D0180936C0147E259E061E025
:1016A0008FE360DEC03200F167E279E0812F9EDED9
:1016B00086988FE39FE10197F1F700C0000037990A
:1016C00002C07E99D12F84EF91E090936D018093B9
:1016D0006C0147E259E061E08FE344DE05C0CF339F
:1016E00009F0BBCFDFEFD3CF8D2FDF91CF911F91CB
:1016F000FF90EF900895CF92DF92EF92FF920F93B9
:101700001F93CF93DF93EC018B017A0112D28111E9
:1017100032C0E114F10439F0F70180819181081B96
:10172000190BC80FD91FC12CD12C0115110511F1AE
:101730008091E80085FD15C08091E8008E77809348
:10174000E800E114F10449F0F70180819181C80EAD
:10175000D91ED182C08285E00EC0EBD1882329F347
:101760000AC089918093F10001501109FFEFCF1A4F
:10177000DF0ADBCF80E0DF91CF911F910F91FF90C7
:10178000EF90DF90CF900895CF92DF92EF92FF928B
:101790000F931F93CF93DF93EC018B017A01C9D193
:1017A000811132C0E114F10439F0F7018081918197
:1017B000081B190BC80FD91FC12CD12C01151105FD
:1017C00011F18091E80085FD15C08091E8008B77CC
:1017D0008093E800E114F10449F0F70180819181E0
:1017E000C80ED91ED182C08285E00EC0A2D1882346
:1017F00029F30AC08091F100899301501109FFEF8C
:10180000CF1ADF0ADBCF80E0DF91CF911F910F91DC
:10181000FF90EF90DF90CF9008952091E9013091F3
:10182000EA012617370748F06115710539F4209150
:10183000E8002E772093E80001C0B901FC0120E008
:101840006115710579F18091E2018823F1F185300C
:10185000F1F18091E80083FD3CC08091E80082FDB9
:101860002EC08091E80080FFEBCF2091F3008091A3
:10187000F20090E0922B6115710551F088309105CE
:1018800038F421912093F100615071090196F3CF52
:1018900021E0089709F020E08091E8008E7780939E
:1018A000E800CECF2111CFCF0AC08091E20188237A
:1018B00061F0853061F08091E80083FD0AC080917D
:1018C000E80082FFF2CF80E0089582E0089583E08F
:1018D000089581E008952091E9013091EA012617E9
:1018E000370748F06115710539F42091E8002E772B
:1018F0002093E80001C0B901FC0120E061157105E9
:1019000091F18091E201882309F440C0853009F407
:101910003FC08091E80083FD3DC08091E80082FDDA
:101920002FC08091E80080FFE9CF2091F3008091E3
:10193000F20090E0922B6115710559F08830910505
:1019400040F424912093F100319661507109019681
:10195000F2CF21E0089709F020E08091E8008E772F
:101960008093E800CBCF2111CCCF0AC08091E20157
:10197000882361F0853061F08091E80083FD0AC022
:101980008091E80082FFF2CF80E0089582E0089520
:1019900083E0089581E00895CF92DF92EF92FF9265
:1019A0000F931F93CF93DF93EB012091E9013091C7
:1019B000EA012617370740F0209739F42091E80014
:1019C0002E772093E80001C0E9016C0120E0209708
:1019D000D9F18091E201882309F449C0853009F4E6
:1019E00048C08091E80083FD46C08091E80082FDF8
:1019F00038C08091E80080FFEACF8091F300009129
:101A0000F20010E0182B7801C701801B910B8C0DA0
:101A10009D1D209761F038E0E316F10440F4A8D34F
:101A20008093F10021972FEFE21AF20AEDCF21E027
:101A300038E0E316F10409F020E03091E8003E7749
:101A40003093E8006C01C3CF2111C3CF0AC080914D
:101A5000E201882361F0853061F08091E80083FD28
:101A60000AC08091E80082FFF2CF80E005C082E0EA
:101A700003C083E001C081E0DF91CF911F910F91FE
:101A8000FF90EF90DF90CF900895982F973068F5F2
:101A90009093E900981739F07091EC002091ED00D7
:101AA0005091F00003C0242F762F50E021FD02C09A
:101AB0009F5FECCF3091EB003E7F3093EB00309195
:101AC000ED003D7F3093ED003091EB0031603093BD
:101AD000EB007093EC002093ED005093F000209108
:101AE000EE0027FDE5CF80E008958F708093E90038
:101AF00081E008958091E30187FF11C08091E800A3
:101B000082FD05C08091E2018111F8CF11C0809162
:101B1000E8008B770BC08091E201882349F0809127
:101B2000E80080FFF8CF8091E8008E778093E8008E
:101B300008952091E4003091E50095E64091EC0095
:101B4000842F817040FF23C08091E80080FD1DC07C
:101B50008091E201882399F0853099F08091EB0023
:101B600085FD11C04091E4005091E5002417350730
:101B700029F3915011F09A01E1CF84E0089582E0B9
:101B8000089583E0089581E0089580E008954091EC
:101B9000E80042FFDDCF089567D06ED0E0EEF0E0C0
:101BA000808181608083E8EDF0E080818F778083A1
:101BB00019BCA7EDB0E08C918E7F8C9380818F7ED5
:101BC00080831092E10108950F931F93CF93DF93C9
:101BD0004BD052D0C8EDD0E088818F778883888140
:101BE0008068888388818F7D888319BC1092E20188
:101BF0001092DE011092E0011092DF0100EE10E081
:101C0000F80180818B7F808388818160888342E0B6
:101C100060E080E03ADFE1EEF0E080818E7F80835B
:101C2000E2EEF0E080818160808380818860808343
:101C3000F80180818E7F8083888180618883DF9135
:101C4000CF911F910F910895E8EDF0E080818F7E94
:101C50008083E7EDF0E080818160808384E082BF53
:101C600081E08093E101B0CFE8EDF0E080818E7FEC
:101C700080831092E20008951092DA001092E10041
:101C800008951F920F920FB60F9211242F933F9336
:101C90004F935F936F937F938F939F93AF93BF9374
:101CA000EF93FF938091E10082FF0AC08091E200F0
:101CB00082FF06C08091E1008B7F8093E10028D2F3
:101CC0008091DA0080FF1FC08091D80080FF1BC088
:101CD0008091DA008E7F8093DA008091D90080FFB6
:101CE0000DC080E189BD82E189BD09B400FEFDCF50
:101CF00081E08093E2010E94D10305C019BC1092DB
:101D0000E2010E94D2038091E10080FF18C080911F
:101D1000E20080FF14C08091E2008E7F8093E20099
:101D20008091E20080618093E2008091D80080621F
:101D30008093D80019BC85E08093E201E9D18091BD
:101D4000E10084FF2FC08091E20084FF2BC080E17E
:101D500089BD82E189BD09B400FEFDCF8091D80024
:101D60008F7D8093D8008091E1008F7E8093E10089
:101D70008091E2008F7E8093E2008091E20081609A
:101D80008093E2008091DE01882311F084E007C097
:101D90008091E30087FD02C081E001C083E0809371
:101DA000E201B6D18091E10083FF27C08091E2007B
:101DB00083FF23C08091E100877F8093E10082E070
:101DC0008093E2011092DE018091E1008E7F80938A
:101DD000E1008091E2008E7F8093E2008091E2003A
:101DE00080618093E20042E060E080E04EDE80911E
:101DF000F00088608093F0008BD1FF91EF91BF914C
:101E0000AF919F918F917F916F915F914F913F9192
:101E10002F910F900FBE0F901F9018951F920F9249
:101E20000FB60F9211242F933F934F935F936F93AD
:101E30007F938F939F93AF93BF93CF93DF93EF9352
:101E4000FF93C091E900CF708091EC00D82FD17042
:101E500080FDD0E81092E9008091F000877F8093A8
:101E6000F00078941ED01092E9008091F000886014
:101E70008093F000CD2BCF70C093E900FF91EF91DC
:101E8000DF91CF91BF91AF919F918F917F916F9192
:101E90005F914F913F912F910F900FBE0F901F9028
:101EA00018951F93CF93DF9300D01F92CDB7DEB765
:101EB000E3EEF1E08BEE91E02091F10021938E179B
:101EC0009F07D1F70E94E2038091E80083FF0BC1D6
:101ED0008091E3019091E401953009F483C030F4DE
:101EE0009130A9F168F0933091F1FDC0983009F478
:101EF000C9C0993009F4D5C0963009F0F4C094C037
:101F0000803821F0823809F0EEC008C08091DF01EE
:101F10009091E001992389F082600FC08091E701E0
:101F20008F70873008F0DFC08093E9008091EB006C
:101F300085FB882780F91092E9009091E800977F4F
:101F40009093E8008093F1001092F100A6C0282F32
:101F50002D7F09F0C8C0882319F0823061F0C3C01A
:101F60008091E501813009F0BEC0933009F080E036
:101F70008093E0012EC08091E50181112AC08091FB
:101F8000E7018F702FEF280F263008F0ACC0809348
:101F9000E9002091EB0020FF1CC0933021F48091D8
:101FA000EB00806214C09091EB0090619093EB0085
:101FB00021E030E0A90102C0440F551F8A95E2F7E5
:101FC0004093EA001092EA008091EB0088608093D1
:101FD000EB001092E9008091E800877F8093E80091
:101FE00089DD81C081117FC01091E5011F7780914B
:101FF000E3008078812B8093E3008091E800877F65
:102000008093E80077DD8091E80080FFFCCF80912D
:10201000E30080688093E300111102C082E001C0F8
:1020200083E08093E2015FC08058823008F05BC09B
:102030006091E7017091E8019E012D5F3F4FAE0175
:102040004F5F5F4F8091E5019091E601C2D8BC01DE
:10205000892B09F448C08091E800877F8093E800CD
:102060002B8189819A81211102C035DC05C0213084
:1020700011F492DC01C0D1DB8091E8008B77809372
:10208000E80031C0803879F58091E800877F80933F
:10209000E8008091DE018093F1008091E8008E7766
:1020A0009DCF811120C08091E5019091E601992793
:1020B0000297CCF48091E800877F8093E8008091BC
:1020C000E5018093DE0116DD8091DE01811106C0FD
:1020D0008091E30087FD02C081E001C084E080932D
:1020E000E2010E94D3038091E80083FF0AC080913F
:1020F000E800877F8093E8008091EB008062809306
:10210000EB000F900F900F90DF91CF911F910895EA
:102110000895CF938091E201882399F0C091E9005E
:10212000CF709091EC00892F817090FD80E8C82BD2
:102130001092E9008091E80083FDB3DECF70C09378
:10214000E900CF910895991B79E004C0991F961773
:1021500008F0961B881F7A95C9F780950895FB01B2
:10216000DC0102C001900D9241505040D8F7089513
:10217000F999FECF92BD81BDF89A992780B508954F
:10218000262FF999FECF1FBA92BD81BD20BD0FB693
:10219000F894FA9AF99A0FBE01960895F894FFCF31
:1021A0000101010100000104000000000000000026
:0C21B0000103030000000000000000001C
:00000001FF
